:020000040806EC
:100000006864002019030608C33C0608C93A0608BC
:10001000C13C0608991A0608F947060800000000C6
:100020000000000000000000000000005902060867
:100030005D1E060800000000B5020608FD41060826
:1000400033030608330306083303060833030608A0
:100050003303060833030608330306083303060890
:100060003303060833030608330306083303060880
:100070003303060833030608330306083303060870
:100080003303060833030608651906083303060818
:100090003303060833030608330306083303060850
:1000A0003303060833030608330306083303060840
:1000B000B542060833030608C142060833030608A2
:1000C0003303060833030608330306083303060820
:1000D00033030608D547060833030608E147060838
:1000E0003303060833030608330306083303060800
:1000F00033030608330306083303060833030608F0
:1001000033030608330306083303060833030608DF
:1001100033030608330306083303060833030608CF
:1001200033030608330306083303060833030608BF
:1001300033030608330306083303060833030608AF
:10014000330306083303060833030608330306089F
:10015000330306083303060833030608ED47060891
:10016000330306083303060833030608330306087F
:1001700033030608330306083303060800000000B3
:10018000330306083303060800F002F800F055F8C0
:100190000AA090E8000C82448344AAF10107DA45E2
:1001A00001D100F04AF8AFF2090EBAE80F0013F0DF
:1001B000010F18BFFB1A43F0010318477C670000CA
:1001C0009C670000103A24BF78C878C1FAD852075B
:1001D00024BF30C830C144BF04680C6070470000C1
:1001E0000023002400250026103A28BF78C1FBD840
:1001F000520728BF30C148BF0B607047662906F020
:10020000BA82642900F0B881732900F0CC850020FF
:1002100070471FB506F0A5FA00F03EFE040000206E
:10022000002105F0D3FD401C60600020002105F096
:10023000E3FDE0601FBD10B510BD00F055FF114695
:10024000FFF7E7FF04F016FC00F073FF03B4FFF7BD
:10025000F2FF03BC00F0B6FF2C4B19680868B0E849
:10026000F04F80F30988BFF36F8F4FF0000080F3E9
:10027000118870470000000008480068006880F39B
:1002800008884FF0000080F3148862B661B6BFF3AF
:100290004F8FBFF36F8F00DF00BF00BF08ED00E09E
:1002A000DFF80C00016841F470010160704700BF85
:1002B00088ED00E0EFF30980BFF36F8F134B1A68EE
:1002C0001EF0100F08BF20ED108A20E9F04F1060DB
:1002D00009B44FF0500080F31188BFF34F8FBFF384
:1002E0006F8F05F07DF94FF0000080F3118809BC95
:1002F00019680868B0E8F04F1EF0100F08BFB0ECA6
:10030000108A80F30988BFF36F8F70476000002068
:10031000EFF305807047000009488047094800470F
:10032000FEE7FEE7FEE7FEE7FEE7FEE7FEE7FEE7A5
:10033000FEE7FEE704480549054A064B7047000002
:10034000A542060889010608685E0020686400204E
:10035000686000206860002070B50446051F00F04A
:1003600083FA0068002C14BF446870BD002C18BFCD
:10037000AC423CBF20466468F8D301680A18AA4220
:1003800018BF456003D12A680546114401602868FA
:100390004119A1421CBF6C6070BD61686960216831
:1003A0000844286070BD53EA020C00F069802DE912
:1003B000F04B4FF00006002B1FBFB3FA83F503FA92
:1003C00005F424FA05F65E4012BF1643B2FA82F530
:1003D00002FA05F4C5F120051EBF22FA05FC44EA25
:1003E0000C04203556EA044C4FEA144418BF641C30
:1003F0004FF000084FF00009904271EB030C39D325
:10040000002919BFB1FA81F701FA07F6B0FA80F7AF
:1004100000FA07F6C7F120071EBF20FA07FC46EADC
:100420000C062037B6FBF4FCA7EB0507103F07F0DE
:100430001F0BCBF120060CFA0BFB2CFA06F644BF7F
:10044000B3460026202FA4BF5E464FF0000B5BEAA8
:10045000060C08BF4FF0010B19EB0B09ABFB027C3C
:1004600048EB0608C01B06FB02CC0BFB03CC71EB70
:100470000C01C1E70B46024641464846BDE8F08BF9
:1004800013B54FF000004FF00001AFF30080BDE85E
:100490001C4070470FB41CB5074B06AA7B44694645
:1004A0000090059800F055FC0020694600F064FCBF
:1004B0001CBC5DF814FB0000D90800002DE9F041D8
:1004C0000E460446002020622046E168884730B38B
:1004D000252805D0D4E901219047206A401CF2E785
:1004E000E168204600278847050018D0A5F14100A3
:1004F000192802D820354FF4006732462946204695
:100500002760FFF77BFE40B1012804D0F61D26F0DE
:1005100007060836D8E7361DD6E72846DAE7206A08
:10052000BDE8F08170B50C460546012A05D0287853
:10053000800600D5EA69002302E0012305E05B1C88
:10054000934202D2E05C0028F9D1A869E618C01AEB
:10055000A861286A184428622846AFF3008004E0A6
:10056000D5E9012114F8010B9047B442F8D328468D
:10057000AFF3008070BD00002DE9F0410646002475
:1005800010687529314616A510D0AFF300800028F9
:1005900002DA404213A507E031688A0701D512A5A7
:1005A00002E0490704D511A5012401E0AFF3008062
:1005B00000210A2206F1240709E0B0FBF2FCB0FB9F
:1005C000F2F302FB1C00303078541846491C002816
:1005D000F3D123462A463046BDE8F04100F04CB93D
:1005E000000000002D0000002B0000002000000093
:1005F0002DE9F04791460F4680460446002614F840
:10060000015B2DB100F028F90068405DC007F6D10C
:100610002B2D02D02D2D18D0641E4A463946204677
:1006200000F0C5FB27B13968A14201D1C7F80080AD
:100630004FF0020471050BD54042002803DD00F0A5
:1006400017F90460A007BDE8F08746F48066E4E788
:100650000028F8DA00F00CF904606FF00040F2E7CF
:10066000014A00F0F3BB0000C800002030B5054689
:100670000B462A4613F8014B12F8010B08B1A042B1
:10068000F8D01CB1002802D06D1CF1E7284630BD1F
:1006900040EA0103024630B59B0710D14FF0013408
:1006A00000E008C208C91D1B9D4315EAC41FF8D00D
:1006B00013F0FF0102F8011B0DD01B0AF8E711F837
:1006C000013B002B02F8013B05D011F8013B002B48
:1006D00002F8013BF3D130BD10B5431C02E010F825
:1006E000011B71B18107FAD14FF0013202C88C1A97
:1006F0008C4314EAC211F9D0C01A0A0603D0C01EF6
:1007000010BDC01A10BD0A0401D0801E10BD090220
:10071000FCD0401E10BD032A40F2308010F0030CC4
:1007200000F0158011F8013BBCF1020F624498BF44
:1007300011F801CB00F8013B38BF11F8013BA2F1E1
:10074000040298BF00F801CB38BF00F8013B11F05C
:10075000030300F02580083AC0F0088051F8043BFC
:10076000083A51F804CBA0E80810F5E7121D5CBF69
:1007700051F8043B40F8043BAFF30080D20724BF9C
:1007800011F8013B11F801CB48BF11F8012B24BF30
:1007900000F8013B00F801CB48BF00F8012B70477F
:1007A00010B5203AC0F00B80B1E81850203AA0E80C
:1007B0001850B1E81850A0E81850BFF4F5AF5FEA40
:1007C000027C24BFB1E81850A0E8185044BF18C9F3
:1007D00018C0BDE810405FEA827C24BF51F8043B9A
:1007E00040F8043B08BF7047D20728BF31F8023BEE
:1007F00048BF11F8012B28BF20F8023B48BF00F882
:10080000012B70474FF0000200B513469446964600
:10081000203922BFA0E80C50A0E80C50B1F1200113
:10082000BFF4F7AF090728BFA0E80C5048BF0CC0C1
:100830005DF804EB890028BF40F8042B08BF70471F
:1008400048BF20F8022B11F0804F18BF00F8012B91
:10085000704770477047704710B500F01DFB001DD2
:1008600010BD00BF69550000004870470C5E0020B5
:1008700000487047045E00202DE9F0470D46994678
:100880009246044600F124080168880604D5E06910
:1008900021F01001216000E00120A84201DD471B8A
:1008A00000E00027A1697A1902EB0900081AA0618B
:1008B0002078C00602D42046AFF30080002608E06E
:1008C000D4E901211AF806009047206A401C761CE2
:1008D00020624E45F4DB2078C0060AD52046AFF3EF
:1008E000008006E0D4E9012130209047206A401CB6
:1008F0002062381EA7F10107F4DC07E0D4E90121EA
:1009000018F805009047206A401C2062281EA5F1B7
:100910000105F3DC2046AFF300802078000602D505
:100920000220BDE8F0870120FBE770472DE9FF4F6B
:100930000C461E464FF0FF378BB0D2E90001DDF8C0
:1009400060800A908A46C1F30A5505B93D460021E8
:1009500008464FF00000BAF1000F00F4400005DA3D
:1009600000EB80004FF4400101EA50004FEA90593B
:10097000B9F1010F00DDB9460A9850EA4A000ED0DD
:1009800044F61050A5F2FF3545432F14B8F1000F7F
:100990001ED07542291E1EDDC9F100021CE0B8F10F
:1009A000010F4FF0000001D0302103E0F24305E0D9
:1009B0002154401CB042FBDB304600220021215470
:1009C0000B99C1F80880C1E900200FB0BDE8F08F95
:1009D000BD1B6D1CDEE74A4600DA694206A800F03E
:1009E000F3FA06AB93E8070003AB83E80700504631
:1009F0000A9900F0EEFB8DE80700A0F500501F38C3
:100A000000900398002D0ADD42F21F014A46084477
:100A1000002303A90390684600F057FE09E0A0F503
:100A200000504A461F38002303A90390684600F08F
:100A300061FE8DE807000004000C03D04FF0FF308A
:100A4000410800E01046B8F1000F03D000220092E8
:100A500015461EE0751E05D400F022FA30326255AC
:100A60006D1EF9D5B3460122084302D000227F1C37
:100A700004E02078302801D100227F1E002A099747
:100A800084D01DE0112D07DA00F00AFA30326255E9
:100A90006D1C50EA0102F5D1084302D00098C8B19C
:100AA0000EE00021681E05E0235C625C6354225462
:100AB000401E491C8142F7DBAB46A81B401E099033
:100AC000002004F80B000B98099AC0F80880C0E9D0
:100AD000002B7AE711264FF0000857E72DE9F04F79
:100AE00088460446D21D22F0070191B0D1E90001E9
:100AF000CDE90A0103F0FCFE02460B98C00F01D0BD
:100B00002D2007E02068810701D52B2002E020215D
:100B100001EAC000032A099001D0072A05DB034639
:100B20004146204600F002FA0BE12078800601D50C
:100B3000E06900E00620B8F1650F814606D0B8F103
:100B4000660F18D0B8F1670F70D131E00020B9F10D
:100B5000110F009001DB112301E009F101030AAA42
:100B600001A90CA8FFF7E2FEDDE90C70002609F1EF
:100B70000105834647E001204B4600904FF00047B7
:100B80000AAA01A90CA8FFF7D1FEDDE90DB00C9966
:100B90005D46002610B909F101000D18B9EB0500FA
:100BA00003D4C0F1FF3609F10105A5EB09002BE0E4
:100BB000B9F1010F01DA4FF001090020B9F1110F6D
:100BC0000090484601DD112300E003460AAA01A96E
:100BD0000CA8FFF7ABFEDDE90C704D4600268346FE
:100BE000207800070AD4AB4500DA5D4601A8012D44
:100BF00004DD411911F8011C302907D04F4502DAF4
:100C000017F1040F04DA012082460FE06D1EEEE7B3
:100C1000002F02DCED1B3E4403E0781CA84200DDFF
:100C20007D1CB81B00F1010A4FF000472078000737
:100C300003D4AA4501DB4FF0FF3A0021B7F1004F82
:100C40000DF143088DF8431024D002202B23002FF0
:100C500001DA7F422D230A21021EA0F1010000DCEF
:100C60005FB197FBF1FC97FBF1F201FB1C7C17468F
:100C70000CF1300C08F801CDEEE7A8F1010003708B
:100C80002188090501D5452100E06521A0F1010871
:100C900000F8011C09980FA9A1EB0807FF1D00B17E
:100CA0000120411901EBEA70A1693844081A401E7D
:100CB000A0612078C00602D42046AFF300800998D6
:100CC00028B1D4E901219047206A401C2062207895
:100CD000C00622D52046AFF300801EE0002E04DBC4
:100CE000B34502DD01A8805D00E03020D4E9012198
:100CF0009047206A401C2062761CAAF101005FEA3E
:100D0000000A0AD100F0C8F8C0680168405CD4E964
:100D100001219047206A401C2062281EA5F1010590
:100D2000DCDC07E0D4E9012118F8010B9047206AC8
:100D3000401C2062381EA7F10107F3DC2046AFF308
:100D40000080032011B041E601694A1C0261087865
:100D5000704700B58FB0CDE90131002105910549FB
:100D60007944CDE9031011466846FFF7A7FB0FB0A1
:100D700000BD0000E5FFFFFF0A6802F8010B0A60F2
:100D8000704710B5436913B1AFF3008001E0FFF77E
:100D9000C9FB012010BD127800F124010A70002265
:100DA0004A700122EDE711684FF0FF32E9E72DE9C3
:100DB000F05F824615468B4600270AF10104B946CA
:100DC0000078302801D09DB113E014F8010B012701
:100DD000782803D0582801D045B10AE00DB1102D74
:100DE00007D1002714F8010B102502E0082500E0C8
:100DF0000A250026B0460EE005FB080005FB06F1BB
:100E000001271FFA80F801EB1046B6F5803F00D3AA
:100E1000B94614F8010B294600F0C8F80028EBDAAF
:100E2000BBF1000F05D00FB1641E00E05446CBF8B3
:100E30000040B9F1000F06D0FFF71AFD0221016052
:100E4000C81EBDE8F09F48EA0640FAE72DE9F041E8
:100E500015460E46040002D12C6804B90BA42046A6
:100E600000F034F90444207870B127463146384602
:100E700000F01CF90444207810B1002004F8010BA4
:100E800038462C60BDE8F0810027F9E7000000003B
:100E900000487047045E002000487047245E002030
:100EA00030B5B0F10A024FEA900E71F100034EEA3C
:100EB000817EB0EB0E0061EB91014FEA101E4EEA0D
:100EC000017E10EB0E0041EB11114FEA102E4EEA9D
:100ED000016E10EB0E0041EB11214FEA104E4EEA6D
:100EE000014E10EB0E0041EB1141401841F10001A1
:100EF0004FEAD00040EA41704FEAD10110EB800583
:100F00004FEA810444EA907444EB01046D1944EB08
:100F10000404521BA3414FF0000348BF0A3200D51E
:100F200030BD401C41F1000130BD00002DE9F04111
:100F30001F46044603260168072A01F4006004DB0B
:100F400008B116A505E016A503E008B115A500E057
:100F500015A521F010002060A069C01EA0610FB18E
:100F6000401EA0612046AFF300804FB1D4E90121BB
:100F700038469047206A401C2062C01C206206E070
:100F8000206AFAE7D4E9012115F8010B9047761E93
:100F9000F8D22046AFF30080BDE8F0814E414E000C
:100FA0006E616E00494E4600696E66003A2800D2B6
:100FB000303820F02002412A01D3A2F137008842C4
:100FC00001D34FF0FF3070472DE9F04781461646B8
:100FD0008AB0354878440DC88DE80D003248784411
:100FE000801C03AC0DC884E80D0041F69B3008441A
:100FF000372190FBF1F290FBF1F5A5F1800501FBA3
:1010000012041B3C02D56442012000E00020DFF8FE
:1010100098A080460027FA44AAF1BE0A0EE0E00735
:101020000AD03246684607EB470101230AEB8101EB
:1010300000F060FB8DE8070064107F1C002CEED1EF
:10104000194F7F44AE3F19E0E80715D007EB0410B5
:101050000DF1180A90E80E008AE80E00C068F04210
:1010600001D1981908903246012306A903A800F07F
:1010700041FB03AB83E807006D10641C002DE3D136
:101080004FF0010332466946B8F1000F03A802D0C1
:1010900000F01BFB01E000F02DFBC9E90001C9F8DD
:1010A00008200AB0BDE8F0871059000030B50346AB
:1010B0001D781DB10A4603E0AC4201D1181A30BDBB
:1010C00012F8014B002CF7D15B1CF1E730B5034659
:1010D0001D783DB10A4612F8014B1CB1AC42FAD161
:1010E0005B1CF5E7181A30BD7546FFF7D1FEAE461A
:1010F00005006946534620F00700854618B020B524
:10110000FFF718F9BDE820404FF000064FF0000748
:101110004FF000084FF0000B21F00701AC46ACE89F
:10112000C009ACE8C009ACE8C009ACE8C0098D460C
:10113000704710B50446AFF300802046BDE810406C
:10114000FFF784B84FF0013C50F8042B51F8043BF2
:101150009A4221D1A2EB0C03934313EACC1317D18B
:1011600050F8042B51F8043B9A4215D1A2EB0C0322
:10117000934313EACC130BD150F8042B51F8043BE2
:101180009A4209D1A2EB0C03934313EACC13DBD0B0
:101190004FF00000704700BFD01A01BAB1FA81F1D8
:1011A00001F0180122FA01F0CB40C1F12001DBB2BD
:1011B000C0B2C01A2CFA01F3D11A914311EAC3113B
:1011C000E6D1704701491820ABBEFEE726000200B9
:1011D00070475FEA400C08BF91F0000F4FEA8C2384
:1011E0004FEAC12243EA51514FEA1C5018BF00F5A3
:1011F000F0404FEA300018BF41F000415FEA6C5CFC
:1012000000F02980BCF1FF3F08BF40F080407047EC
:10121000130C06BF12044FF0100C4FF0000C130E0D
:1012200004BF12020CF1080C130F04BF12010CF1E1
:10123000040C930F04BF92000CF1020CD30F04BFF7
:1012400052000CF1010C11464FF00002A0F11F00FA
:10125000A0EB0C00704711F0004F08BF704731F051
:1012600000413FF4D5AF0B0C06BF09044FF0100C42
:101270004FF0000C0B0E04BF09020CF1080C0B0F11
:1012800004BF09010CF1040C8B0F04BF89000CF1A1
:10129000020CCB0F04BF49000CF1010CCCF1200370
:1012A000A0EB0C0022FA03F302FA0CF241EA03016C
:1012B00000F10100704720F07F4C80EA030023F02A
:1012C0007F47ACEB070303F57C5300F0004003F1CC
:1012D000FF032DE980494FEA154B09B44FEA144347
:1012E00025EA0B4E24EA03480FF2042606EB1327E7
:1012F00049083E785FEA320203FB0667C7F500073C
:1013000007FB06F64FEA54374FEAD64606F10206C7
:1013100007FB066CCCF1005C4FEA1C472CEA074C3B
:1013200007FB06F40CFB06F504EB15464FEA961690
:1013300034BF00204FF000404FEAD13706FB07FCD6
:101340004FEA1C4C0CFB0BF7D21B03FB0CF761EBB9
:1013500007010CFB0EF7B0EB074072EB17420CFBDA
:1013600008F734BFA2EB0742B2EB074261EB17412B
:101370004FEA0C444FEA910706FB07FC4FEA1C4C6E
:101380000CFB0BF7B0EBC74072EB573203FB0CF7CB
:1013900034BFA2EBC742B2EBC74261EB57310CFB43
:1013A0000EF7B0EBC70072EB57720CFB08F734BFB7
:1013B000A2EBC702B2EBC70261EB5771039F4FEA82
:1013C000816141EA921104EBCC044FEAD1374FEA34
:1013D000826206FB07FC42EA90124FEA80604FEA05
:1013E0001C4C0CFB0BF7D21B03FB0CF761EB07014A
:1013F0000CFB0EF7B0EB074072EB17420CFB08F743
:1014000034BFA2EB0742B2EB074261EB17414FEA50
:101410008C554FEA910704EB9C2406FB07FC4FEA2E
:101420001C4C0CFB0BF7B0EBC74072EB573203FBC5
:101430000CF734BFA2EBC742B2EBC74261EB5731A6
:101440000CFB0EF7B0EBC70072EB57720CFB08F702
:1014500034BFA2EBC702B2EBC70261EB577115EBC9
:101460004C254FEA816141EA92114FEA82624FEACC
:10147000D13742EA901206FB07FC44F100044FEA20
:1014800080604FEA1C4C0CFB0BF7D21B03FB0CF7E4
:1014900061EB07010CFB0EF7B0EB074072EB174254
:1014A0000CFB08F734BFA2EB0742B2EB074261EB3B
:1014B000174115EB1C154FEA813141EA92414FEA81
:1014C000823242EA90424FEA80304FEA0C7644F191
:1014D000000448EA03434EEA0B484FF0000EB2EB1B
:1014E000080C71EB030724BF624639464EEB0E0E23
:1014F0004FF0000B0018524149414BEB0B0BB2EB84
:10150000080C71EB03077BF1000B24BF62463946E0
:101510004EEB0E0E4FF0000B0018524149414BEBC1
:101520000B0BB2EB080C71EB03077BF1000B24BF34
:10153000624639464EEB0E0E51EA020718BF46F0DE
:10154000010616EB0E7655F1000254F1000103D5A9
:10155000BDE88901BDE80088BDE88901BDE8004813
:10156000B619524141EB0101A3F10103704780809C
:101570007F7E7D7C7B7A79787776767574737271ED
:1015800071706F6E6E6D6C6C6B6A6A6968686766A5
:1015900066656464636362616160605F5F5E5E5D37
:1015A0005D5C5C5B5B5A5A595958585757565655AB
:1015B00055555454535352525251515050504F4F0D
:1015C0004F4E4E4D4D4D4C4C4C4B4B4B4A4A4A495D
:1015D00049494848484747474746464645454544A0
:1015E0004444444343434342424242414141002B2D
:1015F0009C4630D477002BD01CB54FEA370703B494
:101600004FF010004FF01001BAF1000F06D0BCF1FE
:10161000000FDCBF40F0080040F008014FF0000070
:101620000FBCBDE810400BF1010BBBF1010F08BF6F
:101630005FEA170722BF12F1010211F101014FF019
:10164000004143F1000300F0004043EA000070470E
:10165000F9D35708D0E746EA064613F1400F4FEAA0
:1016600016461FDD13F1200FDFBF16430A46002187
:1016700020335B42BED0C3F1200746EA064602FA99
:1016800007F74FEA164646EA0706C3F1200722FA93
:1016900003F201FA07F721FA03F14FF0000342EADF
:1016A0000702A7E746EA020646EA06464FEA16465A
:1016B00046EA0106BCBF46EA0646360C4FF0000378
:1016C0004FF000024FF0000194E72DE9804C9A465C
:1016D000934670B491E8380007C831EA400C48BF1F
:1016E00034EA430C03D5FFF7E6FDFFF780FFF0BCBB
:1016F000BDE8008C2DE9804C9A46934670B491E881
:10170000380007C810F0804F08BF13F0804F03D196
:1017100000F005F8FFF76BFFF0BCBDE8008C20F08F
:101720007F4780EA030023F07F4C07EB0C03A3F50F
:101730007C5300F00040A3F1FE0392F0000F00F094
:10174000B38095F0000F00F077802DE901494FEA52
:1017500011404FEA144621EA004800FB06FC24EA47
:10176000064708FB06F607FB08F800FB07F718EB2F
:1017700006484CEB164C4FEA124B18EB07484FEA61
:1017800015464CEB174022EA0B4E0BFB06FC25EAF4
:1017900006470EFB06F607FB0EFE0BFB07F71EEBDC
:1017A000064E4CEB164C4FF000061EEB074E4CEB72
:1017B000174B18EB0B0840F1000018EB0E0B58EB21
:1017C000000840F100008F1A4FF000013CBFC943F0
:1017D000661B14BFB5EB040C00213CBFC943F61BCC
:1017E0004FEA17444EEA8E0E27EA04454FEA1C479B
:1017F00004FB07622CEA074C05FB07F70CFB05F618
:1018000004FB0CFC16EB074642EB174216EB0C46AA
:1018100042EB1C421BEB060658EB0202414146EA32
:101820009E0601D5BDE80189B619524141EB01017F
:10183000A3F10103BDE801894FEA14454FEA1147BE
:1018400024EA054621EA074C05FB07F406FB07F7E7
:101850000CFB06F105FB0CFC11EB074144EB1744B4
:101860004FEA124711EB0C4144EB1C4422EA074CAF
:1018700005FB07F206FB07F70CFB06F605FB0CFC65
:1018800016EB074642EB174216EB0C4642EB1C45A3
:101890006A1854F1000148BF7047B619524141EB34
:1018A0000101A3F10103704795F0000F37D04FEA13
:1018B00011424FEA144721EA024624EA074C02FB90
:1018C00007F106FB07F70CFB06F402FB0CFC14EB1C
:1018D000074441EB17414FEA154714EB0C4441EB29
:1018E0001C4125EA074C02FB07F506FB07F70CFB3A
:1018F00006F602FB0CFC16EB074645EB174516EB0C
:101900000C4645EB1C42121951F1000148BF7047CB
:10191000B619524141EB0101A3F1010370474FEAAF
:1019200014454FEA114724EA054621EA074C05FB16
:1019300007F106FB07F70CFB06F24FF0000605FB6C
:101940000CFC12EB074241EB174112EB0C4251EB3E
:101950001C4148BF7047921841EB0101A3F10103FC
:1019600070470000014800F036BC0000C815002098
:10197000464910B54A6822F440324A604A684368D2
:101980001A434A6001684A6822F480724A6001681A
:101990004A68036942EA03224A6001684A6822F001
:1019A00040724A6001684A6883681A434A60016865
:1019B0008A6822F400628A6001688A68C3681A43F0
:1019C0008A60816A6FF07062D14201688A6822F091
:1019D00070628A6001688A680CD0836A1A438A60E0
:1019E00001688A6822F040528A6001688A68C36A86
:1019F0001A4301E022F040528A6001688A6822F0AE
:101A000002028A6001688A68037E42EA43028A60B1
:101A100090F82010002901684A680FD042F4006253
:101A20004A6001684A6822F460424A6001684A6874
:101A3000174C436A04EB43331A4301E022F400627B
:101A40004A600168CA6A22F47002CA620168CA6AFE
:101A5000838B104C04EB03531A43CA6201688A68F3
:101A600022F400728A6001688A6890F8303042EA95
:101A700043228A6001688A6822F480628A60016871
:101A80008A68406942EA8020886010BD00230140D6
:101A900000E0FFFF0000F0FFFEE77FB50C46417855
:101AA0008DF8041080788DF80500002503AA022126
:101AB00001A802F06DFF0122694603A802F084FF2D
:101AC0009DF800000B3C04EBD471B0EB610F00D12A
:101AD000012504B0284670BD30B5012403460D46EB
:101AE000224609E0985C00F057F9985C00F054F940
:101AF0000F2800D90024521CAA42F3D3204630BD3F
:101B0000014600200B39212900D20120704770B511
:101B10000D460646002400F005F998B12846FFF767
:101B2000EFFF88B129463046FFF7D6FF70B129464E
:101B3000304600F0FEF858B129463046FFF7ADFFB9
:101B400040B108E0012406E0052404E0022402E09C
:101B5000032400E00424204670BD000010B59AB0B4
:101B60004FF47A740F283ED2DFE800F0080A0C0E1A
:101B70001012181A1C1E2A2C3F4143001FA039E0E6
:101B80001FA037E021A035E022A033E024A031E0FF
:101B900001A802F02AFF25A22AA118E02DA029E021
:101BA0002FA027E032A025E001A802F01EFF35A0FB
:101BB000009037A338A23CA101A8FEF76BFC09E016
:101BC00042A017E001A802F010FF18A244A101A84A
:101BD000FEF760FC01A8FEF77FFD82B2234601A953
:101BE000454801F017FF1AB010BD44A002E045A01F
:101BF00000E048A002F0F2F8F5E7000041540000D0
:101C000041542B4350494E3F0000000041542B43A8
:101C10005351000041542B43475245473F000000B9
:101C200041542B434F50533F000000005265636501
:101C30006976655F46726F6D5F4137363830432E87
:101C40006865780041542B465344454C3D2225732A
:101C5000220D0A0041542B46534D454D0000000013
:101C600041542B43465450535354415254000000A6
:101C700041542B434654505353494E474C454950C9
:101C80003D3100006D7431313231393900000000CE
:101C900075736572000000003137312E3233342EF7
:101CA0003233322E3434000041542B4346545053C7
:101CB0004C4F47494E3D222573222C32312C222590
:101CC00073222C222573222C300D0A0041542B4301
:101CD000465450534C4953543D222F2200000000DB
:101CE00041542B434654505347455446494C453D77
:101CF000222573220D0A00005401002041542B4676
:101D0000534C530041542B43465450534C4F474F70
:101D10005554000041542B434654505353544F5094
:101D2000000000000146002009783A2900D1012076
:101D300070472DE9F843002781460D463E460124B1
:101D4000B84616E0601CA84211D2CDF8008019F800
:101D500004008DF8000009EB0400102240788DF893
:101D6000010000216846FEF743FC3044C6B2A41CC3
:101D7000E4B2AC42E6D306B901273846BDE8F883A1
:101D800000200449FF224FF480630A54401C98420B
:101D9000FBDB7047C5010020A0F13001092901D803
:101DA000C8B27047A0F14101052901D8373800E0D9
:101DB0005738C0B27047000010B500EB800004F047
:101DC00063FA9FED051B53EC112B04F005F904F0A9
:101DD00029F800EE100A10BD0000000000F88F4046
:101DE00070B52DED048B04F04FFA0D4645EC180B41
:101DF0009FED140B044653EC102B51EC180B04F020
:101E000057FA45EC184B9FED110B41EC190B53ECB5
:101E1000102B51EC180B04F04BFA53EC182B04F078
:101E200047FA53EC192B04F02FF89FED0A1B53ECE3
:101E3000112B04F03BFB03F0F5FFBDEC048B00EE2F
:101E4000100A70BDCDCCCCCC4C6EB6409A99999905
:101E5000998191C066666666E600B140704772B6C9
:101E6000FEE70000002229B101291AD002291BD067
:101E70004FF440720E490B6823F440730B600B68FB
:101E800013430B600A6822F0F8020A600A68022312
:101E900003EBC00002430A60086840F48030086029
:101EA00070474FF48072E5E74FF40072E2E70000FC
:101EB000103C02401348016889050FD5016821F4E0
:101EC00000710160016841F400610160016821F462
:101ED00000610160016841F4007101600168490519
:101EE0000FD5016821F480610160016841F48051DF
:101EF0000160016821F480510160016841F4806152
:101F000001607047003C024008490A6822F44072B0
:101F10000A600A6842F004020A600A684FF48033DB
:101F200043EA002002430A6070470000103C024070
:101F3000064A136823F44073136013681360136830
:101F400043F001031360017070470000103C024031
:101F5000094910B50C6824F440740C600C6844F412
:101F600040740C600C6844F001040C600260BFF324
:101F70006F8F436010BD0000103C0240074A136899
:101F800023F440731360136843F480731360136881
:101F900043F001031360018070470000103C0240D1
:101FA000074A136823F440731360136843F4007303
:101FB0001360136843F00103136001607047000071
:101FC000103C024017490868C206174805D5C26987
:101FD00042F01002C26110220A600A68920605D51A
:101FE000C26942F00802C26120220A600A685206F1
:101FF00005D5C26942F00402C26140220A600A6843
:10200000120605D5C26942F00202C26180220A604E
:102010000A68920705D5C26942F02002C261022017
:10202000086070470C3C0240F420002070B5114954
:1020300004460020C86100F0B9FC06460E4D09E0D8
:10204000601C07D024B100F0B1FC801BA04201D974
:10205000032070BD2868C003F2D42868C00701D0EF
:1020600001202860286810F0F200F2D0FFF7AAFFE4
:10207000012070BDF42000200C3C0240704700009D
:1020800078B50024009490F83C20012A19D0012250
:1020900080F83C200A6807230568092A13D9EE68EE
:1020A0000A3A02EB420293409E43EE600B788A6844
:1020B0000A3B03EB43039A400368DD682A43DA6076
:1020C00010E0022078BD2E6902EB420293409E434D
:1020D0002E610B788A6803EB43039A4003681D69FD
:1020E0002A431A614A681F23072A13D205686E6BB8
:1020F000521E02EB820293409E436E630B790A8864
:102100005B1E92B203EB83039A4003685D6B2A4324
:102110005A6327E005680D2A12D22E6BD21F02EBFC
:10212000820293409E432E630B790A88DB1F92B292
:1021300003EB83039A4003681D6B2A431A6311E083
:10214000EE6A0D3A02EB820293409E43EE620B79F7
:102150000A880D3B92B203EB83039A400368DD6A61
:102160002A43DA62164B0568144A9D4206D10D686F
:10217000122D03D1556845F48005556005689D42D0
:1021800018D10B68102B01D0112B13D1536843F4D5
:1021900000035360096810290CD10A490A4A0968EA
:1021A000B1FBF2F101EB8101490000E0491E009111
:1021B0000029FBD180F83C40002078BD002301407D
:1021C000002001405C00002040420F007047704733
:1021D0000068C06C704770B50446006806684568C2
:1021E00016F0020F05F020012AD049B3216CC90670
:1021F00003D4216C41F400712164816811F0405FC7
:1022000017D1217EA9B9C16A11F4700F02D081687B
:1022100049050ED4416821F020014160206C20F472
:1022200080702064206CC00403D4206C40F0010056
:1022300020642046FFF7CAFF21686FF01200086093
:1022400016F0040F05F0800132D089B3206CC0066F
:1022500003D4206C40F4005020642068816811F49D
:10226000401F1ED1816B11F4401F02D081684905C7
:1022700017D44168490514D4816811F0405F10D12A
:10228000217E71B9416821F080014160206C20F409
:1022900080502064206CC00503D4206C40F0010005
:1022A00020642046FFF7EAFE21686FF00C0008600A
:1022B00016F0010F05F040010FD071B120680068E1
:1022C000C0070AD0206C40F480302064204600F023
:1022D00043F821686FF00100086016F0200F05F048
:1022E00080610ED000290CD0606C40F00200606468
:1022F00020686FF0200505602046FFF768FF206822
:10230000056070BD70B504004FF0000503D0206C6F
:10231000002610B107E0012070BD204600F01EF835
:10232000666484F83C60206CC00610D4206C20F4F5
:10233000885040F0020020642046FFF719FB6664D5
:10234000206C20F0020040F00100206400E0012534
:1023500084F83C60284670BD7047000010B586B018
:10236000044614216846FEF74DFA15492068884254
:1023700024D114480021026842F48072026000688F
:1023800000F4807005900F481438026842F0010292
:102390000260006800F00100059004200090032016
:1023A000CDE901016946084800F008FA002205213C
:1023B000122000F099FB122000F088FB06B010BD3F
:1023C0000020014044380240000002402DE9F04165
:1023D000044600680D4681684FF0000749050BD59B
:1023E0008068C00508D5206C40F02000206484F887
:1023F0003C700120BDE8F08100F0D8FA064613E0F9
:10240000681C11D025B100F0D1FA801BA8420BD96D
:1024100020680068800707D4206C40F00400206426
:1024200084F83C700320E5E7206800688007E7D562
:1024300021686FF012000860206C40F40070206486
:102440002068816811F0405F13D1217E89B9C16A8B
:1024500011F4700F02D0806840050AD4206C20F47B
:1024600080702064206CC00403D4206C40F0010014
:1024700020640020BEE7000018B50021009190F80C
:102480003C20012A07D0012280F83C200268936892
:10249000DB0702D011E0022018BD936843F001036E
:1024A00093602E4A2E4B1268B2FBF3F202EB42020B
:1024B00000E0521E0092002AFBD102689368DB07FD
:1024C00042D0036C40F20164A34343F4807303647D
:1024D00053685B0505D5036C23F4005343F4805324
:1024E0000364036CDB0404D5436C23F006034364EC
:1024F00000E0416480F83C101A496FF02203136039
:1025000049680068CA06184906D0884224D1816803
:1025100011F0405F13D01FE08842F8D0134A904278
:1025200003D1D1F80423D206F1D0114A904213D13D
:10253000D1F8041301F01F011029E8D30CE08168E1
:1025400041F08041816007E0016C41F010010164BD
:10255000416C41F001014164002018BD5C00002085
:1025600040420F00002301400020014000210140B3
:102570000022014090F83C1001290CD0012180F884
:102580003C1001688A6822F001028A60016889684B
:10259000C90702D007E002207047016C21F488517E
:1025A00041F001010164002180F83C1008467047A9
:1025B0002DE9F0410446876D00F0F8F9064694F8DD
:1025C00035000025022806D08020606584F834504C
:1025D0000120BDE8F0812068016821F0160101604A
:1025E0002068416921F080014161206C08B9A06C2C
:1025F00020B12068016821F00801016020680168AD
:1026000021F0010101600CE000F0D0F9801B0528E9
:1026100007D920206065032084F8350084F8345001
:10262000D7E720680068C007EED194F85C103F201F
:102630008840B860012084F8350084F834500020C8
:10264000C7E790F83510022903D0802141650120A9
:102650007047052180F835100068016821F00101FC
:1026600001600020704700002DE9F0470446224831
:102670000F46017E01290AD00121804601764CF2E5
:1026800050394846FFF7D2FC020003D02FE0022069
:10269000BDE8F0874FF0FF3038602068174D012803
:1026A00001D0A6681CE0207C6168FFF72DFC48463D
:1026B000FFF7BCFC0246286820F00400286014E004
:1026C000217C3046FFF7CEFB4846FFF7AFFC020007
:1026D000286820F0FA00286001D03E6005E0761CF2
:1026E000D4E902100844B042EAD8FFF7E3FB002126
:1026F00088F818101046CBE7F4200020103C024068
:102700000348016841F0004101600020704700006B
:10271000103C02402DE9F0471B4E05461446307E22
:102720001F468946012808D0012030764CF25038E7
:102730004046FFF77BFC18B114E00220BDE8F087AB
:102740009DB1012D16D0022D19D022463B46484698
:10275000FFF7FEFB4046FFF769FC0C490A6822F0D0
:1027600001020A6000213176E8E7E1B24846FFF74E
:10277000DFFBEFE7A1B24846FFF700FCEAE721469E
:102780004846FFF70DFCE5E7F4200020103C02402E
:10279000074900200A68002A09DA054A054B0C3A65
:1027A0001360054B13600968002900DA01207047A7
:1027B000103C024023016745AB89EFCD2DE9F84F6E
:1027C000DFF8BCA10022012503264FF00F090AF112
:1027D000040BAAF1040E00BF0B6805FA02F42340B3
:1027E000A34270D10F7907F00307012F01D0022F08
:1027F00016D187684FEA420806FA08FC27EA0C0758
:10280000D1F80CC00CFA08FC4CEA070CC0F808C060
:102810004768A7430C79C4F3001494403C434460D8
:102820000C79E443A4070AD0C4684FEA420C06FAC4
:102830000CF7BC438F6807FA0CF72743C7600C7985
:1028400004F00304022C12D1D40800EB840CDCF851
:1028500020405707FF0E09FA07F824EA0804D1F8C8
:10286000108008FA07F848EA0408CCF820800468C9
:102870004FEA420C06FA0CF7BC430F7907F0030746
:1028800007FA0CF7274307604C6814F4403F70D0F8
:102890003C4C276847F480472760246822F00307F0
:1028A00004F480440094384C07EB040CDCF808482E
:1028B00097074FEA177809FA08F7BC43334FB84235
:1028C00002D1002724E054E0314FB84201D1012762
:1028D0001EE0304FB84201D1022719E02E4FB84216
:1028E00001D1032714E02D4FB84201D104270FE096
:1028F0002B4FB84201D105270AE02A4FB84201D137
:10290000062705E0284FB84201D1072700E0082735
:1029100007FA08F72743CCF80878DAF8004057465A
:10292000D1F804C09C435FEACC2C00D51C433C602A
:10293000DBF800405F46D1F804C09C435FEA8C2C72
:1029400000D51C433C60DEF800407746D1F804C057
:102950009C435FEA8C3C00D51C433C60084F083F19
:102960003C68D1F804C09C435FEACC3C00D51C43D2
:102970003C60521C102AFFF42FAFBDE8F88F000016
:10298000083C014044380240003001400000024051
:102990000004024000080240000C02400010024007
:1029A0000014024000180240001C024001488068E8
:1029B00070470000500000200248816802781144EE
:1029C00081607047500000200B4810B5016841F449
:1029D00000710160016841F480610160016841F4A7
:1029E00080710160032000F09FF80F2000F006F8CE
:1029F00000F050F8002010BD003C024030B5054604
:102A00001F4887B00024016841F00401016000689C
:102A100006A900F00400009001A800F031F9049824
:102A2000A8B100F04DF940001649174AB0FBF1F18A
:102A30001648491E026040F2E732C0E90324C0E9AB
:102A40000114846100F08EFB040003D015E000F057
:102A500037F9E9E70D4800F0CFFB04000DD11E2047
:102A600000F034F8102D07D2002229461E2000F075
:102A70003BF80748056000E0012407B0204630BD60
:102A80004038024040420F0000080040AC200020C7
:102A9000540000200C4882B0016841F4804101607C
:102AA000006800F4804000900748001F016841F072
:102AB000805101600068002200F0805000900F21DA
:102AC000901E02B000F010B844380240002809DB24
:102AD00000F01F02012191404009800000F1E02038
:102AE000C0F8001170470000F0B40E4B1B680C4694
:102AF000C3F30223C3F10705042D00D90425191DD2
:102B0000072901D2002300E0DB1E012606FA05F1A9
:102B1000491E214099409E40761E16403143F0BC2C
:102B200001F0FEBE0CED00E0064900F00702086867
:102B30004FF6FF03184040EA0220034A10430860A2
:102B4000704700000CED00E00000FA052DE9F047A9
:102B50000E46050065D0DFF81481D8F80000F7B202
:102B600000F00700B04207D288F80070D8F80000E3
:102B700000F00700B04254D128683D4C810712D5BF
:102B8000400703D5206840F4E05020602878000713
:102B900003D5206840F4604020602068A96820F0D8
:102BA000F000084320602878C0072DD030496868BD
:102BB0000839012812D0022813D0032811D009683F
:102BC000890700292DDA216821F0030101432160E2
:102BD000FFF7ECFE814641F2883A0EE0096889036E
:102BE000EFE709688901ECE7FFF7E0FEA0EB0901D8
:102BF000514502D90320BDE8F0872068696800F0DC
:102C00000C00B0EB810FEFD1D8F80010404601F076
:102C10000701B14207D90770006800F00700B04211
:102C200001D00120E7E72878400705D52068E9684A
:102C300020F4E050084320602878000706D520687B
:102C4000296920F4604040EAC100206000F058F893
:102C50002168084AC1F30311515CC8400649086065
:102C600006480068FFF7CAFE0020C4E7003C0240A7
:102C700008380240546806085C0000205400002018
:102C80000F2202600C4A136803F0030343601368C9
:102C900003F0F0038360136803F4E053C360126829
:102CA0004FF4E05303EAD20202610448006800F0E6
:102CB000070008607047000008380240003C0240EE
:102CC0000448054900680968044AC1F38221515C3F
:102CD000C84070475C00002008380240646806085D
:102CE0000448054900680968044AC1F34231515C4F
:102CF000C84070475C00002008380240646806083D
:102D0000154810B5006810F00C02144813D014498F
:102D1000042A0FD0082A0ED10F4C241F22682368E2
:102D200002F03F025B0207D52068C0F38810A0FBC9
:102D3000010106E0084610BD2168C1F38811A1FB1E
:102D400000010023FDF72FFB2168C1F30141491C5D
:102D50004900B0FBF1F010BD083802400024F40037
:102D600040787D012DE9F84F04006ED02078DFF81F
:102D70004C93C007A9F104054AD009F10400016889
:102D8000C1F38101012908D00068C0F38100022845
:102D90000AD1D9F80000400206D52868800337D54B
:102DA00060680028E1D033E06068B0F5803F10D063
:102DB000B0F5A02F286810D020F480302860286853
:102DC00020F4802028606068A8B1FFF7EFFD064678
:102DD0000DE0286840F48030F4E740F4802028605B
:102DE000F7E700BFFFF7E2FD801B642873D828686F
:102DF0008003F7D50CE0FFF7D9FD064605E000BFDC
:102E0000FFF7D4FD801B6428F0D828688003F7D42E
:102E10002078DFF8AC8280074FF0000A3ED5A74843
:102E2000001D016811F00C0F08D00068C0F381008C
:102E300002280BD1D9F80000400207D42868800787
:102E400016D5E068012800D112E033E1E068B8B19E
:102E50000120C8F80000FFF7A9FD064605E000BF05
:102E6000FFF7A4FD801B0228C0D828688007F7D58B
:102E70002868216920F0F80040EAC10028600DE0D0
:102E8000C8F800A0FFF792FD064604E0FFF78EFDAC
:102E9000801B02281FD828688007F7D420780007F5
:102EA00022D5864F87486169703771B10121016071
:102EB000FFF77CFD064604E0FFF778FD801B022843
:102EC00009D838688007F7D50EE0C0F800A0FFF7F2
:102ED0006DFD064605E082E0FFF768FD801B0228D5
:102EE0007DD838688007F7D42078400768D5DFF8A8
:102EF000CCB100270BF13C0BDBF80000C0000BD479
:102F0000DBF8001041F08051CBF80010DBF8000036
:102F1000012700F0805000906B4E3068C00510D43F
:102F2000306840F480703060FFF740FD009005E0AD
:102F3000FFF73CFD0099401A022850D83068C005C0
:102F4000F6D55E4EA0686C3601280FD00528306893
:102F500010D020F001003060306820F004003060B4
:102F6000A068B8B1FFF722FD00900FE0306840F094
:102F70000100F4E740F004003060F7E7FFF716FDCA
:102F80000099411A41F28830814266D83068800742
:102F9000F4D50EE0FFF70AFD009007E0FFF706FD0D
:102FA0000099411A41F28830814256D83068800732
:102FB000F4D42FB1DBF8001021F08051CBF80010D1
:102FC000A069C8B33D49091D0968C1F381010229FF
:102FD0004AD00228504607D0C8F8600000E03CE024
:102FE000FFF7E4FC04463BE04746C8F86000FFF703
:102FF000DDFC064605E000BFFFF7D8FC801B022879
:103000002BD828688001F7D4D4E907010843A16AC6
:103010002E4A490802EB0141626A41EA82110843E3
:1030200094F82C1040EA0161C9F8001001203866BC
:10303000FFF7BCFC044606E03EE000BFFFF7B6FC2D
:10304000001B022809D828688001F7D534E000BFAA
:10305000FFF7ACFC001B022802D90320BDE8F88F63
:1030600028688001F4D427E00128F7D0D9F80000BF
:10307000E26900F4800191421CD1226A00F03F0114
:10308000914217D147F6C071626A0140B1EB821FCD
:1030900010D1A26A4FF0FF3300F4403103EB52022B
:1030A000B1EB024F06D194F82C1000F07060B0EB39
:1030B000016F01D00120D1E70020CFE704380240A2
:1030C00000004742800E4742007000400000FFFFB2
:1030D0007047704770B590F83C20012A32D0012427
:1030E00080F83C40022280F83D2003685A689D68C1
:1030F00022F070060A6832435A60134B02689A4203
:1031000014D0B2F1804F11D0104B9A420ED0104B18
:103110009A420BD00F4B9A4208D00F4B9A4205D0DF
:103120000E4B9A4202D00E4B9A4204D1496825F0C8
:1031300080031943916080F83D40002180F83C10E5
:10314000084670BD022070BD000001400004004030
:1031500000080040000C0040000401400040014015
:103160000018004010B5040003D094F83D0010B1E1
:1031700007E0012010BD002084F83C00204600F04C
:103180001FF8022084F83D00211D206801F09EF800
:10319000012084F8460084F83E0084F83F0084F85B
:1031A000400084F8410084F8420084F8430084F829
:1031B000440084F8450084F83D00002010BD000064
:1031C00008B50068B0F1804F12D10A48016841F09B
:1031D000010101600068002200F00100009005215B
:1031E0001C20FFF781FCBDE808401C20FFF76EBCE7
:1031F00008BD00004038024090F83D10012901D080
:1032000001207047022180F83D100168CA6842F031
:103210000102CA6000681149884214D0B0F1804FA1
:1032200011D00F4988420ED00E4988420BD00E496A
:10323000884208D00D49884205D00D49884202D005
:103240000C49884204D1816801F00701062903D0A6
:10325000016841F001010160002070470000014059
:103260000004004000080040000C00400004014041
:10327000004001400018004001680A6A41F2111341
:103280001A4207D10A6A9B101A4203D10A6822F037
:1032900001020A60012180F83D100020704770B5DE
:1032A000044690F83C000025012817D0012684F838
:1032B0003C60022084F83D002068826822F077029A
:1032C00022F47F4282600868502838D00DDC202824
:1032D0004FD005DC90B3102811D14AE0022070BD18
:1032E000302846D040280AD13BE060282FD07028F3
:1032F0000DD0B0F5805F03D0B0F5005F12D001258E
:1033000084F83D60002084F83C00284670BDCB68FE
:10331000D1E90121206801F03DF82068816841F081
:10332000770109E0CB68D1E90121206801F032F88A
:103330002068816841F480418160E1E719E0CA6852
:103340004968206801F038F85021206806E0CA6812
:103350004968206801F041F86021206801F024F8F4
:10336000CEE7CA684968206801F026F84021206845
:10337000F4E7226801461046F0E7704770B504464E
:10338000006801694FF00005C943890715D4C16879
:10339000C943890711D4E91E016101202077206803
:1033A00080698007204602D0FFF7E7FF04E000F0C5
:1033B00098F8204600F096F8257720680169C943FF
:1033C000490717D4C168C943490713D46FF00401F2
:1033D0000161022020772068806910F4407F204638
:1033E00002D0FFF7CAFF04E000F07BF8204600F0AF
:1033F00079F8257720680169C943090716D4C1689F
:10340000C943090712D46FF0080101610420207735
:103410002068C0698007204602D0FFF7AEFF04E0B5
:1034200000F05FF8204600F05DF82577206801691C
:10343000C943C90617D4C168C943C90613D46FF07C
:1034400010010161082020772068C06910F4407FD6
:10345000204602D0FFF791FF04E000F042F820463A
:1034600000F040F8257720680169C943C90708D1F1
:10347000C168C943C90704D1891E0161204600F013
:1034800033F820680169C943090609D4C168C943F2
:10349000090605D46FF0800101612046FFF718FE90
:1034A00020680169C943490609D4C168C94349066E
:1034B00005D46FF040010161204600F037F8206824
:1034C0000169C94389060BD4C168C943890607D479
:1034D0006FF0200101612046BDE87040FFF7F9BDA3
:1034E00070BD70477047000010B500680A498842F7
:1034F00003D1BDE81040FFF75FBAB0F1804F0AD1A9
:103500000648FFF7B9FE064900208880BDE8104054
:1035100004A001F077BA10BD00080040101600208A
:10352000140000206572726F720D0A0070477047B8
:1035300070470000F8B5016804460868CA684B691E
:1035400010F00F0F4FF0000559D003F0010602F400
:103550009077374365D0C10705D0D10503D5216CDD
:1035600041F001012164410705D5D90703D0216C41
:1035700041F002012164810705D5D90703D0216CF0
:1035800041F004012164010707D502F02001314315
:1035900003D0216C41F008012164216C00293AD04C
:1035A000800604D5900602D5204600F0D2FF2068A0
:1035B0004069216CC0F38010090700D460B3204635
:1035C00000F0A0FF20684069400621D52068143033
:1035D00050E8001F21F0400140E80012002AF5D118
:1035E000A06BA8B16C490165A06BFFF72AF8002811
:1035F00011D0A06B016D01B0BDE8F0400847830613
:103600000FD593060DD52046BDE8F84000F0A1BFC8
:103610002046FFF78DFFF8BD2046FFF789FF2564A0
:10362000F8BD266B2023012E79D1C60677D5D606A4
:1036300075D50868486800904869400640D5A16B78
:10364000086840680004000CEAD0A28D8242E7D9E5
:10365000E085C869B0F5807F2DD020680C3050E837
:10366000001F21F4807140E80012002AF5D1206883
:10367000143050E8001F21F0010140E80012002A38
:10368000F5D12068143050E8001F21F0400140E8D7
:103690000012002AF5D184F83E30256320680C30F2
:1036A00050E8001F21F0100140E80012002AF5D177
:1036B000A06BFEF77DFFA08DE18D401A81B229E05D
:1036C000A08DE18D401A81B2E08D0028A8D000299C
:1036D000A6D020680C3050E8002F22F4907240E809
:1036E0000026002EF5D12068143050E8002F22F07B
:1036F000010240E80026002EF5D184F83E30256313
:1037000020680C3050E8002F22F0100240E800231F
:10371000002BF5D12046FFF70AFFF8BDFFE70506AD
:103720002BD5150629D594F83D002128F5D1A068A0
:10373000B0F5805F01D12069B0B1206A411C2162DF
:10374000216800784860E08C401E0004000CE08492
:10375000E3D12068C16821F08001C1602068C168A0
:1037600041F04001C160D8E7206A0088C0F308003A
:103770004860206A801C2062E5E74006CDD55006EF
:10378000CBD5CA68204622F04002CA6084F83D309A
:1037900000F099F9C1E70000F544060870B504008F
:1037A00004D094F83D00002510B106E0012070BD62
:1037B00084F83C50204600F023F8242084F83D0093
:1037C0002068C16821F40051C160204600F022FF4A
:1037D0002068016921F4904101612068416921F06C
:1037E0002A0141612068C16841F40051C16025642B
:1037F000202084F83D0084F83E00002070BD0000C9
:10380000F0B587B0044614216846FCF7FBFF404939
:10381000DFF8F8E0D4F800C000223D4B1439C02690
:103820000224032507273B48F44520D1D3F800C0E4
:103830004CF0100CC3F800C01B6803F01003059394
:103840000B6843F002030B600968009601F0020167
:10385000CDE904710395CDE901426946FEF7AEFF5B
:1038600000220A212520FFF73FF9252025E0DFF877
:10387000A8E0F44525D1264B1B1F1E6846F4802680
:103880001E601B6803F4802305930B6843F002035A
:103890000B60096802AB01F0020105914FF4406131
:1038A000CDE9001483E8A4006946FEF787FF0022F3
:1038B00009212720FFF718F92720FFF707F907B09C
:1038C000F0BD16488445FAD1186840F02000186011
:1038D000186800F020000590086840F004000860B7
:1038E0000868009600F0040005900820CDE9035018
:1038F000CDE9014269460A48FEF760FF0022052132
:103900004720FFF7F1F84720D7E7000000100140FB
:1039100044380240000402400048004000140140C6
:103920000008024090F83E30202B0ED159B152B120
:1039300090F83C30012B08D0012380F83C30002364
:10394000036300F0EDBE01207047022070470000C5
:1039500070B5006823490125234C884229D12046AF
:103960006188027821484318491C61801A700A2A2C
:1039700018D1618801780026462912D141784F2953
:103980000FD1817854290CD1C078412809D16069C0
:1039900038B917A001F032F92662C4E9035601F0E4
:1039A000C5FC6680BDE8704001220F491548FFF74D
:1039B000B9BF1549884214D10B4EA088761C3178C6
:1039C000124A0244401CA080117001223146104866
:1039D000FFF7A8FF2069002803D130784F2800D1D5
:1039E000A56070BD0014014014000020581A00208A
:1039F000456E74657220464F5441206D6F64650DAD
:103A00000A00000010010020004800405816002065
:103A1000540100202DE9F843044690F83D001F466C
:103A200016460D4620284CD1C5B1BEB194F83C00D5
:103A3000012846D0012084F83C004FF00008C4F86B
:103A40004080212084F83D00FEF7B0FFA684814627
:103A5000E684A068B0F5805F03D004E00120BDE8F3
:103A6000F883206928B12E465FF0000584F83C8079
:103A70000EE00026FAE78021204600F06EFEA0B995
:103A8000AEB116F8010B21684860E08C401EE0845E
:103A9000E08C4B464FF0000200970028EBD14FF02E
:103AA0004001204600F059FE30B10320D7E735F839
:103AB000020BC0F30800E6E7202084F83D00002058
:103AC000CDE70220CBE7704707A001F097F8BFF3DE
:103AD0004F8F0A4801680A4A01F4E061114301600E
:103AE000BFF34F8F00BFFDE74861726420666175C8
:103AF0006C74206572726F720D0A00000CED00E0AC
:103B00000400FA057FB5002414480094019402943F
:103B100011490394C0E9001484600461047680F8BC
:103B200020400F49C0E90A140125C561C46080F82E
:103B300030404561FEF7E6FB08B172B6FEE70220B1
:103B4000CDE90005694602940448FEF799FA002879
:103B500001D072B6FEE77FBD00200140C8150020ED
:103B60000100000F114808B5016841F080010160B3
:103B7000016801F080010091016841F001010160DC
:103B8000016801F001010091016841F0020101604A
:103B9000016801F002010091016841F00401016037
:103BA000006800F00400009008BD000030380240BA
:103BB00010B586B000241748009401940294039431
:103BC00004944FF080410594016040F23F61C0E9E8
:103BD000011442F20F71C0E903148461FFF7C2FAC5
:103BE00008B172B6FEE74FF480500090694609486C
:103BF000FFF755FB08B172B6FEE7049404A9054827
:103C00000594FFF767FA002801D072B6FEE706B008
:103C100010BD0000101600200C4810B50A490160C4
:103C20004FF4E1314160002181600C22C160C0E9A4
:103C300004128161C161FFF7B1FD002803D0BDE826
:103C40001040FEF70CB910BD00100140CC00002060
:103C50000C4810B50A4901604FF4E1314160002180
:103C600081600C22C160C0E904128161C161FFF76B
:103C700095FD002803D0BDE81040FEF7F0B810BD58
:103C800000480040540100200C4810B50A4901606A
:103C90004FF4E1314160002181600C22C160C0E934
:103CA00004128161C161FFF779FD002803D0BDE8EE
:103CB0001040FEF7D4B810BD0014014010010020E0
:103CC000FEE7FEE770B598B004460125142218A15E
:103CD0000DA8FCF765FD0DA92046FCF7C7FC58B1FF
:103CE000142213A112A8FCF75BFD12A92046FCF7D1
:103CF000BDFC064613A10FE0032018B070BD684656
:103D000000F073FE21466846FCF7C2FC684600F0EE
:103D10009DFF050004D10BA1FCF7A2FC0400EED12D
:103D20003046FCF719FB2046FCF716FB2846E4E773
:103D30002B43465452414E54583A20444154412C4E
:103D4000000000000A00000010B50848FEF794FBD0
:103D50004FF0FF310548FEF739FB0448FEF738FA0B
:103D600004460248FEF706FC204610BDC815002098
:103D700010B592B00446684600F037FE234608A20C
:103D80000DA16846FCF786FB6846FCF7A5FC82B2ED
:103D90004FF47A7369461048FFF73CFE12B010BD2D
:103DA000526563656976655F46726F6D5F41373650
:103DB0003830432E6865780041542B4346545241B5
:103DC0004E54583D22433A2F2573222C25642C351E
:103DD00031320D0A000000005401002070B5044685
:103DE000FCF77AFC82B24FF47A752B4621460548DF
:103DF000FFF710FE2B46BDE87040022202A10148E9
:103E0000FFF708BE540100200D0A00000EB5012680
:103E1000894C4FF47A7700254FF4FA78206900280E
:103E200045D1E068012806D1606920B9A069FDF795
:103E300095FEE5616661384600F0A2FE60690128E2
:103E400018D1E069401CE061E0690A2812D165617F
:103E5000A561E560E56179A000F0D0FE2661206AE9
:103E600040B979A0FFF7BAFF384600F089FE7AA082
:103E7000FFF7B4FFA0680128D2D17BA000680290B0
:103E80007AA0D0E90010CDE9001002A97948FCF72A
:103E9000EDFB28B969467748FCF7E8FB002806D017
:103EA000744800F0ABFE206A10B1012871D0BEE06A
:103EB000A169704800F0B0FE01286E4816D000F0ED
:103EC00094FDA580A56065616BA000F097FEE5609C
:103ED000A5615DA02661FFF781FF384600F050FE26
:103EE0005DA0FFF77BFF01F0C3F9A0E000F07DFDCE
:103EF000A580A5606561A069401CA061A069052836
:103F000005D0A0690A2802D0A0690B2806D15CA0C0
:103F100000F074FE41F2883000F032FEA0690F28F4
:103F2000C5D15CA000F06AFEFEF732FCFEF7E8FBAC
:103F30006648007835280CD0372816D064A0266152
:103F400000F05CFE01F094F9FEF722FCFEF7D8FBCE
:103F50006DE0072000F066FD62A000F04FFE2662D3
:103F6000A5614FF4C070E5600CE0052000F05AFD3B
:103F7000062000F057FD5BA000F040FE2662A56120
:103F80008020E56001F0D4F9606AFFF7F1FEDBE71D
:103F9000FFE73848FFF796FE8146364800F025FDDA
:103FA000A5806661A560B9F1010F09D0B9F1020FD2
:103FB00010D0B9F1000F25D0B9F1030F2ED036E0A3
:103FC0004EA000F01BFE25622661656201F050F9EB
:103FD00065612CE052A000F011FE25626562C4E923
:103FE000046500F0ADFC01F08DF9BFF34F8F594827
:103FF0000168594A01F4E06111430160BFF34F8F3A
:1040000000BFFDE7606A00F500706062404600F0A6
:10401000B7FD606AFFF7ACFEE56108E0404600F0DE
:10402000AFFD4EA000F0EAFD606AFFF7A1FE0A2096
:1040300000F0A6FDF2E600001400002054696D6552
:10404000206F75740D0A000041542B4346545053A1
:104050004C4F474F5554000041542B434654505346
:1040600053544F50000000004F4B00004552524F38
:1040700052000000581600204572726F720D0A003F
:1040800057616974696E6720726573706F6E642E14
:104090000D0A0000436F6D706C65746520646F7766
:1040A0006E6C6F6164206669726D776172652E2037
:1040B00053746172742077726974696E6720746FCB
:1040C00020666C6173682E0D0A00000000800008F5
:1040D0004572726F7220657261736520666C6173E0
:1040E000680000004572617365206F6C6420666C27
:1040F00061736820646F6E650D0A00004572726F0F
:104100007220647572696E672077726974652064C5
:1041100061746120746F20666C6173682E0D0A00F3
:10412000436F6D706C657465207772697465207477
:104130006F20666C6173682E2053746172742072F4
:10414000657374617274206465766963652E0D0A07
:10415000000000000CED00E00400FA055265636504
:1041600069766520756E77616E746564207265731B
:10417000706F6E642E0D0A008EB04FF47A7541F2A6
:10418000883600BF00F068FC10EE104A684600F068
:104190002CFC204602F074FA41EC100B09A153EC00
:1041A000102B6846FCF776F96846FCF795FA82B260
:1041B0002B4669460848FFF72DFC304600F0E0FC2E
:1041C000E0E70000747572626964697479203A20CE
:1041D00025660D0A000000001001002042F2107454
:1041E00003A000F00BFD204600F0CAFCF8E7000039
:1041F0005461736B20312E310D0A000010B5502030
:1042000080F31188BFF34F8FBFF36F8F01F090FCE5
:1042100018B104494FF080500860002080F31188E5
:1042200010BD000004ED00E010B592B030216846EA
:10423000FCF7E8FA14210CA8FCF7E4FA174800246C
:10424000016841F080510160006800F080501190D9
:104250001348016841F4804101600068069400F44D
:1042600080401190022000900120039010200490C3
:104270006846FEF777FD08B172B6FEE70F20CDE97C
:104280000C040E940F9400210CA81094FEF75EFC11
:10429000002801D072B6FEE712B010BD40380240CF
:1042A000007000400248016841F4700101607047ED
:1042B00088ED00E00148FFF761B80000101600200B
:1042C0000148FFF75BB80000AC200020F0B50268A1
:1042D000254C264D264E274F274B4FF0804CA042B1
:1042E00009D0604507D0A84205D0B04203D0B842FB
:1042F00001D0984204D122F0700E4A6842EA0E02C0
:10430000A0421BD0604519D0A84217D0B04215D0AA
:10431000B84213D0984211D0184DA8420ED0184D73
:10432000A8420BD0174DA84208D0174DA84205D07F
:10433000164DA84202D0164DA84203D122F4407572
:10434000CA682A434D6922F080022A4302608A68C3
:10435000C2620A688262A04201D0984201D1096912
:10436000016301214161F0BD0000014000040040F3
:1043700000080040000C00400004014000400140E3
:10438000004401400048014000180040001C00406B
:104390000020004010B5846842EA032224F47F44E0
:1043A0000A432243826010BD826822F070020A43F1
:1043B00042F007018160704710B5036A046A24F077
:1043C00001040462846924F0F00444EA021423F036
:1043D0000A020A438461026210BD10B5036A23F029
:1043E000100303628369046A23F4704343EA0232D0
:1043F00024F0A00343EA01118261016210BD0000B4
:1044000023A28AB007CA04AB002583E8070023A1D2
:10441000284CD1E90001CDE9070122A04FF4FA6749
:104420000FC88DE80F0001264FF4FA7841F2883961
:104430002069012828D104A91F48FCF717F918B3EF
:104440001EA000F0DBFB1C4800F0CFFAA58022A0E4
:10445000FFF7C4FC384600F093FB07A91648FCF7A9
:1044600005F988B169461448FCF700F960B11EA04F
:10447000FFF7B4FC404600F083FB0F4800F0B5FAAC
:10448000A5802562C4E90365484600F079FBCFE7C3
:104490002B434D54493A2022534D2200464F54415C
:1044A000000000002B38343538323338373938398A
:1044B00000000000140000205816002043686563C7
:1044C0006B696E67206E65772072656365697665D6
:1044D0006420534D530D0A0041542B434D474C3D2E
:1044E00022414C4C2200000041542B434D47443D97
:1044F000312C310010B5806B0021C185C184FFF7DC
:1045000017F810BD01680C3151E8002F22F49072A9
:1045100041E80023002BF5D10168143151E8002F48
:1045200022F0010241E80023002BF5D1016B0129A3
:1045300009D101680C3151E8002F22F0100241E846
:104540000023002BF5D1202180F83E1000210163CB
:10455000704708B590F83E10222901D0022008BD0E
:1045600082684FF480539A4201D1016921B1816A76
:104570009A421BD04AB10AE00268816A5268C2F3CB
:1045800008020A80816A891C08E0026972B1026827
:10459000526802F07F020A70816A491C8162C18DF3
:1045A000491E0904090CC18503D019E0026852684C
:1045B000F1E70168CA6822F02002CA600168CA688F
:1045C00022F48072CA6001684A6922F001024A61DD
:1045D000202180F83E10016B012903D0FFF7B8F9C4
:1045E000002008BD0021016301680C3151E8002F53
:1045F00022F0100241E80023002BF5D101680A687F
:10460000D20602D50A6849680091818DFEF78FFFB6
:10461000E6E7000070B5044600680169E26821F42D
:104620004051114301612169A068E2690843616951
:10463000114308432168CA6849F20C639A43024354
:10464000CA6020684169A26921F440711143416147
:1046500031492068884202D03049884202D1FEF7B1
:104660003FFB01E0FEF72CFBE269002319216425E2
:104670003226B2F5004F626828D0A0FB0101930FEB
:104680009200FBF790FE0146B0FBF5F06FF01802C8
:10469000504301EB800006EB0010B0FBF5F000F09A
:1046A000F002B1FBF5F002EB0012B1FBF5F06FF098
:1046B0001803584301EB800006EB0010B0FBF5F047
:1046C00000F00F0021681044886070BDA0FB01015C
:1046D00092185B41FBF767FE0146B0FBF5F0020163
:1046E000B1FBF5F06FF01803584301EB800006EBC7
:1046F000C000B0FBF5F000F0F80002EB4002B1FBA7
:10470000F5F0584301EB800006EBC000B0FBF5F07C
:1047100000F00700D6E7000000100140001401403F
:1047200081628285C28500210164222280F83E20B8
:1047300080F83C10016921B10168CA6842F48072B6
:10474000CA6001684A6942F001024A610068C168B2
:1047500041F02001C160002070472DE9F0419846EA
:1047600017460E460446069D27E0681C25D02DB14D
:10477000FEF71CF9A0EB0800A8421ED920680C30F7
:1047800050E8001F21F4D07140E80012002AF5D152
:104790002068143050E8001F21F0010140E80012A9
:1047A000002AF5D1202084F83D0084F83E00002046
:1047B00084F83C000320BDE8F0812068006836EAF8
:1047C000000004D00020B842CFD00020F3E7012041
:1047D000F9E700000148FEF7ADBE0000CC00002064
:1047E0000148FEF7A7BE0000540100200148FEF773
:1047F000A1BE000010010020FEE700002DE9F05FDF
:1048000006464FF0000BFDF782F910B10220BDE81B
:10481000F09F307A00271A4D4FF4006A30281BD1E0
:10482000DFF86080092440F2FF792888325D48452E
:1048300008F800200BD15046696800F025F898B9B7
:104840006868401C6860FDF79BFA2F8001E0401CFF
:104850002880641C292CE8DB307A31280ED15046A0
:10486000696800F011F808B10120D0E76868401CC1
:104870006860FDF785FA2F80012028615846C6E759
:1048800000000020C50100202DE9F0410646154832
:104890000C46134A4188A2F5006000F079F84FF405
:1048A000006211490E4800F08FF84FF0006000EBF5
:1048B0008425FDF76DFF0D49F320086000240A4FA1
:1048C00006E000233A5D29191846FDF723FF641C12
:1048D000B4EB560FF5D3FDF713FF0020BDE8F081D0
:1048E000C509002000000020C51100200C3C02403A
:1048F00003B401984100009850EAC12018BF042079
:104900004A0D18BF40F0010040F2FF72B2EB515F58
:1049100008BF40F00200012808BF052002B0704720
:104920000907090E002804DB00F1E02080F80014DC
:10493000704700F00F0000F1E02080F8141D704770
:1049400070B51148F324114D00784FF40046352816
:1049500011D0372817D1022000F064F8FDF718FFB6
:104960002C603522002331461846FDF7D3FEBDE802
:104970007040FDF7C5BE022000F054F8FDF708FFB7
:104980002C603722EEE770BD008000080C3C02402E
:1049900070B5C0B00C460646154698211AA8FBF71C
:1049A00031FF682207496846FBF7FAFE0023684694
:1049B00003E0F15C415CE9545B1CA342F9DB40B0CD
:1049C00070BD00007C67060830B500230AE0C418FB
:1049D000C55C647865F31F1403EBD37501EB6505C3
:1049E0009B1C2C709342F2DB30BD10B50446FBF7E4
:1049F00073FE00210A4601E06254491C8142FBDB40
:104A000010BD000010B50446FBF766FE214682B2D9
:104A1000BDE810404FF47A730148FEF7FBBF000079
:104A20001001002000B587B0002102900120039002
:104A30000591022000910490FDF7AAFE0549F3209C
:104A4000086005A96846FDF70FFEFDF759FE07B09F
:104A500000BD00000C3C024010B5FFF775F9FDF7F2
:104A6000ABF9BCEEC00ABDE8104010EE100AFDF72D
:104A7000B7B900002E499EB02C48086062B6FDF719
:104A8000A3FFFFF7D1FBFFF76DF8FFF791F8FFF7F2
:104A9000C3F8FFF7F9F8FFF7DBF8FFF733F825A0C5
:104AA00000F0ACF82AA000F0A9F801222D492E4808
:104AB000FEF738FF2B490122491C2C48FEF732FF34
:104AC00000201C901D901CA800F066F8254C1C22AC
:104AD000274960636846FBF763FE0021684600F0E3
:104AE00063F82349A0621C221C3107A8FBF758FE7B
:104AF000002107A800F058F81D49E0621C22383157
:104B00000EA8FBF74DFE00210EA800F04DF8184945
:104B100020631C22543115A8FBF742FE002115A882
:104B200000F042F8A06300F032F8FEE7000006084B
:104B300008ED00E04669726D7761726520766572F6
:104B400073696F6E20302E312E310D0A0000000087
:104B500053656E736F7220626F7820737461727424
:104B6000200D0A0014000020100100205401002034
:104B7000E467060801460020842900D0C81C70475D
:104B800010B500B9012000F0A1FC002010BD10B547
:104B900000F0E8FC002010BD41684FF0010009B1B1
:104BA00000F0D1BD00F0C4BD7FB50D46044641699B
:104BB000B0F9080081B1A16971B1FFF7DBFFD4E959
:104BC00005128DE80700D4E900102B46226900F099
:104BD00076FF039004B070BDFFF7CCFF03A9CDE9C9
:104BE0000001208A2B4682B2D4E9001000F03AFF7F
:104BF000012801D00020EDE70398EBE710B504464B
:104C0000FBF76AFD214682B2BDE8104064230148EB
:104C1000FEF700BF1001002038B500240F2911D283
:104C2000DFE801F008080808080F080808080F085E
:104C30000F08080004A1096800916946FBF716FDFA
:104C400000B10124204638BD4F4B00002DE9FE4342
:104C50000024074601782B48264625462B2902D1F9
:104C6000C16829B1C5608046C068012803D030E022
:104C70000121C160F7E738782B282AD0DFF8889027
:104C80003A2811D1D8F80810404600290CDD806878
:104C9000C1B24846FFF7B2FD08B1012404E01A484A
:104CA000FFF7A3FEC8F808504946BA5D0D2A09D09F
:104CB000D8F80830CA54D8F80820521CC8F8082080
:104CC000761CF2E799F80800312805D00CB140466F
:104CD000C5602046BDE8FE830CA2022407CA8DE809
:104CE00007000B216846FFF789FD18B10124C8F8B9
:104CF0000C50ECE70448FFF778FE4046C8F808502F
:104D0000E6E7000000000020980100203A30303033
:104D100030303030314646002DE9F041184C0F4616
:104D20000546E6682068001D00F008FB38B92068D9
:104D300090F82C1001208840216981432161681C72
:104D400007D137B12168BDE8F0410E48091D00F0D8
:104D500039BB20683544B5424560216805D2A06B57
:104D6000BDE8F041091D00F015BB606B091D00F0A6
:104D700011FBA06A854200D2A562BDE8F081000067
:104D800060000020F02100202DE9F041054600F0F0
:104D900025FB2E4CA068401CA06020682C4F10B151
:104DA000606940B32DE02560A068012829D1002664
:104DB00006EB860007EB800000F0DEFA761C072E7B
:104DC000F6D323488C3000F0D7FA2148A03000F009
:104DD000D3FA1F48B43000F0CFFA1D48C83000F0B5
:104DE000CBFA1B48DC3000F0C7FA19488C306063FE
:104DF0001430A06305E02068E96AC06A884200D8E0
:104E00002560606A401C6062E96A0120226988406E
:104E10001043206101EB810007EB8000291D00F0A9
:104E2000D1FA00F0FBFA606900280CD02068E96A2A
:104E3000C06A884207D207494FF080500860BFF32C
:104E40004F8FBFF36F8FBDE8F0810000600000203E
:104E50001421002004ED00E02DE9F041856B174698
:104E600004460026026C82B1C7B1E068FBF753FC30
:104E7000E168206C091AE1602268914202D2A168BF
:104E8000081AE060022F16D017E02068A8B9A068C1
:104E900000F0B4FE06460020A0600EE06068FBF75C
:104EA0003AFC216C606808446060A168884204D3C1
:104EB0002068606001E005B16D1E6D1CA563304681
:104EC000BDE8F08110B5044690F8510058B10128B2
:104ED0000CD002280FD0502080F31188BFF34F8FE1
:104EE000BFF36F8FFEE7206B00F0ACFA2046BDE801
:104EF000104000F0A7BA10BD10484FF4705142079F
:104F000006D0C01D0D4920F00700411AC1F57051AF
:104F10000B4A00230144C2E900030839183A21F082
:104F2000070111604B600B600B1AC0E9001393601E
:104F30004FF0004053605061704700000422002091
:104F4000B4000020144E154CA6F1C8074FF080584D
:104F5000DFF84C9012E000BF00F040FAF068C5683E
:104F6000281D00F0EBF9A068401EA0606068401E9C
:104F7000606000F053FA2846FFF7A4FF606800283D
:104F8000EAD138680128F9D9C9F80080BFF34F8FFA
:104F9000BFF36F8FF2E70000DC21002060000020EB
:104FA00004ED00E0002807D00021816001600B467D
:104FB0000A46C16000F06CBC70470346009829B1F6
:104FC0000260C0E90F31012100F01EBC0060F8E76B
:104FD0002DE9F0479A46DDE9098481466FF0030325
:104FE000206B03EB82021044089E20F0070778072D
:104FF00007D0502080F31188BFF34F8FBFF36F8F1E
:10500000FEE7002561B1002023180A5C83F83420F4
:105010000A5C12B1401C1028F6D384F8435001E01A
:1050200084F83450072E00D30626E662C4E91165E1
:10503000201D00F0ACF904F1180000F0A8F924617B
:10504000C6F107006462A061E56484F850505246DE
:105050004946384600F0F6F82060B8F1000F01D05C
:10506000C8F80040BDE8F08730B5114900E01146AE
:105070000A688242FBD34B685C18844203D14068C3
:1050800018444860084643681C18944209D1084CEB
:10509000183C2468A24209D052681A4442600A6847
:1050A00012680260814200D0086030BD0460F9E7F8
:1050B000B40000200648416B096829B1416BC968FA
:1050C000C9684968816270474FF0FF31FAE7000014
:1050D0006000002008484068401C4FF0500080F3FA
:1050E000118804D0BFF34F8FBFF36F8FFEE7BFF37C
:1050F0004F8FBFF36F8FFEE7BC0000202DE9F0411A
:10510000044600F06BF994F9455004F1240609E0D7
:10511000606A48B1304600F0BDFD08B100F004FA05
:105120006D1E6DB2002DF3DC4FF0FF3684F8456044
:1051300000F074F900F052F994F9445004F11007AA
:1051400009E0206948B1384600F0A4FD08B100F03C
:10515000EBF96D1E6DB2002DF3DC84F84460BDE800
:10516000F04100F05BB900002DE9F0410546002751
:1051700000F02EFA324E306808B9FFF7BDFE7069B4
:1051800005424ED1C5B3083568070ED005F00700BB
:10519000C0F108000544680707D0502080F311884B
:1051A000BFF34F8FBFF36F8FFEE72DB3706885425B
:1051B00037D82348183001460C6801E020460C46D9
:1051C0006168A94202D221680029F7D131688C4276
:1051D00027D007682168016060680837411B1029E3
:1051E0000FD96019420708D0502080F31188BFF30F
:1051F0004F8FBFF36F8FFEE713E041606560FFF7ED
:1052000033FF61687068401A7060B268904200D2E3
:10521000B060706901430020C4E90001F068401CDF
:10522000F06000F071FD780707D0502080F31188FE
:10523000BFF34F8FBFF36F8FFEE73846BDE8F081B5
:105240009C00002010B5031F4FF080741C601B1FD2
:1052500021F001011960191F044B0B6014390A6019
:10526000091F6FF0020244380A6010BDD5500608CD
:105270007047000030B50446B3B014A0FEF7AEFD91
:105280006846FFF7B2FB14A217A16846FBF702F9C4
:105290006846FBF721FA82B24FF47A752B466946CD
:1052A0001548FEF7B7FB6846FFF79FFB224613A1A0
:1052B0006846FBF7EFF86846FBF70EFA82B22B461A
:1052C00069460D48FEF7A6FB33B030BD41542B4371
:1052D0004D47463D310000002B38343538323338E5
:1052E000373938390000000041542B434D47533DB6
:1052F000222573220D0A00005401002025730D0A97
:105300001A00000001A0FFF7B5BF00004669726DEA
:10531000776172652075706461746564207375636C
:105320006365737366756C6C7900000070470000EC
:10533000014948607047000000000020D0E90132B8
:1053400001699A60D0E901235A604A68824201D11A
:1053500082684A60002202610868401E086008688E
:1053600070470000034B036003F154000860802085
:1053700010607047581E002000F108014FF0FF3206
:10538000C0E90112C1600161002101607047002184
:105390000161704730B50B685A1C02D000F1080259
:1053A00002E0026904E02246546825689D42FAD969
:1053B00053684B6099608A60516008610168491CBC
:1053C000016030BD42684A6093688B6093685960A1
:1053D000916008610168491C01607047502080F3AA
:1053E0001188BFF34F8FBFF36F8F0A494868401C85
:1053F000486001280CD10848006810F0FF0F07D062
:10540000502080F31188BFF34F8FBFF36F8FFEE7FB
:1054100070470000BC00002004ED00E00849486827
:1054200028B1401E486001D180F311887047502098
:1054300080F31188BFF34F8FBFF36F8FFEE700003B
:10544000BC00002070B500282AD0164DA0F1080439
:1054500060686969084207D1502080F31188BFF362
:105460004F8FBFF36F8FFEE722683AB1502080F371
:105470001188BFF34F8FBFF36F8FFEE788436060E3
:1054800000F0A6F860686968084468602046FFF785
:10549000EBFD2869401C2861BDE8704000F034BC79
:1054A00070BD00009C0000204FF0E0200021016151
:1054B000816105494FF47A720968B1FBF2F1491E26
:1054C00041610721016170475C00002010B50200B6
:1054D00014D00F48006B38B1502080F31188BFF30F
:1054E0004F8FBFF36F8FFEE700F072F80021104678
:1054F000FFF712FC00F008FC002807D105494FF027
:1055000080500860BFF34F8FBFF36F8F10BD000056
:105510006000002004ED00E002490A6A0260C968E8
:10552000416070476000002001490120C861704758
:105530006000002010B50C4650B1094909681831C7
:10554000FFF728FF2046BDE810400121FFF7E4BB2C
:10555000502080F31188BFF34F8FBFF36F8FFEE7AA
:105560006000002010B586B00024039405AA04A9A9
:1055700003A80494FFF7F6FEDDE903010094CDE9EA
:10558000011000230EA11048059A00F098FA0F4967
:105590000028C86211D0502080F31188BFF34F8FCC
:1055A000BFF36F8F4FF0FF30886201204861CC60FD
:1055B00006B0BDE8104000F041B806B010BD0000D4
:1055C00049444C4500000000454F0608600000209B
:1055D0000248016B491C0163704700006000002015
:1055E0001448016B11B10121C16170470021C161F3
:1055F0000169B1FA81F1C1F11F0101EB81020E498C
:1056000051F822306BB101EB820101F108034A68C5
:1056100052684A609A4201D152684A60D16801607A
:105620007047502080F31188BFF34F8FBFF36F8F07
:10563000FEE7000060000020142100201CB5374860
:105640000168374A914207D1502080F31188BFF397
:105650004F8FBFF36F8FFEE700683149491E8842C4
:1056600007D1502080F31188BFF34F8FBFF36F8FA6
:10567000FEE72C4908780190FF20087008788DF823
:1056800000009DF800009DF8002000F0F00090421E
:1056900007D0502080F31188BFF34F8FBFF36F8F77
:1056A000FEE79DF80000204C00F05000207007201D
:1056B000A06005E09DF8002052008DF80020401EFB
:1056C0009DF800201206F5D4A060032807D05020D2
:1056D00080F31188BFF34F8FBFF36F8FFEE74FF456
:1056E0004070A060019808700C482030016841F4B7
:1056F00070010160016841F070410160FFF7D4FE64
:1057000000206060FAF7CCFD0848016841F0404194
:105710000160FAF7B1FD00201CBD000000ED00E0C3
:1057200071C20F4100E400E0BC00002034EF00E053
:1057300010B502460021012000F012F80446FFF7E0
:1057400031FC204610BD38B50B46002200901146B2
:10575000012000F026F80446FFF724FC204638BD5F
:10576000F8B517460E46050013D005FB06F0483085
:10577000FFF7FAFC04000AD0002084F8460004F188
:1057800048023B46314628460094FFF716FC204667
:10579000F8BD502080F31188BFF34F8FBFF36F8F98
:1057A000FEE738B5049D18B153B1CAB181B120E00C
:1057B000502080F31188BFF34F8FBFF36F8FFEE748
:1057C000502080F31188BFF34F8FBFF36F8FFEE738
:1057D000502080F31188BFF34F8FBFF36F8FFEE728
:1057E00039B1502080F31188BFF34F8FBFF36F8F13
:1057F000FEE748241C46012384F846302B460094DB
:10580000FFF7DBFB204638BD70B50D46040025D000
:10581000FFF7E4FDD4E90F20216802FB0011A1602D
:105820000021A163216861600A46D4E90F01401E8E
:1058300000FB0121E16021464FF0FF3001F8440FE9
:10584000487004F110008DB1FFF796FD04F12400BB
:10585000FFF792FDFFF7E2FD012070BD502080F3BD
:105860001188BFF34F8FBFF36F8FFEE721690029C7
:10587000F0D000F00FFA0028ECD004494FF080502F
:105880000860BFF34F8FBFF36F8FE3E704ED00E0D5
:105890002DE9FF4782B01D468A464FF000080400FC
:1058A00003D0BAF1000F08D011E0502080F3118826
:1058B000BFF34F8FBFF36F8FFEE7206C38B15020DE
:1058C00080F31188BFF34F8FBFF36F8FFEE7022D78
:1058D0000AD1E06B012807D0502080F31188BFF374
:1058E0004F8FBFF36F8FFEE700F014F93F4F4FF07B
:1058F00000094FF0805648B9049838B1502080F321
:105900001188BFF34F8FBFF36F8FFEE7FFF766FD80
:10591000A06BE16B884207D3022D05D00498D0B16B
:10592000B8F1000F1AD01EE02A4651462046FFF774
:1059300093FA616A19B104F1240000F0ABF920B1C7
:105940003E60BFF34F8FBFF36F8FFFF767FD0120FE
:1059500006B0BDE8F087FFF761FD22E06846FFF77B
:10596000DBFD4FF00108FFF759FDFFF731FEFFF7B0
:1059700035FD94F94400401C01D184F8449094F919
:105980004500401C01D184F84590FFF747FD04A96C
:10599000684600F02DF830B12046FFF7AFFB00F06D
:1059A000B3F90020D4E7FFF719FDA06BE16B884243
:1059B00013D1FFF733FD04F110000499FFF7BAFD8E
:1059C0002046FFF79BFB00F09FF900289ED13E6028
:1059D000BFF34F8FBFF36F8F98E7FFF71FFD204690
:1059E000FFF78CFB00F090F990E7000004ED00E079
:1059F0002DE9F0410C46050011D0C4B1FFF7EEFCD3
:105A0000174BDA686E682068911B471C17D02F6807
:105A10001B6A9F4219D0964217D8012410E05020EB
:105A200080F31188BFF34F8FBFF36F8FFEE75020D5
:105A300080F31188BFF34F8FBFF36F8FFEE7002411
:105A4000FFF7ECFC2046BDE8F081884205D9401AFA
:105A500020602846FFF760FDF1E700202060DCE7CA
:105A6000600000202DE9FF5F8346DDE90E8799463F
:105A700016468A469000FFF777FB05001CD054209D
:105A8000FFF772FB040014D00020256384F8510056
:105A9000CDE90240CDE900874B4632465146584693
:105AA000FFF796FA2046FFF76FF9012004B0BDE832
:105AB000F09F2846FFF7C6FC4FF0FF30F6E7F0B541
:105AC00085B0DDE90B640A9DA6B1DCB154270097CF
:105AD0002663022684F85160002604AFCDE9024611
