:020000040800F2
:10000000B806002029020008270800082308000875
:1000100025080008E3020008150900080000000098
:100020000000000000000000000000002B08000895
:10003000E502000800000000290800082D0800085B
:10004000430200084302000843020008430200087C
:10005000430200084302000843020008430200086C
:10006000430200084302000843020008430200085C
:10007000430200084302000843020008430200084C
:10008000430200084302000843020008430200083C
:10009000430200084302000843020008430200082C
:1000A000430200084302000843020008430200081C
:1000B0004302000843020008410800084302000808
:1000C00043020008430200084302000843020008FC
:1000D00043020008430200084302000843020008EC
:1000E00043020008430200084302000843020008DC
:1000F00043020008430200084302000843020008CC
:1001000043020008430200084302000843020008BB
:1001100043020008430200084302000843020008AB
:10012000430200084302000843020008430200089B
:10013000430200084302000843020008430200088B
:10014000430200084302000843020008430200087B
:10015000430200084302000843020008430200086B
:10016000430200084302000843020008430200085B
:100170004302000843020008430200080000000098
:10018000430200084302000800F002F800F03CF8C7
:100190000AA090E8000C82448344AAF10107DA45E2
:1001A00001D100F031F8AFF2090EBAE80F0013F0F8
:1001B000010F18BFFB1A43F001031847BC070000EA
:1001C000DC070000103A24BF78C878C1FAD852077B
:1001D00024BF30C830C144BF04680C6070470000C1
:1001E0000023002400250026103A28BF78C1FBD840
:1001F000520728BF30C148BF0B6070471FB500F0E1
:10020000B1FB1FBD10B510BD00F031F81146FFF76E
:10021000F5FF00F091FB00F04FF803B4FFF7F2FF99
:1002200003BC00F057F80000094880470948004720
:10023000FEE7FEE7FEE7FEE7FEE7FEE7FEE7FEE796
:10024000FEE7FEE704480549054A064B70470000F3
:100250003108000889010008B8000020B806002015
:10026000B8020020B80200207047704770477546FA
:1002700000F02CF8AE4605006946534620F0070012
:10028000854618B020B5FFF7DDFFBDE820404FF0F0
:1002900000064FF000074FF000084FF0000B21F070
:1002A0000701AC46ACE8C009ACE8C009ACE8C0093D
:1002B000ACE8C0098D46704710B50446AFF3008026
:1002C0002046BDE81040FFF7A8BF00000048704777
:1002D0005800002001491820ABBEFEE726000200AE
:1002E0007047FEE7704700000B4A10B54FF0FF3033
:1002F000106000211160121D10601160064A103A52
:1003000010601160121D10601160121D10601160EC
:1003100000F05EF8002010BD2038024001488068DF
:1003200070470000000000200248816802781144F4
:10033000816070470000002030B505461F4887B037
:100340000024016841F004010160006806A900F082
:100350000400009001A800F003F90498A8B100F08F
:100360001FF940001649174AB0FBF1F11648491E23
:10037000026040F2E732C0E90324C0E9011484615D
:1003800000F020F9040003D015E000F009F9E9E7D6
:100390000D4800F045F904000DD11E2000F019F8B9
:1003A000102D07D2002229461E2000F01FF8074812
:1003B000056000E0012407B0204630BD403802400F
:1003C00040420F0000080040100000200400002000
:1003D0007047002809DB00F01F020121914040090D
:1003E000800000F1E020C0F800117047F0B40E4B1F
:1003F0001B680C46C3F30223C3F10705042D00D983
:100400000425191D072901D2002300E0DB1E012667
:1004100006FA05F1491E214099409E40761E16407D
:100420003143F0BC00F077BA0CED00E02DE9F0416B
:10043000FFF774FF444C0546206840F0010020603F
:1004400005E000BFFFF76AFF401B022847D820687D
:100450008007F7D5206840F080002060FFF75EFF3E
:100460000546394E00200836306041F2883704E0F6
:10047000FFF754FF401BB84231D8306810F00C0F22
:10048000F6D1FFF74BFF0546206820F4502020608E
:1004900005E000BFFFF742FF401B64281FD820681B
:1004A0008003F7D4FFF73AFF0546206820F08070FC
:1004B000206004E0FFF732FF401B02280FD82068BD
:1004C0008001F7D4FFF72AFF0546206820F08060FE
:1004D000206007E0FFF722FF401B022802D903201B
:1004E000BDE8F08120680001F4D417491748091DC0
:1004F0000860154916488431086013480C300168BB
:1005000021F4F8510160016821F400510160016893
:1005100041F41F010160016841F4001101600A48C3
:100520007430016821F001010160016841F08071BF
:10053000016009490748086008480068FFF7FCFEA9
:100540000028CDD00120CBE7003802401030000455
:10055000003000200024F4000C00002004000020E3
:100560000F2202600C4A136803F003034360136810
:1005700003F0F0038360136803F4E053C360126870
:100580004FF4E05303EAD20202610448006800F02D
:10059000070008607047000008380240003C024035
:1005A0000448054900680968044AC1F38221515C86
:1005B000C84070470C000020083802406E0900084F
:1005C0007047704710B5040003D094F83D0010B197
:1005D00007E0012010BD002084F83C00204600F018
:1005E0001EF8022084F83D00211D206800F02EF93D
:1005F000012084F8460084F83E0084F83F0084F827
:10060000400084F8410084F8420084F8430084F8F4
:10061000440084F8450084F83D00002010BD704778
:1006200090F83D10012901D001207047022180F887
:100630003D100168CA6842F00102CA6000681149B1
:10064000884214D0B0F1804F11D00F4988420ED0AB
:100650000E4988420BD00E49884208D00D49884285
:1006600005D00D49884202D00C49884204D18168E6
:1006700001F00701062903D0016841F00101016082
:1006800000207047000001400004004000080040C6
:10069000000C0040000401400040014000180040F0
:1006A000704770B50446006801694FF00005C94302
:1006B000890715D4C168C943890711D4E91E0161AE
:1006C00001202077206880698007204602D0FFF74C
:1006D000E7FF04E000F098F8204600F096F8257750
:1006E00020680169C943490717D4C168C94349074C
:1006F00013D46FF004010161022020772068806923
:1007000010F4407F204602D0FFF7CAFF04E000F05B
:100710007BF8204600F079F8257720680169C94305
:10072000090716D4C168C943090712D46FF008013C
:100730000161042020772068C0698007204602D02C
:10074000FFF7AEFF04E000F05FF8204600F05DF830
:10075000257720680169C943C90617D4C168C94310
:10076000C90613D46FF010010161082020772068BA
:10077000C06910F4407F204602D0FFF791FF04E0EB
:1007800000F042F8204600F040F825772068016923
:10079000C943C90708D1C168C943C90704D1891E23
:1007A0000161204600F032F820680169C94309065A
:1007B00009D4C168C943090605D46FF080010161FD
:1007C0002046FFF7FDFE20680169C943490609D4A8
:1007D000C168C943490605D46FF040010161204654
:1007E00000F01EF820680169C94389060BD4C1686E
:1007F000C943890607D46FF0200101612046BDE896
:100800007040FFF7DEBE70BD704770470068034957
:10081000884201D1FFF788BD704700000008004002
:100820007047FEE7FEE7FEE770477047704700003D
:100830000248016841F470010160704788ED00E0F2
:100840000148FFF72EBF000010000020F0B502683D
:10085000254C264D264E274F274B4FF0804CA0426B
:1008600009D0604507D0A84205D0B04203D0B842B5
:1008700001D0984204D122F0700E4A6842EA0E027A
:10088000A0421BD0604519D0A84217D0B04215D065
:10089000B84213D0984211D0184DA8420ED0184D2E
:1008A000A8420BD0174DA84208D0174DA84205D03A
:1008B000164DA84202D0164DA84203D122F440752D
:1008C000CA682A434D6922F080022A4302608A687E
:1008D000C2620A688262A04201D0984201D10969CD
:1008E000016301214161F0BD0000014000040040AE
:1008F00000080040000C004000040140004001409E
:10090000004401400048014000180040001C004025
:1009100000200040FEE70907090E002804DB00F173
:10092000E02080F80014704700F00F0000F1E02094
:1009300080F8141D7047000010B5084CFFF776FDD5
:10094000FFF7D2FC0648016821F4E021016020682D
:1009500080F3088860688047002010BD000002080E
:1009600024ED00E04FF04070E1EE100A7047000007
:1009700000000102030400009809000800000020A4
:1009800010000000C4010008A809000810000020A1
:10099000A8060000E00100080100000010000000AF
:0809A000000000000024F40037
:040000050800018965
:00000001FF
