:020000040806EC
:10000000D8630020090306080F270608AD25060857
:100010000D270608B70B06089931060800000000F6
:100020000000000000000000000000004902060877
:10003000D30E060800000000A5020608A92B06083A
:1000400023030608230306082303060823030608E0
:1000500023030608230306082303060823030608D0
:1000600023030608230306082303060823030608C0
:1000700023030608230306082303060823030608B0
:1000800023030608230306082303060823030608A0
:100090002303060823030608230306082303060890
:1000A0002303060823030608230306082303060880
:1000B000612C0608230306086D2C06082303060896
:1000C0002303060823030608230306082303060860
:1000D00023030608813106082303060823030608C4
:1000E0002303060823030608230306082303060840
:1000F0002303060823030608230306082303060830
:10010000230306082303060823030608230306081F
:10011000230306082303060823030608230306080F
:1001200023030608230306082303060823030608FF
:1001300023030608230306082303060823030608EF
:1001400023030608230306082303060823030608DF
:100150002303060823030608230306088D31060837
:1001600023030608230306082303060823030608BF
:1001700023030608230306082303060800000000E3
:10018000230306082303060800F002F800F04DF8E8
:100190000AA090E8000C82448344AAF10107DA45E2
:1001A00001D100F042F8AFF2090EBAE80F0013F0E7
:1001B000010F18BFFB1A43F001031847284700003E
:1001C00048470000103A24BF78C878C1FAD85207CF
:1001D00024BF30C830C144BF04680C6070470000C1
:1001E0000023002400250026103A28BF78C1FBD840
:1001F000520728BF30C148BF0B607047642900F028
:10020000B381732900F0B983002070471FB504F053
:10021000B3FA00F02BFC04000020002104F096FA51
:10022000401C60601FBD10B510BD00F04FFC1146B2
:10023000FFF7ECFF03F0C8F800F06DFC03B4FFF724
:10024000F2FF03BC00F0B0FC2C4B19680868B0E862
:10025000F04F80F30988BFF36F8F4FF0000080F3F9
:10026000118870470000000008480068006880F3AB
:1002700008884FF0000080F3148862B661B6BFF3BF
:100280004F8FBFF36F8F00DF00BF00BF08ED00E0AE
:10029000DFF80C00016841F470010160704700BF95
:1002A00088ED00E0EFF30980BFF36F8F134B1A68FE
:1002B0001EF0100F08BF20ED108A20E9F04F1060EB
:1002C00009B44FF0500080F31188BFF34F8FBFF394
:1002D0006F8F03F045FE4FF0000080F3118809BCDA
:1002E00019680868B0E8F04F1EF0100F08BFB0ECB6
:1002F000108A80F30988BFF36F8F70475C0000207D
:10030000EFF305807047000009488047094800471F
:10031000FEE7FEE7FEE7FEE7FEE7FEE7FEE7FEE7B5
:10032000FEE7FEE704480549054A064B7047000012
:10033000512C060889010608D85D0020D8630020EA
:10034000D85F0020D85F002070B50446051F00F07C
:1003500083FA0068002C14BF446870BD002C18BFDD
:10036000AC423CBF20466468F8D301680A18AA4230
:1003700018BF456003D12A6805461144016028680A
:100380004119A1421CBF6C6070BD61686960216841
:100390000844286070BD53EA020C00F069802DE922
:1003A000F04B4FF00006002B1FBFB3FA83F503FAA2
:1003B00005F424FA05F65E4012BF1643B2FA82F540
:1003C00002FA05F4C5F120051EBF22FA05FC44EA35
:1003D0000C04203556EA044C4FEA144418BF641C40
:1003E0004FF000084FF00009904271EB030C39D335
:1003F000002919BFB1FA81F701FA07F6B0FA80F7C0
:1004000000FA07F6C7F120071EBF20FA07FC46EAEC
:100410000C062037B6FBF4FCA7EB0507103F07F0EE
:100420001F0BCBF120060CFA0BFB2CFA06F644BF8F
:10043000B3460026202FA4BF5E464FF0000B5BEAB8
:10044000060C08BF4FF0010B19EB0B09ABFB027C4C
:1004500048EB0608C01B06FB02CC0BFB03CC71EB80
:100460000C01C1E70B46024641464846BDE8F08B09
:1004700013B54FF000004FF00001AFF30080BDE86E
:100480001C4070470FB41CB5074B06AA7B44694655
:100490000090059800F047FA0020694600F056FAEF
:1004A0001CBC5DF814FB0000BD0400002DE9F04108
:1004B0000E460446002020622046E168884730B39B
:1004C000252805D0D4E901219047206A401CF2E795
:1004D000E168204600278847050018D0A5F14100B3
:1004E000192802D820354FF40067324629462046A5
:1004F0002760FFF783FE40B1012804D0F61D26F0E7
:1005000007060836D8E7361DD6E72846DAE7206A18
:10051000BDE8F08170B50C460546012A05D0287863
:10052000800600D5EA69002302E0012305E05B1C98
:10053000934202D2E05C0028F9D1A869E618C01AFB
:10054000A861286A184428622846AFF3008004E0B6
:10055000D5E9012114F8010B9047B442F8D328469D
:10056000AFF3008070BD00002DE9F0410646002485
:1005700010687529314616A510D0AFF30080002809
:1005800002DA404213A507E031688A0701D512A5B7
:1005900002E0490704D511A5012401E0AFF3008072
:1005A00000210A2206F1240709E0B0FBF2FCB0FBAF
:1005B000F2F302FB1C00303078541846491C002826
:1005C000F3D123462A463046BDE8F04100F04CB94D
:1005D000000000002D0000002B00000020000000A3
:1005E0002DE9F04791460F4680460446002614F850
:1005F000015B2DB100F028F90068405DC007F6D11D
:100600002B2D02D02D2D18D0641E4A463946204687
:1006100000F0B7F927B13968A14201D1C7F80080CD
:100620004FF0020471050BD54042002803DD00F0B5
:1006300017F90460A007BDE8F08746F48066E4E798
:100640000028F8DA00F00CF904606FF00040F2E7DF
:10065000014A00F0E5B90000C400002030B50546AD
:100660000B462A4613F8014B12F8010B08B1A042C1
:10067000F8D01CB1002802D06D1CF1E7284630BD2F
:1006800040EA0103024630B59B0710D14FF0013418
:1006900000E008C208C91D1B9D4315EAC41FF8D01D
:1006A00013F0FF0102F8011B0DD01B0AF8E711F847
:1006B000013B002B02F8013B05D011F8013B002B58
:1006C00002F8013BF3D130BD10B5431C02E010F835
:1006D000011B71B18107FAD14FF0013202C88C1AA7
:1006E0008C4314EAC211F9D0C01A0A0603D0C01E06
:1006F00010BDC01A10BD0A0401D0801E10BD090231
:10070000FCD0401E10BD032A40F2308010F0030CD4
:1007100000F0158011F8013BBCF1020F624498BF54
:1007200011F801CB00F8013B38BF11F8013BA2F1F1
:10073000040298BF00F801CB38BF00F8013B11F06C
:10074000030300F02580083AC0F0088051F8043B0C
:10075000083A51F804CBA0E80810F5E7121D5CBF79
:1007600051F8043B40F8043BAFF30080D20724BFAC
:1007700011F8013B11F801CB48BF11F8012B24BF40
:1007800000F8013B00F801CB48BF00F8012B70478F
:1007900010B5203AC0F00B80B1E81850203AA0E81C
:1007A0001850B1E81850A0E81850BFF4F5AF5FEA50
:1007B000027C24BFB1E81850A0E8185044BF18C903
:1007C00018C0BDE810405FEA827C24BF51F8043BAA
:1007D00040F8043B08BF7047D20728BF31F8023BFE
:1007E00048BF11F8012B28BF20F8023B48BF00F892
:1007F000012B70474FF0000200B513469446964611
:10080000203922BFA0E80C50A0E80C50B1F1200123
:10081000BFF4F7AF090728BFA0E80C5048BF0CC0D1
:100820005DF804EB890028BF40F8042B08BF70472F
:1008300048BF20F8022B11F0804F18BF00F8012BA1
:10084000704770477047704710B500F00FF9001DF2
:1008500010BD00BFF93E0000004870477C5D0020DD
:1008600000487047745D00202DE9F0470D46994619
:100870009246044600F124080168880604D5E06920
:1008800021F01001216000E00120A84201DD471B9A
:1008900000E00027A1697A1902EB0900081AA0619B
:1008A0002078C00602D42046AFF30080002608E07E
:1008B000D4E901211AF806009047206A401C761CF2
:1008C00020624E45F4DB2078C0060AD52046AFF3FF
:1008D000008006E0D4E9012130209047206A401CC6
:1008E0002062381EA7F10107F4DC07E0D4E90121FA
:1008F00018F805009047206A401C2062281EA5F1C8
:100900000105F3DC2046AFF300802078000602D515
:100910000220BDE8F0870120FBE7000001694A1CC6
:1009200002610878704700B58FB0CDE90131002130
:10093000059105497944CDE9031011466846FFF752
:10094000B5FD0FB000BD0000E5FFFFFF0A6802F82B
:10095000010B0A60704710B5436913B1AFF3008013
:1009600001E0FFF7D7FD012010BD127800F124014E
:100970000A7000224A700122EDE711684FF0FF3241
:10098000E9E72DE9F05F824615468B4600270AF11C
:100990000104B9460078302801D09DB113E014F865
:1009A000010B0127782803D0582801D045B10AE06F
:1009B0000DB1102D07D1002714F8010B102502E00E
:1009C000082500E00A250026B0460EE005FB0800D9
:1009D00005FB06F101271FFA80F801EB1046B6F57A
:1009E000803F00D3B94614F8010B294600F042F8C5
:1009F0000028EBDABBF1000F05D00FB1641E00E058
:100A00005446CBF80040B9F1000F06D0FFF728FF9D
:100A100002210160C81EBDE8F09F48EA0640FAE7DF
:100A20002DE9F04115460E46040002D12C6804B9A8
:100A30000BA4204600F03CF80444207870B127460F
:100A40003146384600F024F80444207810B10020E4
:100A500004F8010B38462C60BDE8F0810027F9E767
:100A60000000000000487047745D00200048704797
:100A7000945D00203A2800D2303820F02002412A2C
:100A800001D3A2F13700884201D34FF0FF30704705
:100A900030B503461D781DB10A4603E0AC4201D1D2
:100AA000181A30BD12F8014B002CF7D15B1CF1E78E
:100AB00030B503461D783DB10A4612F8014B1CB112
:100AC000AC42FAD15B1CF5E7181A30BD7546FFF74A
:100AD000C9FFAE4605006946534620F0070085462B
:100AE00018B020B5FFF71EFCBDE820404FF000060F
:100AF0004FF000074FF000084FF0000B21F0070106
:100B0000AC46ACE8C009ACE8C009ACE8C009ACE848
:100B1000C0098D46704710B50446AFF300802046EB
:100B2000BDE81040FFF78ABB4FF0013C50F8042BA2
:100B300051F8043B9A4221D1A2EB0C03934313EAF0
:100B4000CC1317D150F8042B51F8043B9A4215D11D
:100B5000A2EB0C03934313EACC130BD150F8042BF4
:100B600051F8043B9A4209D1A2EB0C03934313EAD8
:100B7000CC13DBD04FF00000704700BFD01A01BA91
:100B8000B1FA81F101F0180122FA01F0CB40C1F174
:100B90002001DBB2C0B2C01A2CFA01F3D11A914382
:100BA00011EAC311E6D1704701491820ABBEFEE738
:100BB000260002007047FEE77FB50C4641788DF8AD
:100BC000041080788DF80500002503AA022101A8F1
:100BD00002F096FB0122694603A802F0ADFB9DF8E6
:100BE00000000B3C04EBD471B0EB610F00D1012588
:100BF00004B0284670BD30B5012403460D46224698
:100C000009E0985C00F056F9985C00F053F90F2861
:100C100000D90024521CAA42F3D3204630BD01461D
:100C200000200B39212900D20120704770B50D46F4
:100C30000646002400F004F998B12846FFF7EFFFBC
:100C400088B129463046FFF7D6FF70B129463046B5
:100C500000F0FDF858B129463046FFF7ADFF40B12E
:100C600008E0012406E0052404E0022402E0032455
:100C700000E00424204670BD10B59AB04FF47A7499
:100C80000F283ED2DFE800F0080A0C0E1012181AE6
:100C90001C1E2A2C3F4143001FA039E01FA037E053
:100CA00021A035E022A033E024A031E001A802F029
:100CB00054FB25A22AA118E02DA029E02FA027E0AF
:100CC00032A025E001A802F048FB35A0009037A330
:100CD00038A23CA101A8FFF7D5FB09E042A017E02C
:100CE00001A802F03AFB18A244A101A8FFF7CAFB31
:100CF00001A8FFF7E9FC82B2234601A9454801F0AB
:100D0000FBFB1AB010BD44A002E045A000E048A0E3
:100D100001F076FDF5E700004154000041542B43FB
:100D200050494E3F0000000041542B4353510000F6
:100D300041542B43475245473F00000041542B4349
:100D40004F50533F00000000526563656976655F50
:100D500046726F6D5F4137363830432E68657800D4
:100D600041542B465344454C3D222573220D0A0025
:100D700041542B46534D454D0000000041542B4338
:100D800046545053535441525400000041542B4395
:100D90004654505353494E474C4549503D3100004D
:100DA0006D7431313231393900000000757365726C
:100DB0000000000032372E36362E3234372E3232D3
:100DC0003500000041542B43465450534C4F474983
:100DD0004E3D222573222C32312C222573222C22C7
:100DE0002573222C300D0A0041542B434654505396
:100DF0004C4953543D222F220000000041542B4304
:100E00004654505347455446494C453D222573228C
:100E10000D0A0000AC0B002041542B46534C5300EC
:100E200041542B43465450534C4F474F55540000A8
:100E300041542B434654505353544F50000000002C
:100E40000146002009783A2900D1012070472DE998
:100E5000F843002781460D463E460124B84616E079
:100E6000601CA84211D2CDF8008019F804008DF85A
:100E7000000009EB0400102240788DF801000021E9
:100E80006846FFF7ADFB3044C6B2A41CE4B2AC42E6
:100E9000E6D306B901273846BDE8F88300200449A7
:100EA000FF224FF480630A54401C9842FBDB7047DA
:100EB000610C0020A0F13001092901D8C8B27047A7
:100EC000A0F14101052901D8373800E05738C0B2F8
:100ED0007047704772B6FEE7002229B101291AD087
:100EE00002291BD04FF440720E490B6823F4407363
:100EF0000B600B6813430B600A6822F0F8020A606B
:100F00000A68022303EBC00002430A60086840F449
:100F10008030086070474FF48072E5E74FF400724C
:100F2000E2E70000103C02401348016889050FD534
:100F3000016821F400710160016841F40061016001
:100F4000016821F400610160016841F400710160F1
:100F5000016849050FD5016821F4806101600168CD
:100F600041F480510160016821F480510160016801
:100F700041F4806101607047003C024008490A6802
:100F800022F440720A600A6842F004020A600A68A9
:100F90004FF4803343EA002002430A6070470000A8
:100FA000103C0240064A136823F440731360136830
:100FB0001360136843F00103136001707047000071
:100FC000103C0240094910B50C6824F440740C60D0
:100FD0000C6844F440740C600C6844F001040C602C
:100FE0000260BFF36F8F436010BD0000103C0240F1
:100FF000074A136823F440731360136843F4807343
:101000001360136843F00103136001807047000010
:10101000103C0240074A136823F4407313601368BE
:1010200043F400731360136843F00103136001601D
:1010300070470000103C024017490868C206174874
:1010400005D5C26942F01002C26110220A600A6826
:10105000920605D5C26942F00802C26120220A60E8
:101060000A68520605D5C26942F00402C2614022F4
:101070000A600A68120605D5C26942F00202C2611E
:1010800080220A600A68920705D5C26942F02002F0
:10109000C2610220086070470C3C024064200020BE
:1010A00070B5114904460020C86100F01FFA0646D9
:1010B0000E4D09E0601C07D024B100F017FA801B28
:1010C000A04201D9032070BD2868C003F2D428686B
:1010D000C00701D001202860286810F0F200F2D08B
:1010E000FFF7AAFF012070BD642000200C3C0240E5
:1010F0002DE9F0410446876D00F0F8F9064694F8B2
:1011000035000025022806D08020606584F8345020
:101110000120BDE8F0812068016821F0160101601E
:101120002068416921F080014161206C08B9A06C00
:1011300020B12068016821F0080101602068016881
:1011400021F0010101600CE000F0D0F9801B0528BE
:1011500007D920206065032084F8350084F83450D6
:10116000D7E720680068C007EED194F85C103F20F4
:101170008840B860012084F8350084F8345000209D
:10118000C7E790F83510022903D08021416501207E
:101190007047052180F835100068016821F00101D1
:1011A00001600020704700002DE9F0470446224806
:1011B0000F46017E01290AD00121804601764CF2BA
:1011C00050394846FFF76CFF020003D02FE00220A1
:1011D000BDE8F0874FF0FF3038602068174D0128D8
:1011E00001D0A6681CE0207C6168FFF7C7FE484676
:1011F000FFF756FF0246286820F00400286014E03C
:10120000217C3046FFF768FE4846FFF749FF0200A1
:10121000286820F0FA00286001D03E6005E0761CC6
:10122000D4E902100844B042EAD8FFF77DFE00215D
:1012300088F818101046CBE764200020103C0240CC
:101240000348016841F00041016000207047000040
:10125000103C02402DE9F0471B4E05461446307EF7
:101260001F468946012808D0012030764CF25038BC
:101270004046FFF715FF18B114E00220BDE8F087E3
:101280009DB1012D16D0022D19D022463B4648466D
:10129000FFF798FE4046FFF703FF0C490A6822F06B
:1012A00001020A6000213176E8E7E1B24846FFF723
:1012B00079FEEFE7A1B24846FFF79AFEEAE721463A
:1012C0004846FFF7A7FEE5E764200020103C0240F7
:1012D000074900200A68002A09DA054A054B0C3A3A
:1012E0001360054B13600968002900DA012070477C
:1012F000103C024023016745AB89EFCD2DE9F84F43
:10130000DFF8BCA10022012503264FF00F090AF1E6
:10131000040BAAF1040E00BF0B6805FA02F4234087
:10132000A34270D10F7907F00307012F01D0022FDC
:1013300016D187684FEA420806FA08FC27EA0C072C
:10134000D1F80CC00CFA08FC4CEA070CC0F808C035
:101350004768A7430C79C4F3001494403C434460AD
:101360000C79E443A4070AD0C4684FEA420C06FA99
:101370000CF7BC438F6807FA0CF72743C7600C795A
:1013800004F00304022C12D1D40800EB840CDCF826
:1013900020405707FF0E09FA07F824EA0804D1F89D
:1013A000108008FA07F848EA0408CCF8208004689E
:1013B0004FEA420C06FA0CF7BC430F7907F003071B
:1013C00007FA0CF7274307604C6814F4403F70D0CD
:1013D0003C4C276847F480472760246822F00307C5
:1013E00004F480440094384C07EB040CDCF8084803
:1013F00097074FEA177809FA08F7BC43334FB8420A
:1014000002D1002724E054E0314FB84201D1012736
:101410001EE0304FB84201D1022719E02E4FB842EA
:1014200001D1032714E02D4FB84201D104270FE06A
:101430002B4FB84201D105270AE02A4FB84201D10B
:10144000062705E0284FB84201D1072700E008270A
:1014500007FA08F72743CCF80878DAF8004057462F
:10146000D1F804C09C435FEACC2C00D51C433C60FF
:10147000DBF800405F46D1F804C09C435FEA8C2C47
:1014800000D51C433C60DEF800407746D1F804C02C
:101490009C435FEA8C3C00D51C433C60084F083FEE
:1014A0003C68D1F804C09C435FEACC3C00D51C43A7
:1014B0003C60521C102AFFF42FAFBDE8F88F0000EB
:1014C000083C014044380240003001400000024026
:1014D0000004024000080240000C024000100240DC
:1014E0000014024000180240001C024001488068BD
:1014F000704700004C0000200248816802781144C7
:10150000816070474C0000200B4810B5016841F421
:1015100000710160016841F480610160016841F47B
:1015200080710160032000F09FF80F2000F006F8A2
:1015300000F050F8002010BD003C024030B50546D8
:101540001F4887B00024016841F004010160006871
:1015500006A900F00400009001A800F031F90498F9
:10156000A8B100F04DF940001649174AB0FBF1F15F
:101570001648491E026040F2E732C0E90324C0E980
:101580000114846100F08EFB040003D015E000F02C
:1015900037F9E9E70D4800F0CFFB04000DD11E201C
:1015A00000F034F8102D07D2002229461E2000F04A
:1015B0003BF80748056000E0012407B0204630BD35
:1015C0004038024040420F0000080040640B0020F9
:1015D000500000200C4882B0016841F48041016055
:1015E000006800F4804000900748001F016841F047
:1015F000805101600068002200F0805000900F21AF
:10160000901E02B000F010B844380240002809DBF8
:1016100000F01F02012191404009800000F1E0200C
:10162000C0F8001170470000F0B40E4B1B680C4668
:10163000C3F30223C3F10705042D00D90425191DA6
:10164000072901D2002300E0DB1E012606FA05F17E
:10165000491E214099409E40761E16403143F0BC01
:1016600001F016BE0CED00E0064900F00702086824
:101670004FF6FF03184040EA0220034A1043086077
:10168000704700000CED00E00000FA052DE9F0477E
:101690000E46050065D0DFF81481D8F80000F7B2D7
:1016A00000F00700B04207D288F80070D8F80000B8
:1016B00000F00700B04254D128683D4C810712D594
:1016C000400703D5206840F4E050206028780007E8
:1016D00003D5206840F4604020602068A96820F0AD
:1016E000F000084320602878C0072DD03049686892
:1016F0000839012812D0022813D0032811D0096814
:10170000890700292DDA216821F0030101432160B6
:10171000FFF7ECFE814641F2883A0EE00968890342
:10172000EFE709688901ECE7FFF7E0FEA0EB0901AC
:10173000514502D90320BDE8F0872068696800F0B0
:101740000C00B0EB810FEFD1D8F80010404601F04B
:101750000701B14207D90770006800F00700B042E6
:1017600001D00120E7E72878400705D52068E9681F
:1017700020F4E050084320602878000706D5206850
:10178000296920F4604040EAC100206000F058F868
:101790002168084AC1F30311515CC840064908603A
:1017A00006480068FFF7CAFE0020C4E7003C02407C
:1017B0000838024040480608580000205000002029
:1017C0000F2202600C4A136803F00303436013689E
:1017D00003F0F0038360136803F4E053C3601268FE
:1017E0004FF4E05303EAD20202610448006800F0BB
:1017F000070008607047000008380240003C0240C3
:101800000448054900680968044AC1F38221515C13
:10181000C840704758000020083802405048060869
:101820000448054900680968044AC1F34231515C23
:10183000C840704758000020083802405048060849
:10184000154810B5006810F00C02144813D0144964
:10185000042A0FD0082A0ED10F4C241F22682368B7
:1018600002F03F025B0207D52068C0F38810A0FB9E
:10187000010106E0084610BD2168C1F38811A1FBF3
:1018800000010023FEF787FD2168C1F30141491CD7
:101890004900B0FBF1F010BD083802400024F4000C
:1018A00040787D012DE9F84F04006ED02078DFF8F4
:1018B0004C93C007A9F104054AD009F1040001685E
:1018C000C1F38101012908D00068C0F3810002281A
:1018D0000AD1D9F80000400206D52868800337D520
:1018E00060680028E1D033E06068B0F5803F10D038
:1018F000B0F5A02F286810D020F480302860286828
:1019000020F4802028606068A8B1FFF7EFFD06464C
:101910000DE0286840F48030F4E740F4802028602F
:10192000F7E700BFFFF7E2FD801B642873D8286843
:101930008003F7D50CE0FFF7D9FD064605E000BFB0
:10194000FFF7D4FD801B6428F0D828688003F7D403
:101950002078DFF8AC8280074FF0000A3ED5A74818
:10196000001D016811F00C0F08D00068C0F3810061
:1019700002280BD1D9F80000400207D4286880075C
:1019800016D5E068012800D112E033E1E068B8B173
:101990000120C8F80000FFF7A9FD064605E000BFDA
:1019A000FFF7A4FD801B0228C0D828688007F7D560
:1019B0002868216920F0F80040EAC10028600DE0A5
:1019C000C8F800A0FFF792FD064604E0FFF78EFD81
:1019D000801B02281FD828688007F7D420780007CA
:1019E00022D5864F87486169703771B10121016046
:1019F000FFF77CFD064604E0FFF778FD801B022818
:101A000009D838688007F7D50EE0C0F800A0FFF7C6
:101A10006DFD064605E082E0FFF768FD801B0228A9
:101A20007DD838688007F7D42078400768D5DFF87C
:101A3000CCB100270BF13C0BDBF80000C0000BD44D
:101A4000DBF8001041F08051CBF80010DBF800000B
:101A5000012700F0805000906B4E3068C00510D414
:101A6000306840F480703060FFF740FD009005E082
:101A7000FFF73CFD0099401A022850D83068C00595
:101A8000F6D55E4EA0686C3601280FD00528306868
:101A900010D020F001003060306820F00400306089
:101AA000A068B8B1FFF722FD00900FE0306840F069
:101AB0000100F4E740F004003060F7E7FFF716FD9F
:101AC0000099411A41F28830814266D83068800717
:101AD000F4D50EE0FFF70AFD009007E0FFF706FDE2
:101AE0000099411A41F28830814256D83068800707
:101AF000F4D42FB1DBF8001021F08051CBF80010A6
:101B0000A069C8B33D49091D0968C1F381010229D3
:101B10004AD00228504607D0C8F8600000E03CE0F8
:101B2000FFF7E4FC04463BE04746C8F86000FFF7D7
:101B3000DDFC064605E000BFFFF7D8FC801B02284D
:101B40002BD828688001F7D4D4E907010843A16A9B
:101B50002E4A490802EB0141626A41EA82110843B8
:101B600094F82C1040EA0161C9F800100120386691
:101B7000FFF7BCFC044606E03EE000BFFFF7B6FC02
:101B8000001B022809D828688001F7D534E000BF7F
:101B9000FFF7ACFC001B022802D90320BDE8F88F38
:101BA00028688001F4D427E00128F7D0D9F8000094
:101BB000E26900F4800191421CD1226A00F03F01E9
:101BC000914217D147F6C071626A0140B1EB821FA2
:101BD00010D1A26A4FF0FF3300F4403103EB520200
:101BE000B1EB024F06D194F82C1000F07060B0EB0E
:101BF000016F01D00120D1E70020CFE70438024077
:101C000000004742800E4742007000400000FFFF86
:101C10007047704770B590F83C20012A32D00124FB
:101C200080F83C40022280F83D2003685A689D6895
:101C300022F070060A6832435A60134B02689A42D7
:101C400014D0B2F1804F11D0104B9A420ED0104BED
:101C50009A420BD00F4B9A4208D00F4B9A4205D0B4
:101C60000E4B9A4202D00E4B9A4204D1496825F09D
:101C700080031943916080F83D40002180F83C10BA
:101C8000084670BD022070BD000001400004004005
:101C900000080040000C00400004014000400140EA
:101CA0000018004010B5040003D094F83D0010B1B6
:101CB00007E0012010BD002084F83C00204600F021
:101CC0001FF8022084F83D00211D206800F0D4FF99
:101CD000012084F8460084F83E0084F83F0084F830
:101CE000400084F8410084F8420084F8430084F8FE
:101CF000440084F8450084F83D00002010BD000039
:101D000008B50068B0F1804F12D10A48016841F06F
:101D1000010101600068002200F00100009005212F
:101D20001C20FFF781FCBDE808401C20FFF76EBCBB
:101D300008BD00004038024090F83D10012901D054
:101D400001207047022180F83D100168CA6842F006
:101D50000102CA6000681149884214D0B0F1804F76
:101D600011D00F4988420ED00E4988420BD00E493F
:101D7000884208D00D49884205D00D49884202D0DA
:101D80000C49884204D1816801F00701062903D07B
:101D9000016841F00101016000207047000001402E
:101DA0000004004000080040000C00400004014016
:101DB000004001400018004001680A6A41F2111316
:101DC0001A4207D10A6A9B101A4203D10A6822F00C
:101DD00001020A60012180F83D100020704770B5B3
:101DE000044690F83C000025012817D0012684F80D
:101DF0003C60022084F83D002068826822F077026F
:101E000022F47F4282600868502838D00DDC2028F8
:101E10004FD005DC90B3102811D14AE0022070BDEC
:101E2000302846D040280AD13BE060282FD07028C7
:101E30000DD0B0F5805F03D0B0F5005F12D0012562
:101E400084F83D60002084F83C00284670BDCB68D3
:101E5000D1E90121206800F073FF2068816841F01A
:101E6000770109E0CB68D1E90121206800F068FF23
:101E70002068816841F480418160E1E719E0CA6827
:101E80004968206800F06EFF5021206806E0CA68AB
:101E90004968206800F077FF6021206800F05AFF51
:101EA000CEE7CA684968206800F05CFF40212068DE
:101EB000F4E7226801461046F0E7704770B5044623
:101EC000006801694FF00005C943890715D4C1684E
:101ED000C943890711D4E91E0161012020772068D8
:101EE00080698007204602D0FFF7E7FF04E000F09A
:101EF00098F8204600F096F8257720680169C943D4
:101F0000490717D4C168C943490713D46FF00401C6
:101F10000161022020772068806910F4407F20460C
:101F200002D0FFF7CAFF04E000F07BF8204600F083
:101F300079F8257720680169C943090716D4C16873
:101F4000C943090712D46FF008010161042020770A
:101F50002068C0698007204602D0FFF7AEFF04E08A
:101F600000F05FF8204600F05DF8257720680169F1
:101F7000C943C90617D4C168C943C90613D46FF051
:101F800010010161082020772068C06910F4407FAB
:101F9000204602D0FFF791FF04E000F042F820460F
:101FA00000F040F8257720680169C943C90708D1C6
:101FB000C168C943C90704D1891E0161204600F0E8
:101FC00033F820680169C943090609D4C168C943C7
:101FD000090605D46FF0800101612046FFF718FE65
:101FE00020680169C943490609D4C168C943490643
:101FF00005D46FF040010161204600F037F82068F9
:102000000169C94389060BD4C168C943890607D44D
:102010006FF0200101612046BDE87040FFF7F9BD77
:1020200070BD70477047000010B500680A498842CB
:1020300003D1BDE81040FFF75FBAB0F1804F0AD17D
:102040000648FFF7B9FE064900208880BDE8104029
:1020500004A001F08FB910BD00080040C8000020A6
:10206000000000206572726F720D0A0070477047A1
:1020700070470000F8B5016804460868CA684B69F3
:1020800010F00F0F4FF0000559D003F0010602F4D5
:102090009077374365D0C10705D0D10503D5216CB2
:1020A00041F001012164410705D5D90703D0216C16
:1020B00041F002012164810705D5D90703D0216CC5
:1020C00041F004012164010707D502F020013143EA
:1020D00003D0216C41F008012164216C00293AD021
:1020E000800604D5900602D5204600F008FF20683F
:1020F0004069216CC0F38010090700D460B320460A
:1021000000F0D6FE20684069400621D520681430D2
:1021100050E8001F21F0400140E80012002AF5D1EC
:10212000A06BA8B16C490165A06BFFF72AF80028E5
:1021300011D0A06B016D01B0BDE8F04008478306E7
:102140000FD593060DD52046BDE8F84000F0D7BE68
:102150002046FFF78DFFF8BD2046FFF789FF256475
:10216000F8BD266B2023012E79D1C60677D5D60679
:1021700075D50868486800904869400640D5A16B4D
:10218000086840680004000CEAD0A28D8242E7D9BA
:10219000E085C869B0F5807F2DD020680C3050E80C
:1021A000001F21F4807140E80012002AF5D1206858
:1021B000143050E8001F21F0010140E80012002A0D
:1021C000F5D12068143050E8001F21F0400140E8AC
:1021D0000012002AF5D184F83E30256320680C30C7
:1021E00050E8001F21F0100140E80012002AF5D14C
:1021F000A06BFEF77DFFA08DE18D401A81B229E032
:10220000A08DE18D401A81B2E08D0028A8D0002970
:10221000A6D020680C3050E8002F22F4907240E8DD
:102220000026002EF5D12068143050E8002F22F04F
:10223000010240E80026002EF5D184F83E302563E7
:1022400020680C3050E8002F22F0100240E80023F4
:10225000002BF5D12046FFF70AFFF8BDFFE7050682
:102260002BD5150629D594F83D002128F5D1A06875
:10227000B0F5805F01D12069B0B1206A411C2162B4
:10228000216800784860E08C401E0004000CE08467
:10229000E3D12068C16821F08001C1602068C16875
:1022A00041F04001C160D8E7206A0088C0F308000F
:1022B0004860206A801C2062E5E74006CDD55006C4
:1022C000CBD5CA68204622F04002CA6084F83D306F
:1022D00000F06BF9C1E70000A12E060870B50400FC
:1022E00004D094F83D00002510B106E0012070BD37
:1022F00084F83C50204600F023F8242084F83D0068
:102300002068C16821F40051C160204600F058FEE9
:102310002068016921F4904101612068416921F040
:102320002A0141612068C16841F40051C1602564FF
:10233000202084F83D0084F83E00002070BD00009D
:10234000F0B587B0044614216846FEF753FA2A48D0
:10235000284F2668002228491438C0230224032568
:10236000BE4220D10E6846F010060E60096801F0EA
:1023700010010591016841F00201016000680093BD
:1023800000F0020005900720CDE90350CDE901429D
:1023900069461A48FEF7B2FF00220A212520FFF7FE
:1023A00043F9252022E0164FBE4221D10E6846F0A7
:1023B00020060E60096801F020010591016841F0D6
:1023C000040101600068009300F0040005900820FB
:1023D000CDE90350CDE9014269460A48FEF78EFF78
:1023E000002205214720FFF71FF94720FFF70EF9CC
:1023F00007B0F0BD00100140443802400004024024
:10240000001401400008024090F83E30202B0ED10D
:1024100059B152B190F83C30012B08D0012380F81B
:102420003C300023036300F051BE012070470220BE
:102430007047000070B5006823490125234C88428D
:1024400029D120466188027821484318491C6180BF
:102450001A700A2A18D1618801780026462912D1FB
:1024600041784F290FD1817854290CD1C078412867
:1024700009D1606938B917A001F06EF82662C4E985
:10248000035601F00FFC6680BDE8704001220F4941
:102490001548FFF7B9BF1549884214D10B4EA088E3
:1024A000761C3178124A0244401CA080117001222F
:1024B00031461048FFF7A8FF2069002803D1307883
:1024C0004F2800D1A56070BD00140140000000201D
:1024D00010050020456E74657220464F5441206DF2
:1024E0006F64650D0A000000F00B00200010014031
:1024F00010010020AC0B00202DE9F843044690F8B1
:102500003D001F4616460D4620284CD1C5B1BEB130
:1025100094F83C00012846D0012084F83C004FF09C
:102520000008C4F84080212084F83D00FEF7DEFF5B
:10253000A6848146E684A068B0F5805F03D004E0FD
:102540000120BDE8F883206928B12E465FF0000520
:1025500084F83C800EE00026FAE78021204600F057
:10256000D2FDA0B9AEB116F8010B21684860E08C2D
:10257000401EE084E08C4B464FF00002009700289C
:10258000EBD14FF04001204600F0BDFD30B10320FB
:10259000D7E735F8020BC0F30800E6E7202084F8FF
:1025A0003D000020CDE70220CBE7704707A000F0F8
:1025B000D3FFBFF34F8F0A4801680A4A01F4E06174
:1025C00011430160BFF34F8F00BFFDE748617264A4
:1025D000206661756C74206572726F720D0A00005E
:1025E0000CED00E00400FA05114808B5016841F05F
:1025F00080010160016801F080010091016841F0F3
:1026000004010160016801F004010091016841F0DA
:1026100001010160016801F001010091016841F0D0
:1026200002010160006800F00200009008BD000097
:102630003038024010B586B0002417480094019449
:102640000294039404944FF080410594016040F299
:102650003F61C0E9011442F20F71C0E903148461C3
:10266000FFF720FB08B172B6FEE74FF480500090F0
:1026700069460948FFF7B3FB08B172B6FEE7049458
:1026800004A905480594FFF7C5FA002801D072B6E1
:10269000FEE706B010BD0000C80000200C4810B5D1
:1026A0000A4901604FF4E1314160002181600C2250
:1026B000C160C0E904128161C161FFF70FFE00280B
:1026C00003D0BDE81040FEF705BC10BD001001406E
:1026D000AC0B00200C4810B50A4901604FF4E13101
:1026E0004160002181600C22C160C0E90412816157
:1026F000C161FFF7F3FD002803D0BDE81040FEF7ED
:10270000E9BB10BD00140140F00B0020FEE7FEE71E
:1027100070B598B004460125142218A10DA8FEF743
:1027200037F80DA92046FDF799FF58B1142213A1DF
:1027300012A8FEF72DF812A92046FDF78FFF0646D6
:1027400013A10FE0032018B070BD684600F005FE2D
:1027500021466846FDF794FF684600F025FF050016
:1027600004D10BA1FDF774FF0400EED13046FDF754
:10277000EBFD2046FDF7E8FD2846E4E72B434654F1
:1027800052414E54583A20444154412C000000001C
:102790000A00000010B592B00446684600F0DDFD66
:1027A000234608A20DA16846FDF76CFE6846FDF7BA
:1027B0008BFF82B24FF47A7369461048FFF79CFE94
:1027C00012B010BD526563656976655F46726F6DC4
:1027D0005F4137363830432E6865780041542B43CB
:1027E000465452414E54583D22433A2F2573222CD1
:1027F00025642C3531320D0A00000000AC0B00209E
:1028000070B50446FDF760FF82B24FF47A752B462F
:1028100021460548FFF770FE2B46BDE870400222B6
:1028200002A10148FFF768BEAC0B00200D0A0000B2
:102830000EB50025844C4FF47A7701264FF4FA78D0
:102840002069002845D1E068012806D1606920B9D7
:10285000A069FEF711FAE5616661384600F03EFEB8
:102860006069012818D1E069401CE061E0690A282C
:1028700012D16561A561E560E56174A000F06CFEB0
:102880002661206A40B974A0FFF7BAFF384600F00D
:1028900025FE75A0FFF7B4FFA0680128D2D176A06D
:1028A0000068029075A0D0E90010CDE9001002A9DF
:1028B0007448FDF7D3FE28B969467248FDF7CEFE8D
:1028C000002806D06F4800F047FE206A10B10128AA
:1028D0006ED0B4E0A1696B4800F04CFE0128694855
:1028E00014D000F03AFDA580A560656166A000F0F7
:1028F00033FEE560A56158A02661FFF781FF3846E9
:1029000000F0ECFD58A0FFF77BFF6DE000F025FD27
:10291000A580A5606561A069401CA061A06905282B
:1029200005D0A0690A2802D0A0690B2806D158A0BA
:1029300000F012FE41F2883000F0D0FDA0690F28AF
:102940007DD158A000F008FEFEF7C2FCFEF778FC2F
:102950006248007835280CD0372816D060A0266150
:1029600000F0FAFD01F032F9FEF7B2FCFEF768FC68
:1029700065E0072000F00EFD5EA000F0EDFD266290
:10298000A5614FF4C070E5600CE0052000F002FD89
:10299000062000F0FFFC57A000F0DEFD2662A561D6
:1029A0008020E56001F084F9606AFFF7F3FEDBE761
:1029B0003448FFF7ADFE8146324800F0CEFCA580DA
:1029C000A560B9F1010F09D0B9F1020F0FD0B9F12B
:1029D000000F23D0B9F1030F28D030E04BA000F056
:1029E000BBFD25622661656201F0F0F827E050A08A
:1029F00000F0B2FD25622661656200F059FC01F02D
:102A00003DF9BFF34F8F57480168574A01F4E06121
:102A100011430160BFF34F8F00BFFDE7606A00F50F
:102A200000706062404600F059FD05E0404600F04D
:102A300055FD4EA000F090FD606AFFF7ABFE0A2046
:102A400000F04CFDFCE600000000002054696D65BC
:102A5000206F75740D0A000041542B4346545053A7
:102A60004C4F474F5554000041542B43465450534C
:102A700053544F50000000004F4B00004552524F3E
:102A800052000000100100204572726F720D0A00A2
:102A900057616974696E6720726573706F6E642E1A
:102AA0000D0A0000436F6D706C65746520646F776C
:102AB0006E6C6F6164206669726D776172652E203D
:102AC00053746172742077726974696E6720746FD1
:102AD00020666C6173682E0D0A00000000800008FB
:102AE0004572726F7220657261736520666C6173E6
:102AF000680000004572617365206F6C6420666C2D
:102B000061736820646F6E650D0A00004572726F14
:102B10007220647572696E672077726974652064CB
:102B200061746120746F20666C6173682E0D0A00F9
:102B3000436F6D706C65746520777269746520747D
:102B40006F20666C6173682E2053746172742072FA
:102B5000657374617274206465766963652E0D0A0D
:102B6000000000000CED00E00400FA05526563650A
:102B700069766520756E77616E7465642072657321
:102B8000706F6E642E0D0A0041F2883403A000F0CD
:102B9000E3FC204600F0A2FCF8E700005461736BF0
:102BA00020322E330D0A000010B5502080F311881A
:102BB000BFF34F8FBFF36F8F01F07AFC18B1044958
:102BC0004FF080500860002080F3118810BD000095
:102BD00004ED00E010B592B030216846FDF70AFE22
:102BE00014210CA8FDF706FE17480024016841F0E7
:102BF00080510160006800F0805011901348016816
:102C000041F4804101600068069400F48040119016
:102C10000220009001200390102004906846FEF7E7
:102C200041FE08B172B6FEE70F20CDE90C040E9408
:102C30000F9400210CA81094FEF728FD002801D065
:102C400072B6FEE712B010BD40380240007000407E
:102C50000248016841F470010160704788ED00E0AE
:102C60000148FFF72BB90000C80000200148FFF71A
:102C700025B90000640B0020F0B50268254C264DF4
:102C8000264E274F274B4FF0804CA04209D060457D
:102C900007D0A84205D0B04203D0B84201D0984234
:102CA00004D122F0700E4A6842EA0E02A0421BD004
:102CB000604519D0A84217D0B04215D0B84213D001
:102CC000984211D0184DA8420ED0184DA8420BD0F2
:102CD000174DA84208D0174DA84205D0164DA8425E
:102CE00002D0164DA84203D122F44075CA682A4387
:102CF0004D6922F080022A4302608A68C2620A6833
:102D00008262A04201D0984201D109690163012188
:102D10004161F0BD00000140000400400008004097
:102D2000000C00400004014000400140004401400C
:102D30000048014000180040001C004000200040F6
:102D400010B5846842EA032224F47F440A432243F4
:102D5000826010BD826822F070020A4342F00701CF
:102D60008160704710B5036A046A24F001040462AC
:102D7000846924F0F00444EA021423F00A020A43AE
:102D80008461026210BD10B5036A23F01003036270
:102D90008369046A23F4704343EA023224F0A003F7
:102DA00043EA01118261016210BD000023A28AB0D2
:102DB00007CA04AB002583E8070023A1284CD1E90A
:102DC0000001CDE9070122A04FF4FA670FC88DE892
:102DD0000F0001264FF4FA7841F288392069012862
:102DE00028D104A91F48FDF739FC18B31EA000F034
:102DF000B3FB1C4800F0B1FAA58022A0FFF700FD4C
:102E0000384600F06BFB07A91648FDF727FC88B190
:102E100069461448FDF722FC60B11EA0FFF7F0FCE4
:102E2000404600F05BFB0F4800F097FAA580256252
:102E3000C4E90365484600F051FBCFE72B434D54EE
:102E4000493A2022534D2200464F544100000000D1
:102E50002B383435383233383739383900000000F0
:102E60000000002010010020436865636B696E67F5
:102E7000206E657720726563656976656420534DC1
:102E8000530D0A0041542B434D474C3D22414C4CBD
:102E90002200000041542B434D47443D312C31006A
:102EA00010B5806B0021C185C184FFF7E1F810BD2A
:102EB00001680C3151E8002F22F4907241E80023A0
:102EC000002BF5D10168143151E8002F22F00102E6
:102ED00041E80023002BF5D1016B012909D10168DC
:102EE0000C3151E8002F22F0100241E80023002BA2
:102EF000F5D1202180F83E1000210163704708B50C
:102F000090F83E10222901D0022008BD82684FF4BB
:102F100080539A4201D1016921B1816A9A421BD042
:102F20004AB10AE00268816A5268C2F308020A8064
:102F3000816A891C08E0026972B10268526802F075
:102F40007F020A70816A491C8162C18D491E090491
:102F5000090CC18503D019E002685268F1E70168E5
:102F6000CA6822F02002CA600168CA6822F480722E
:102F7000CA6001684A6922F001024A61202180F892
:102F80003E10016B012903D0FFF754FA002008BD61
:102F90000021016301680C3151E8002F22F010027A
:102FA00041E80023002BF5D101680A68D20602D55A
:102FB0000A6849680091818DFFF759F8E6E700003B
:102FC00070B5044600680169E26821F4405111437C
:102FD00001612169A068E2690843616911430843FE
:102FE0002168CA6849F20C639A430243CA602068A8
:102FF0004169A26921F4407111434161314920685E
:10300000884202D03049884202D1FEF709FC01E033
:10301000FEF7F6FBE2690023192164253226B2F59A
:10302000004F626828D0A0FB0101930F9200FDF7CA
:10303000B2F90146B0FBF5F06FF01802504301EB16
:10304000800006EB0010B0FBF5F000F0F002B1FBE1
:10305000F5F002EB0012B1FBF5F06FF018035843E6
:1030600001EB800006EB0010B0FBF5F000F00F0064
:1030700021681044886070BDA0FB010192185B417B
:10308000FDF789F90146B0FBF5F00201B1FBF5F05F
:103090006FF01803584301EB800006EBC000B0FB53
:1030A000F5F000F0F80002EB4002B1FBF5F05843F8
:1030B00001EB800006EBC000B0FBF5F000F007006C
:1030C000D6E70000001001400014014081628285B3
:1030D000C28500210164222280F83E2080F83C1045
:1030E000016921B10168CA6842F48072CA6001684E
:1030F0004A6942F001024A610068C16841F020015A
:10310000C160002070472DE9F041984617460E46F1
:103110000446069D27E0681C25D02DB1FEF7E6F990
:10312000A0EB0800A8421ED920680C3050E8001F10
:1031300021F4D07140E80012002AF5D12068143043
:1031400050E8001F21F0010140E80012002AF5D1EB
:10315000202084F83D0084F83E00002084F83C00E4
:103160000320BDE8F0812068006836EA000004D042
:103170000020B842CFD00020F3E70120F9E700009B
:103180000148FEF777BF0000AC0B00200148FEF7B6
:1031900071BF0000F00B0020FEE700002DE9F05F9A
:1031A00006464FF0000BFDF741FD10B10220BDE8CF
:1031B000F09F307A00271A4D4FF4006A30281BD157
:1031C000DFF86080092440F2FF792888325D4845A5
:1031D00008F800200BD15046696800F025F898B92E
:1031E0006868401C6860FDF759FE2F8001E0401CB4
:1031F0002880641C292CE8DB307A31280ED1504617
:10320000696800F011F808B10120D0E76868401C37
:103210006860FDF743FE2F80012028615846C6E70D
:1032200038000020610C00202DE9F04106461548C9
:103230000C46134A4188A2F5006000F061F84FF493
:10324000006211490E4800F077F84FF0006000EB83
:103250008425FEF73DF80D49F320086000240A4F4D
:1032600006E000233A5D29191846FDF7F3FF641CB8
:10327000B4EB560FF5D3FDF7E3FF0020BDE8F08176
:103280006114002038000020611C00200C3C02402A
:103290000907090E002804DB00F1E02080F8001483
:1032A000704700F00F0000F1E02080F8141D704717
:1032B00070B51148F324114D00784FF400463528BD
:1032C00011D0372817D1022000F064F8FEF700F87B
:1032D0002C603522002331461846FDF7BBFFBDE8C0
:1032E0007040FDF7ADBF022000F054F8FDF7F0FF8D
:1032F0002C603722EEE770BD008000080C3C0240D5
:1033000070B5C0B00C460646154698211AA8FDF7C0
:1033100071FA682207496846FDF73AFA00236846C1
:1033200003E0F15C415CE9545B1CA342F9DB40B073
:1033300070BD0000D847060830B500230AE0C41865
:10334000C55C647865F31F1403EBD37501EB650569
:103350009B1C2C709342F2DB30BD10B50446FDF788
:10336000B3F900210A4601E06254491C8142FBDBAB
:1033700010BD000010B50446FDF7A6F9214682B243
:10338000BDE810404FF47A730148FFF7B5B800006C
:10339000F00B002000B587B00021029001200390BF
:1033A0000591022000910490FDF792FF0549F3205A
:1033B000086005A96846FDF7F7FEFDF741FF07B075
:1033C00000BD00000C3C02402B49A2B02948086017
:1033D00062B6FEF799F8FFF7FDFBFFF705F9FFF777
:1033E00029F9FFF75BF9FFF775F924A000F0B4F8AD
:1033F000282229A16846FDF7CBF9642325226946D6
:103400002F48FFF779F801222E492D48FEF7FCFFDF
:103410002C490122491C2C48FEF7F6FF00201F9082
:1034200020901FA800F066F8264C1C222749206334
:103430000AA8FDF7ADF900210AA800F063F82349B6
:10344000A0621C221C3111A8FDF7A2F9002111A8CD
:1034500000F058F81D49E0621C22383118A8FDF729
:1034600097F9002118A800F04DF8606300F03DF8CE
:10347000FEE700000000060808ED00E04669726DF6
:10348000776172652076657273696F6E20302E32B7
:103490002E330D0A000000005374617274207265AF
:1034A000636569766520616E642070726F63657311
:1034B00073206669726D776172650D0A0000000005
:1034C000F00B002000000020AC0B00208447060811
:1034D00001460020842900D0C81C704710B500B9EF
:1034E000012000F0B3FC002010BD10B500F0FAFC84
:1034F000002010BD41684FF0010009B100F0E3BDAC
:1035000000F0D6BD7FB50D4604464169B0F908000C
:1035100081B1A16971B1FFF7DBFFD4E905128DE834
:103520000700D4E900102B46226900F088FF0390C1
:1035300004B070BDFFF7CCFF03A9CDE90001208ADC
:103540002B4682B2D4E9001000F04CFF012801D0D4
:103550000020EDE70398EBE710B50446FDF7B4F85B
:10356000214682B2BDE8104064230148FEF7C4BF83
:10357000F00B002038B500240F2911D2DFE801F04C
:1035800008080808080F080808080F080F080800AE
:1035900004A1096800916946FDF760F800B10124B3
:1035A000204638BD4F4B00002DE9FE43002407465E
:1035B00001782B48264625462B2902D1C16829B11E
:1035C000C5608046C068012803D030E00121C16099
:1035D000F7E738782B282AD0DFF888903A2811D1DD
:1035E000D8F80810404600290CDD8068C1B2484672
:1035F000FFF7D4FD08B1012404E01A48FFF7ADFE3F
:10360000C8F808504946BA5D0D2A09D0D8F80830E4
:10361000CA54D8F80820521CC8F80820761CF2E7D3
:1036200099F80800312805D00CB14046C560204605
:10363000BDE8FE830CA2022407CA8DE807000B2117
:103640006846FFF7ABFD18B10124C8F80C50ECE751
:103650000448FFF782FE4046C8F80850E6E700003D
:1036600038000020340C00203A3030303030303018
:10367000314646002DE9F041184C0F460546E668F4
:103680002068001D00F01AFB38B9206890F82C1053
:1036900001208840216981432161681C07D137B12D
:1036A0002168BDE8F0410E48091D00F04BBB2068C1
:1036B0003544B5424560216805D2A06BBDE8F041B4
:1036C000091D00F027BB606B091D00F023FBA06AF9
:1036D000854200D2A562BDE8F08100005C000020B8
:1036E000602100202DE9F041054600F037FB2E4C0B
:1036F000A068401CA06020682C4F10B1606940B3E6
:103700002DE02560A068012829D1002606EB86005F
:1037100007EB800000F0F0FA761C072EF6D3234862
:103720008C3000F0E9FA2148A03000F0E5FA1F489B
:10373000B43000F0E1FA1D48C83000F0DDFA1B4853
:10374000DC3000F0D9FA19488C3060631430A06383
:1037500005E02068E96AC06A884200D82560606A8E
:10376000401C6062E96A01202269884010432061A0
:1037700001EB810007EB8000291D00F0E3FA00F067
:103780000DFB606900280CD02068E96AC06A884295
:1037900007D207494FF080500860BFF34F8FBFF347
:1037A0006F8FBDE8F08100005C00002084200020C5
:1037B00004ED00E02DE9F041856B17460446002634
:1037C000026C82B1C7B1E068FCF79DFFE168206C34
:1037D000091AE1602268914202D2A168081AE060E9
:1037E000022F16D017E02068A8B9A06800F0C6FE26
:1037F00006460020A0600EE06068FCF784FF216CA4
:10380000606808446060A168884204D320686060F2
:1038100001E005B16D1E6D1CA5633046BDE8F08169
:1038200010B5044690F8510058B101280CD0022878
:103830000FD0502080F31188BFF34F8FBFF36F8FED
:10384000FEE7206B00F0BEFA2046BDE8104000F015
:10385000B9BA10BD10484FF47051420706D0C01DD0
:103860000D4920F00700411AC1F570510B4A0023A1
:103870000144C2E900030839183A21F00701116038
:103880004B600B600B1AC0E9001393604FF00040CF
:10389000536050617047000074210020B000002088
:1038A000144E154CA6F1C8074FF08058DFF84C9025
:1038B00012E000BF00F052FAF068C568281D00F061
:1038C000FDF9A068401EA0606068401E606000F0C6
:1038D00065FA2846FFF7A4FF60680028EAD1386837
:1038E0000128F9D9C9F80080BFF34F8FBFF36F8F5C
:1038F000F2E700004C2100205C00002004ED00E015
:10390000002807D00021816001600B460A46C16093
:1039100000F07EBC70470346009829B10260C0E900
:103920000F31012100F030BC0060F8E72DE9F047CD
:103930009A46DDE9098481466FF00303206B03EBAF
:1039400082021044089E20F00707780707D0502015
:1039500080F31188BFF34F8FBFF36F8FFEE7002511
:1039600061B1002023180A5C83F834200A5C12B18C
:10397000401C1028F6D384F8435001E084F83450FA
:10398000072E00D30626E662C4E91165201D00F06B
:10399000BEF904F1180000F0BAF92461C6F107007D
:1039A0006462A061E56484F8505052464946384646
:1039B00000F0F6F82060B8F1000F01D0C8F8004020
:1039C000BDE8F08730B5114900E011460A6882422F
:1039D000FBD34B685C18844203D1406818444860AC
:1039E000084643681C18944209D1084C183C2468C6
:1039F000A24209D052681A4442600A681268026002
:103A0000814200D0086030BD0460F9E7B0000020BA
:103A10000648416B096829B1416BC968C9684968A2
:103A2000816270474FF0FF31FAE700005C00002030
:103A300008484068401C4FF0500080F3118804D0C3
:103A4000BFF34F8FBFF36F8FFEE7BFF34F8FBFF30F
:103A50006F8FFEE7B80000202DE9F041044600F02A
:103A60007DF994F9455004F1240609E0606A48B1F3
:103A7000304600F0CFFD08B100F016FA6D1E6DB2B1
:103A8000002DF3DC4FF0FF3684F8456000F086F936
:103A900000F064F994F9445004F1100709E020693A
:103AA00048B1384600F0B6FD08B100F0FDF96D1ED2
:103AB0006DB2002DF3DC84F84460BDE8F04100F005
:103AC0006DB900002DE9F0410546002700F040FAED
:103AD000324E306808B9FFF7BDFE706905424ED11D
:103AE000C5B3083568070ED005F00700C0F108001F
:103AF0000544680707D0502080F31188BFF34F8F2B
:103B0000BFF36F8FFEE72DB37068854237D8234827
:103B1000183001460C6801E020460C466168A94255
:103B200002D221680029F7D131688C4227D007687A
:103B30002168016060680837411B10290FD960199E
:103B4000420708D0502080F31188BFF34F8FBFF396
:103B50006F8FFEE713E041606560FFF733FF616838
:103B60007068401A7060B268904200D2B0607069AC
:103B700001430020C4E90001F068401CF06000F03F
:103B800083FD780707D0502080F31188BFF34F8F53
:103B9000BFF36F8FFEE73846BDE8F0819800002044
:103BA00010B5031F4FF080741C601B1F21F0010132
:103BB0001960191F044B0B6014390A60091F6FF05C
:103BC000020244380A6010BD313A060801A000F034
:103BD0000DB800004669726D77617265207570647A
:103BE00061746564206661696C65640030B5044683
:103BF000B3B014A0FEF704FE6846FFF7AEFB14A2B4
:103C000017A16846FCF73EFC6846FCF75DFD82B2F2
:103C10004FF47A752B4669461548FEF76DFC6846E9
:103C2000FFF79BFB224613A16846FCF72BFC684676
:103C3000FCF74AFD82B22B4669460D48FEF75CFC54
:103C400033B030BD41542B434D47463D3100000059
:103C50002B383435383233383739383900000000E2
:103C600041542B434D47533D222573220D0A00003A
:103C7000AC0B002025730D0A1A00000001A0FFF70D
:103C8000B5BF00004669726D77617265207570641A
:103C900061746564207375636365737366756C6CBA
:103CA000790000000148FFF7A1BF00008048060826
:103CB000014948607047000038000020D0E9013217
:103CC00001699A60D0E901235A604A68824201D1B1
:103CD00082684A60002202610868401E0860086825
:103CE00070470000034B036003F15400086080201C
:103CF000106070471009002000F108014FF0FF32FA
:103D0000C0E90112C160016100210160704700211A
:103D10000161704730B50B685A1C02D000F10802EF
:103D200002E0026904E02246546825689D42FAD9FF
:103D300053684B6099608A60516008610168491C52
:103D4000016030BD42684A6093688B609368596037
:103D5000916008610168491C01607047502080F340
:103D60001188BFF34F8FBFF36F8F0A494868401C1B
:103D7000486001280CD10848006810F0FF0F07D0F8
:103D8000502080F31188BFF34F8FBFF36F8FFEE792
:103D900070470000B800002004ED00E008494868C2
:103DA00028B1401E486001D180F31188704750202F
:103DB00080F31188BFF34F8FBFF36F8FFEE70000D2
:103DC000B800002070B500282AD0164DA0F10804D4
:103DD00060686969084207D1502080F31188BFF3F9
:103DE0004F8FBFF36F8FFEE722683AB1502080F308
:103DF0001188BFF34F8FBFF36F8FFEE7884360607A
:103E000000F0A6F860686968084468602046FFF71B
:103E1000D9FD2869401C2861BDE8704000F034BC21
:103E200070BD0000980000204FF0E02000210161EB
:103E3000816105494FF47A720968B1FBF2F1491EBC
:103E400041610721016170475800002010B5020050
:103E500014D00F48006B38B1502080F31188BFF3A5
:103E60004F8FBFF36F8FFEE700F072F8002110460E
:103E7000FFF700FC00F008FC002807D105494FF0CF
:103E800080500860BFF34F8FBFF36F8F10BD0000ED
:103E90005C00002004ED00E002490A6A0260C96883
:103EA000416070475C00002001490120C8617047F3
:103EB0005C00002010B50C4650B109490968183162
:103EC000FFF728FF2046BDE810400121FFF7D2BBD5
:103ED000502080F31188BFF34F8FBFF36F8FFEE741
:103EE0005C00002010B586B00024039405AA04A944
:103EF00003A80494FFF7F6FEDDE903010094CDE981
:103F0000011000230EA11048059A00F098FA0F49FD
:103F10000028C86211D0502080F31188BFF34F8F62
:103F2000BFF36F8F4FF0FF30886201204861CC6093
:103F300006B0BDE8104000F041B806B010BD00006A
:103F400049444C4500000000A13806085C000020F0
:103F50000248016B491C0163704700005C000020AF
:103F60001448016B11B10121C16170470021C16189
:103F70000169B1FA81F1C1F11F0101EB81020E4922
:103F800051F822306BB101EB820101F108034A685C
:103F900052684A609A4201D152684A60D168016011
:103FA0007047502080F31188BFF34F8FBFF36F8F9E
:103FB000FEE700005C000020842000201CB537488C
:103FC0000168374A914207D1502080F31188BFF32E
:103FD0004F8FBFF36F8FFEE700683149491E88425B
:103FE00007D1502080F31188BFF34F8FBFF36F8F3D
:103FF000FEE72C4908780190FF20087008788DF8BA
:1040000000009DF800009DF8002000F0F0009042B4
:1040100007D0502080F31188BFF34F8FBFF36F8F0D
:10402000FEE79DF80000204C00F0500020700720B3
:10403000A06005E09DF8002052008DF80020401E91
:104040009DF800201206F5D4A060032807D0502068
:1040500080F31188BFF34F8FBFF36F8FFEE74FF4EC
:104060004070A060019808700C482030016841F44D
:1040700070010160016841F070410160FFF7D4FEFA
:1040800000206060FCF704F90848016841F04041F5
:104090000160FCF7E9F800201CBD000000ED00E025
:1040A00071C20F4100E400E0B800002034EF00E0EE
:1040B00010B502460021012000F012F80446FFF777
:1040C0001FFC204610BD38B50B460022009011465B
:1040D000012000F026F80446FFF712FC204638BD08
:1040E000F8B517460E46050013D005FB06F048301C
:1040F000FFF7E8FC04000AD0002084F8460004F131
:1041000048023B46314628460094FFF704FC20460F
:10411000F8BD502080F31188BFF34F8FBFF36F8F2E
:10412000FEE738B5049D18B153B1CAB181B120E0A2
:10413000502080F31188BFF34F8FBFF36F8FFEE7DE
:10414000502080F31188BFF34F8FBFF36F8FFEE7CE
:10415000502080F31188BFF34F8FBFF36F8FFEE7BE
:1041600039B1502080F31188BFF34F8FBFF36F8FA9
:10417000FEE748241C46012384F846302B46009471
:10418000FFF7C9FB204638BD70B50D46040025D0A9
:10419000FFF7E4FDD4E90F20216802FB0011A160C4
:1041A0000021A163216861600A46D4E90F01401E25
:1041B00000FB0121E16021464FF0FF3001F8440F80
:1041C000487004F110008DB1FFF796FD04F1240052
:1041D000FFF792FDFFF7E2FD012070BD502080F354
:1041E0001188BFF34F8FBFF36F8FFEE7216900295E
:1041F000F0D000F00FFA0028ECD004494FF08050C6
:104200000860BFF34F8FBFF36F8FE3E704ED00E06B
:104210002DE9FF4782B01D468A464FF00008040092
:1042200003D0BAF1000F08D011E0502080F31188BC
:10423000BFF34F8FBFF36F8FFEE7206C38B1502074
:1042400080F31188BFF34F8FBFF36F8FFEE7022D0E
:104250000AD1E06B012807D0502080F31188BFF30A
:104260004F8FBFF36F8FFEE700F014F93F4F4FF011
:1042700000094FF0805648B9049838B1502080F3B7
:104280001188BFF34F8FBFF36F8FFEE7FFF766FD17
:10429000A06BE16B884207D3022D05D00498D0B102
:1042A000B8F1000F1AD01EE02A4651462046FFF70B
:1042B00081FA616A19B104F1240000F0ABF920B170
:1042C0003E60BFF34F8FBFF36F8FFFF767FD012095
:1042D00006B0BDE8F087FFF761FD22E06846FFF712
:1042E000DBFD4FF00108FFF759FDFFF731FEFFF747
:1042F00035FD94F94400401C01D184F8449094F9B0
:104300004500401C01D184F84590FFF747FD04A902
:10431000684600F02DF830B12046FFF79DFB00F015
:10432000B3F90020D4E7FFF719FDA06BE16B8842D9
:1043300013D1FFF733FD04F110000499FFF7BAFD24
:104340002046FFF789FB00F09FF900289ED13E60D0
:10435000BFF34F8FBFF36F8F98E7FFF71FFD204626
:10436000FFF77AFB00F090F990E7000004ED00E021
:104370002DE9F0410C46050011D0C4B1FFF7EEFC69
:10438000174BDA686E682068911B471C17D02F689E
:104390001B6A9F4219D0964217D8012410E0502082
:1043A00080F31188BFF34F8FBFF36F8FFEE750206C
:1043B00080F31188BFF34F8FBFF36F8FFEE70024A8
:1043C000FFF7ECFC2046BDE8F081884205D9401A91
:1043D00020602846FFF760FDF1E700202060DCE761
:1043E0005C0000202DE9FF5F8346DDE90E879946DA
:1043F00016468A469000FFF765FB05001CD0542046
:10440000FFF760FB040014D00020256384F85100FE
:10441000CDE90240CDE900874B4632465146584629
:10442000FFF784FA2046FFF75DF9012004B0BDE8EC
:10443000F09F2846FFF7C6FC4FF0FF30F6E7F0B5D7
:1044400085B0DDE90B640A9DA6B1DCB15427009765
:104450002663022684F85160002604AFCDE90246A7
:10446000CDE90057FFF762FA2046FFF73BF90498C1
:1044700005B0F0BD502080F31188BFF34F8FBFF31C
:104480006F8FFEE7502080F31188BFF34F8FBFF38B
:104490006F8FFEE70548416919B1006B18B1002024
:1044A0007047012070470220704700005C00002028
:1044B0002DE9F0412F4C0026206B28B1A069401C4B
:1044C000A0613046BDE8F081E5686D1CE56013D160
:1044D000606B006838B1502080F31188BFF34F8FB4
:1044E000BFF36F8FFEE7606BA16B6163A063206A0F
:1044F000401C2062FFF78CFAA06ADFF87C808542BE
:1045000009D3606B0068A0B1606BC068C768786849
:10451000854211D2A0622068C06A00EB800158F881
:104520002100012800D90126E0690028C9D0012610
:10453000C7E74FF0FF30EDE7381DFFF7BFFBB86A64
:1045400018B107F11800FFF7B9FBF96A01202269D9
:1045500088401043206101EB810108EB8100391D87
:10456000FFF7F0FBF86A2168C96A8842C9D30126BF
:10457000C7E700005C0000208420002070B5040024
:104580004FF0000140D0214D2868844207D05020D0
:1045900080F31188BFF34F8FBFF36F8FFEE7A06CDE
:1045A00038B1401EA064636CE26A9A422CD040B1DC
:1045B0002AE0502080F31188BFF34F8FBFF36F8F35
:1045C000FEE7201DFFF77AFB114A012150B9E06A8E
:1045D00000EB800352F8233023B92B6901FA00F075
:1045E00083432B61606CE062C0F10700A061E06A68
:1045F0002B6981401943296100EB800002EB8000A8
:10460000211DFFF79FFB0121084670BD5C000020C3
:10461000842000202DE9F041C068C468ACB104F1E9
:1046200018000746FFF74AFB154D286B0126A0B17D
:1046300039461448FFF786FBE06A2968C96A884250
:104640001CD90120EE61BDE8F081502080F3118873
:10465000BFF34F8FBFF36F8FFEE7201DFFF72EFBD9
:10466000E16A2A6906FA01F01043286101EB810032
:104670000449B43901EB8000211DDBE70020E2E7AB
:104680005C000020382100202DE9F0472C4D00244B
:104690002746286B38B1FFF761FB286B401E286363
:1046A000286B40B146E0502080F31188BFF34F8F54
:1046B000BFF36F8FFEE7A968224E0120D1B3A6F1A8
:1046C000B40980463068E8B1F068C46804F11800A5
:1046D000FFF7F4FA201DFFF7F1FAE06A2A6908FAF9
:1046E00000F11143296100EB800109EB8100211DDC
:1046F000FFF728FBE06A2968C96A8842E2D3C5F857
:104700001C80DFE70CB1FFF783F9AC6944B1464682
:10471000FFF7CEFE00B1EE61641EF9D10020A86162
:10472000E86938B10849012738070860BFF34F8F9F
:10473000BFF36F8FFFF732FB3846BDE8F08700000C
:104740005C0000203821002004ED00E010B50029B5
:104750000AD00878002807D005487844FCF7E4F927
:10476000002801D0002010BD0248784410BD000090
:10477000AA010000A20100004FF04070E1EE100A13
:104780007047000074480608312806080000000041
:104790000000000080000000000000000000000099
:1047A00058480608892B0608FDFF0000000000009D
:1047B00080000000000000000000000064480608BF
:1047C000AD2D0608FDFF0000000000008000000085
:1047D00000000000000000000000000000000000D9
:1047E00000000000000000000000000000000000C9
:1047F00000000000000000000000000000000000B9
:10480000000000000000000000010203040506078C
:104810000809000000000000000A0B0C0D0E0F003C
:104820000000000000000000000000000000000088
:104830000000000000000000000A0B0C0D0E0F002D
:104840000000000000000000010203040607080940
:1048500000000000010203046D795461736B303273
:10486000000000007461736B436865636B534D53C4
:104870000000000064656661756C745461736B00C0
:10488000546865726520697320616E20756E72656B
:10489000676973746564207573657220747279201A
:1048A000676976696E6720636F6D6D616E642074F1
:1048B0006F20796F75722073797374656D2E205037
:1048C0006C656173652072656769737465642069DE
:1048D000662069742069732061206E657720757386
:1048E00065720000144A060800000020C80000009D
:1048F000C4010608DC4A0608C80000201063000056
:10490000E00106081001000043000000F8FFFFFF6F
:1049100000404040404040404040414141414140D2
:104920004040404040404040404040404040404087
:104930004005020202020202020202020202020216
:10494000022020202020202020202002020202021B
:104950000202909090909090101010101010101073
:10496000101010101010101010101010020202027F
:1049700002028888888888880808080808080808C3
:1049800008080808080808080808080802020202BF
:1049900040000000000000000000000000000000D7
:1049A0000000000000000000000000000000000007
:1049B00000000000000000000000000000000000F7
:1049C00000000000000000000000000000000000E7
:1049D00000000000000000000000000000000000D7
:1049E00000000000000000000000000000000000C7
:1049F00000000000000000000000000000000000B7
:104A000000000000000000000000000000000000A6
:104A10000000000000000000000000000000000096
:104A20000000000001000000000000000000000085
:104A30000000000000000000000000000000000076
:104A4000000000000000000000000000000000085E
:104A50000000000000000000000000000000000056
:104A60000100000010000000000000000024F4001D
:104A70000000000000000000000000000000000036
:104A80000000000000000000000000000000000026
:104A90000000000000000000000000000000000016
:104AA0000000000000000000000000000000000006
:104AB00000000000000000000000000000000000F6
:104AC00000000000000000000000000000000000E6
:0C4AD000AAAAAAAA000000000000000032
:04000005080601895F
:00000001FF
