:020000040802F0
:10000000B8460020E902020801160208FD150208A0
:10001000FF150208CB050208C51A020800000000FF
:10002000000000000000000000000000290202089B
:10003000CD050208000000008502020889160208AA
:100040000303020803030208030302080303020870
:100050000303020803030208030302080303020860
:100060000303020803030208030302080303020850
:100070000303020803030208030302080303020840
:100080000303020803030208030302080303020830
:100090000303020803030208030302080303020820
:1000A0000303020803030208030302080303020810
:1000B00003030208030302084117020803030208AE
:1000C00003030208030302080303020803030208F0
:1000D00003030208030302080303020803030208E0
:1000E00003030208030302080303020803030208D0
:1000F00003030208030302080303020803030208C0
:1001000003030208030302080303020803030208AF
:10011000030302080303020803030208030302089F
:10012000030302080303020803030208030302088F
:10013000030302080303020803030208030302087F
:10014000030302080303020803030208030302086F
:10015000030302080303020803030208B91A020892
:10016000030302080303020803030208030302084F
:10017000030302080303020803030208000000004F
:10018000030302080303020800F002F800F03CF841
:100190000AA090E8000C82448344AAF10107DA45E2
:1001A00001D100F031F8AFF2090EBAE80F0013F0F8
:1001B000010F18BFFB1A43F001031847C42A0000BF
:1001C000E42A0000103A24BF78C878C1FAD8520750
:1001D00024BF30C830C144BF04680C6070470000C1
:1001E0000023002400250026103A28BF78C1FBD840
:1001F000520728BF30C148BF0B6070471FB502F0DF
:1002000005FD1FBD10B510BD00F0A6F91146FFF7A2
:10021000F5FF01F069FC00F0C4F903B4FFF7F2FF49
:1002200003BC00F0CBF900002C4B19680868B0E85B
:10023000F04F80F30988BFF36F8F4FF0000080F319
:10024000118870470000000008480068006880F3CB
:1002500008884FF0000080F3148862B661B6BFF3DF
:100260004F8FBFF36F8F00DF00BF00BF08ED00E0CE
:10027000DFF80C00016841F470010160704700BFB5
:1002800088ED00E0EFF30980BFF36F8F134B1A681E
:100290001EF0100F08BF20ED108A20E9F04F10600B
:1002A00009B44FF0500080F31188BFF34F8FBFF3B4
:1002B0006F8F02F0B5F84FF0000080F3118809BC91
:1002C00019680868B0E8F04F1EF0100F08BFB0ECD6
:1002D000108A80F30988BFF36F8F70471C000020DD
:1002E000EFF3058070470000094880470948004740
:1002F000FEE7FEE7FEE7FEE7FEE7FEE7FEE7FEE7D6
:10030000FEE7FEE704480549054A064B7047000032
:100310003117020889010208B8400020B8460020C1
:10032000B8420020B842002053EA020C00F0698075
:100330002DE9F04B4FF00006002B1FBFB3FA83F5F9
:1003400003FA05F424FA05F65E4012BF1643B2FA2A
:1003500082F502FA05F4C5F120051EBF22FA05FC5C
:1003600044EA0C04203556EA044C4FEA144418BF02
:10037000641C4FF000084FF00009904271EB030C31
:1003800039D3002919BFB1FA81F701FA07F6B0FA9B
:1003900080F700FA07F6C7F120071EBF20FA07FC16
:1003A00046EA0C062037B6FBF4FCA7EB0507103F26
:1003B00007F01F0BCBF120060CFA0BFB2CFA06F60C
:1003C00044BFB3460026202FA4BF5E464FF0000B6B
:1003D0005BEA060C08BF4FF0010B19EB0B09ABFBF6
:1003E000027C48EB0608C01B06FB02CC0BFB03CCCF
:1003F00071EB0C01C1E70B46024641464846BDE899
:10040000F08B13B54FF000004FF00001AFF3008008
:10041000BDE81C407047032A40F2308010F0030C06
:1004200000F0158011F8013BBCF1020F624498BF47
:1004300011F801CB00F8013B38BF11F8013BA2F1E4
:10044000040298BF00F801CB38BF00F8013B11F05F
:10045000030300F02580083AC0F0088051F8043BFF
:10046000083A51F804CBA0E80810F5E7121D5CBF6C
:1004700051F8043B40F8043BAFF30080D20724BF9F
:1004800011F8013B11F801CB48BF11F8012B24BF33
:1004900000F8013B00F801CB48BF00F8012B704782
:1004A00010B5203AC0F00B80B1E81850203AA0E80F
:1004B0001850B1E81850A0E81850BFF4F5AF5FEA43
:1004C000027C24BFB1E81850A0E8185044BF18C9F6
:1004D00018C0BDE810405FEA827C24BF51F8043B9D
:1004E00040F8043B08BF7047D20728BF31F8023BF1
:1004F00048BF11F8012B28BF20F8023B48BF00F885
:10050000012B70474FF0000200B513469446964603
:10051000203922BFA0E80C50A0E80C50B1F1200116
:10052000BFF4F7AF090728BFA0E80C5048BF0CC0C4
:100530005DF804EB890028BF40F8042B08BF704722
:1005400048BF20F8022B11F0804F18BF00F8012B94
:100550007047704770477047754600F02BF8AE46FD
:1005600005006946534620F00700854618B020B5BF
:10057000FFF7C8FEBDE820404FF000064FF000072F
:100580004FF000084FF0000B21F00701AC46ACE83B
:10059000C009ACE8C009ACE8C009ACE8C0098D46A8
:1005A000704710B50446AFF300802046BDE8104008
:1005B000FFF733BE0048704754400020014918201F
:1005C000ABBEFEE7260002007047FEE770472DE94C
:1005D000F0410446876D00F04DF9064694F8350069
:1005E0000025022806D08020606584F83450012060
:1005F000BDE8F0812068016821F0160101602068E3
:10060000416921F080014161206C08B9A06C20B1E2
:100610002068016821F0080101602068016821F06C
:10062000010101600CE000F025F9801B052807D9C5
:1006300020206065032084F8350084F83450D7E723
:1006400020680068C007EED194F85C103F20884015
:10065000B860012084F8350084F834500020C7E7E2
:1006600090F83510022903D08021416501207047A0
:10067000052180F835100068016821F00101016052
:10068000002070472DE9F84FDFF8BCA100220125BA
:1006900003264FF00F090AF1040BAAF1040E00BF64
:1006A0000B6805FA02F42340A34270D10F7907F0DA
:1006B0000307012F01D0022F16D187684FEA4208A5
:1006C00006FA08FC27EA0C07D1F80CC00CFA08FC63
:1006D0004CEA070CC0F808C04768A7430C79C4F37C
:1006E000001494403C4344600C79E443A4070AD0CE
:1006F000C4684FEA420C06FA0CF7BC438F6807FA4D
:100700000CF72743C7600C7904F00304022C12D1C4
:10071000D40800EB840CDCF820405707FF0E09FAE0
:1007200007F824EA0804D1F8108008FA07F848EA24
:100730000408CCF8208004684FEA420C06FA0CF753
:10074000BC430F7907F0030707FA0CF7274307604C
:100750004C6814F4403F70D03C4C276847F4804705
:100760002760246822F0030704F480440094384C86
:1007700007EB040CDCF8084897074FEA177809FAEA
:1007800008F7BC43334FB84202D1002724E054E0BD
:10079000314FB84201D101271EE0304FB84201D19C
:1007A000022719E02E4FB84201D1032714E02D4F44
:1007B000B84201D104270FE02B4FB84201D10527E1
:1007C0000AE02A4FB84201D1062705E0284FB84277
:1007D00001D1072700E0082707FA08F72743CCF8DC
:1007E0000878DAF800405746D1F804C09C435FEA25
:1007F000CC2C00D51C433C60DBF800405F46D1F8B0
:1008000004C09C435FEA8C2C00D51C433C60DEF89E
:1008100000407746D1F804C09C435FEA8C3C00D589
:100820001C433C60084F083F3C68D1F804C09C431F
:100830005FEACC3C00D51C433C60521C102AFFF4FC
:100840002FAFBDE8F88F0000083C0140443802405B
:100850000030014000000240000402400008024055
:10086000000C024000100240001402400018024038
:10087000001C024001488068704700000C00002006
:100880000248816802781144816070470C000020A2
:100890000B4810B5016841F400710160016841F432
:1008A00080610160016841F480710160032000F003
:1008B0009FF80F2000F006F800F050F8002010BD5F
:1008C000003C024030B505461F4887B0002401684F
:1008D00041F004010160006806A900F004000090E6
:1008E00001A800F031F90498A8B100F04DF94000DA
:1008F0001649174AB0FBF1F11648491E026040F252
:10090000E732C0E90324C0E90114846100F046FB2A
:10091000040003D015E000F037F9E9E70D4800F0D6
:100920006BFB04000DD11E2000F034F8102D07D20F
:10093000002229461E2000F03BF80748056000E031
:10094000012407B0204630BD4038024040420F002D
:10095000000800401C030020100000200C4882B05A
:10096000016841F480410160006800F4804000901B
:100970000748001F016841F08051016000680022B3
:1009800000F0805000900F21901E02B000F010B8CF
:1009900044380240002809DB00F01F020121914089
:1009A0004009800000F1E020C0F80011704700000D
:1009B000F0B40E4B1B680C46C3F30223C3F10705CA
:1009C000042D00D90425191D072901D2002300E0B8
:1009D000DB1E012606FA05F1491E214099409E4082
:1009E000761E16403143F0BC01F06DB80CED00E00E
:1009F000064900F0070208684FF6FF03184040EA76
:100A00000220034A10430860704700000CED00E02C
:100A10000000FA052DE9F0470E46050065D0DFF825
:100A20001481D8F80000F7B200F00700B04207D2F6
:100A300088F80070D8F8000000F00700B04254D1E8
:100A400028683D4C810712D5400703D5206840F443
:100A5000E05020602878000703D5206840F460400B
:100A600020602068A96820F0F00008432060287802
:100A7000C0072DD0304968680839012812D00228F3
:100A800013D0032811D00968890700292DDA2168BD
:100A900021F0030101432160FFF7ECFE814641F2A2
:100AA000883A0EE009688903EFE709688901ECE7F5
:100AB000FFF7E0FEA0EB0901514502D90320BDE894
:100AC000F0872068696800F00C00B0EB810FEFD16F
:100AD000D8F80010404601F00701B14207D907706D
:100AE000006800F00700B04201D00120E7E7287855
:100AF000400705D52068E96820F4E05008432060ED
:100B00002878000706D52068296920F4604040EA6B
:100B1000C100206000F058F82168084AC1F30311B1
:100B2000515CC8400649086006480068FFF7CAFEE5
:100B30000020C4E7003C024008380240502C020864
:100B400018000020100000200F2202600C4A1368D9
:100B500003F003034360136803F0F003836013683A
:100B600003F4E053C36012684FF4E05303EAD20287
:100B700002610448006800F0070008607047000048
:100B800008380240003C02400448054900680968F2
:100B9000044AC1F38221515CC8407047180000200C
:100BA00008380240602C02080448054900680968BA
:100BB000044AC1F34231515CC8407047180000201C
:100BC00008380240602C0208154810B5006810F083
:100BD0000C02144813D01449042A0FD0082A0ED14D
:100BE0000F4C241F2268236802F03F025B0207D5E6
:100BF0002068C0F38810A0FB010106E0084610BD84
:100C00002168C1F38811A1FB00010023FFF78CFBD1
:100C10002168C1F30141491C4900B0FBF1F010BD4E
:100C2000083802400024F40040787D012DE9F84F97
:100C300004006ED02078DFF84C93C007A9F10405BA
:100C40004AD009F104000168C1F38101012908D0EB
:100C50000068C0F3810002280AD1D9F800004002E0
:100C600006D52868800337D560680028E1D033E0D6
:100C70006068B0F5803F10D0B0F5A02F286810D084
:100C800020F480302860286820F480202860606884
:100C9000A8B1FFF7EFFD06460DE0286840F480306C
:100CA000F4E740F480202860F7E700BFFFF7E2FD9B
:100CB000801B642873D828688003F7D50CE0FFF701
:100CC000D9FD064605E000BFFFF7D4FD801B642870
:100CD000F0D828688003F7D42078DFF8AC8280074A
:100CE0004FF0000A3ED5A748001D016811F00C0F17
:100CF00008D00068C0F3810002280BD1D9F80000A9
:100D0000400207D42868800716D5E068012800D182
:100D100012E033E1E068B8B10120C8F80000FFF745
:100D2000A9FD064605E000BFFFF7A4FD801B0228D1
:100D3000C0D828688007F7D52868216920F0F80016
:100D400040EAC10028600DE0C8F800A0FFF792FD5E
:100D5000064604E0FFF78EFD801B02281FD8286896
:100D60008007F7D42078000722D5864F874861692D
:100D7000703771B101210160FFF77CFD064604E088
:100D8000FFF778FD801B022809D838688007F7D55F
:100D90000EE0C0F800A0FFF76DFD064605E082E01A
:100DA000FFF768FD801B02287DD838688007F7D4DC
:100DB0002078400768D5DFF8CCB100270BF13C0B59
:100DC000DBF80000C0000BD4DBF8001041F08051CC
:100DD000CBF80010DBF80000012700F080500090F5
:100DE0006B4E3068C00510D4306840F480703060BD
:100DF000FFF740FD009005E0FFF73CFD0099401A29
:100E0000022850D83068C005F6D55E4EA0686C3612
:100E100001280FD00528306810D020F00100306084
:100E2000306820F004003060A068B8B1FFF722FD00
:100E300000900FE0306840F00100F4E740F004005B
:100E40003060F7E7FFF716FD0099411A41F288304C
:100E5000814266D830688007F4D50EE0FFF70AFDBE
:100E6000009007E0FFF706FD0099411A41F2883033
:100E7000814256D830688007F4D42FB1DBF80010D7
:100E800021F08051CBF80010A069C8B33D49091D7D
:100E90000968C1F3810102294AD00228504607D0CF
:100EA000C8F8600000E03CE0FFF7E4FC04463BE0EB
:100EB0004746C8F86000FFF7DDFC064605E000BFC6
:100EC000FFF7D8FC801B02282BD828688001F7D4B4
:100ED000D4E907010843A16A2E4A490802EB0141FF
:100EE000626A41EA8211084394F82C1040EA0161D9
:100EF000C9F8001001203866FFF7BCFC044606E084
:100F00003EE000BFFFF7B6FC001B022809D82868A6
:100F10008001F7D534E000BFFFF7ACFC001B0228CE
:100F200002D90320BDE8F88F28688001F4D427E0B7
:100F30000128F7D0D9F80000E26900F4800191425D
:100F40001CD1226A00F03F01914217D147F6C071CF
:100F5000626A0140B1EB821F10D1A26A4FF0FF33E9
:100F600000F4403103EB5202B1EB024F06D194F88A
:100F70002C1000F07060B0EB016F01D00120D1E7C0
:100F80000020CFE70438024000004742800E47426D
:100F9000007000400000FFFF7047704710B504006C
:100FA00003D094F83D0010B107E0012010BD0020EF
:100FB00084F83C00204600F01EF8022084F83D0032
:100FC000211D206800F0C2FB012084F8460084F84F
:100FD0003E0084F83F0084F8400084F8410084F823
:100FE000420084F8430084F8440084F8450084F803
:100FF0003D00002010BD704790F83D10012901D040
:1010000001207047022180F83D100168CA6842F053
:101010000102CA6000681149884214D0B0F1804FC3
:1010200011D00F4988420ED00E4988420BD00E498C
:10103000884208D00D49884205D00D49884202D027
:101040000C49884204D1816801F00701062903D0C8
:10105000016841F00101016000207047000001407B
:101060000004004000080040000C00400004014063
:101070000040014000180040704770B50446006809
:1010800001694FF00005C943890715D4C168C943F8
:10109000890711D4E91E0161012020772068806949
:1010A0008007204602D0FFF7E7FF04E000F098F841
:1010B000204600F096F8257720680169C943490762
:1010C00017D4C168C943490713D46FF00401016103
:1010D000022020772068806910F4407F204602D0EB
:1010E000FFF7CAFF04E000F07BF8204600F079F833
:1010F000257720680169C943090716D4C168C94327
:10110000090712D46FF008010161042020772068DC
:10111000C0698007204602D0FFF7AEFF04E000F070
:101120005FF8204600F05DF8257720680169C94323
:10113000C90617D4C168C943C90613D46FF010019A
:101140000161082020772068C06910F4407F2046A4
:1011500002D0FFF791FF04E000F042F8204600F0D3
:1011600040F8257720680169C943C90708D1C168DB
:10117000C943C90704D1891E0161204600F032F835
:1011800020680169C943090609D4C168C943090631
:1011900005D46FF0800101612046FFF7FDFE206855
:1011A0000169C943490609D4C168C943490605D440
:1011B0006FF040010161204600F01EF820680169CF
:1011C000C94389060BD4C168C943890607D46FF0A7
:1011D000200101612046BDE87040FFF7DEBE70BD12
:1011E0007047704700680349884201D1FFF748BB48
:1011F00070470000000800407047704770470000CB
:10120000F8B5016804460868CA684B6910F00F0F0A
:101210004FF0000559D003F0010602F490773743F0
:1012200065D0C10705D0D10503D5216C41F001017E
:101230002164410705D5D90703D0216C41F0020193
:101240002164810705D5D90703D0216C41F0040141
:101250002164010707D502F02001314303D0216C3E
:1012600041F008012164216C00293AD0800604D5A0
:10127000900602D5204600F0FCFA20684069216CF7
:10128000C0F38010090700D460B3204600F0CAFA0A
:1012900020684069400621D52068143050E8001FBE
:1012A00021F0400140E80012002AF5D1A06BA8B15E
:1012B0006C490165A06BFFF7D3F9002811D0A06B32
:1012C000016D01B0BDE8F040084783060FD59306D5
:1012D0000DD52046BDE8F84000F0CBBA2046FFF718
:1012E0008DFFF8BD2046FFF789FF2564F8BD266B0A
:1012F0002023012E79D1C60677D5D60675D5086884
:10130000486800904869400640D5A16B086840686D
:101310000004000CEAD0A28D8242E7D9E085C869BA
:10132000B0F5807F2DD020680C3050E8001F21F4EC
:10133000807140E80012002AF5D12068143050E88E
:10134000001F21F0010140E80012002AF5D12068B9
:10135000143050E8001F21F0400140E80012002A3C
:10136000F5D184F83E30256320680C3050E8001F2A
:1013700021F0100140E80012002AF5D1A06BFFF720
:1013800026F9A08DE18D401A81B229E0A08DE18D72
:10139000401A81B2E08D0028A8D00029A6D020688C
:1013A0000C3050E8002F22F4907240E80026002E06
:1013B000F5D12068143050E8002F22F0010240E8F7
:1013C0000026002EF5D184F83E30256320680C30CD
:1013D00050E8002F22F0100240E80023002BF5D146
:1013E0002046FFF70AFFF8BDFFE705062BD51506D7
:1013F00029D594F83D002128F5D1A068B0F5805F8B
:1014000001D12069B0B1206A411C216221680078B5
:101410004860E08C401E0004000CE084E3D12068AA
:10142000C16821F08001C1602068C16841F04001BD
:10143000C160D8E7206A0088C0F308004860206ACD
:10144000801C2062E5E74006CDD55006CBD5CA68A2
:10145000204622F04002CA6084F83D3000F0CDF80A
:10146000C1E700001518020870B5040004D094F814
:101470003D00002510B106E0012070BD84F83C500D
:10148000204600F023F8242084F83D002068C1683D
:1014900021F40051C160204600F04CFA2068016937
:1014A00021F4904101612068416921F02A014161E4
:1014B0002068C16841F40051C1602564202084F88F
:1014C0003D0084F83E00002070BD000010B586B0DD
:1014D000044614216846FFF715F81749206888422A
:1014E00028D116480021026842F0200202600068FC
:1014F00000F02000059011481438026842F0040200
:101500000260006800F004000590C02000900220F6
:10151000CDE90101032003900820049069460848A2
:10152000FFF7B0F8002205214720FFF741FA4720D6
:10153000FFF730FA06B010BD0014014044380240F5
:1015400000080240704700002DE9F843044690F877
:101550003D001F4616460D4620284CD1C5B1BEB1F0
:1015600094F83C00012846D0012084F83C004FF05C
:101570000008C4F84080212084F83D00FFF77AF984
:10158000A6848146E684A068B0F5805F03D004E0BD
:101590000120BDE8F883206928B12E465FF00005E0
:1015A00084F83C800EE00026FAE78021204600F017
:1015B00047FAA0B9AEB116F8010B21684860E08C7B
:1015C000401EE084E08C4B464FF00002009700285C
:1015D000EBD14FF04001204600F032FA30B1032049
:1015E000D7E735F8020BC0F30800E6E7202084F8BF
:1015F0003D000020CDE70220CBE77047FEE7FEE785
:10160000FEE7000088B04FF4FA641C2206A1684689
:10161000FEF746FF64231C2269460A48FFF794FF41
:10162000204600F0C1FAF0E75374617274207072C2
:101630006F63657373696E67206669726D77617237
:10164000650D0A008400002086B04FF47A741822D9
:1016500006A16846FEF724FF64231822694609485C
:10166000FFF772FF204600F09FFAF0E745726173C2
:1016700065206F6C6420666C61736820646F6E65B2
:10168000210D0A008400002010B5502080F311883D
:10169000BFF34F8FBFF36F8F01F06AF918B10449A0
:1016A0004FF080500860002080F3118810BD0000CA
:1016B00004ED00E010B592B030216846FEF722FF3D
:1016C00014210CA8FEF71EFF17480024016841F002
:1016D00080510160006800F080501190134801684B
:1016E00041F4804101600068069400F4804011904C
:1016F0000220009001200390102004906846FFF71C
:1017000095FA08B172B6FEE70F20CDE90C040E94ED
:101710000F9400210CA81094FFF77CF9002801D049
:1017200072B6FEE712B010BD4038024000700040B3
:101730000248016841F470010160704788ED00E0E3
:101740000148FFF79ABC00001C030020F0B50268B6
:10175000254C264D264E274F274B4FF0804CA0425C
:1017600009D0604507D0A84205D0B04203D0B842A6
:1017700001D0984204D122F0700E4A6842EA0E026B
:10178000A0421BD0604519D0A84217D0B04215D056
:10179000B84213D0984211D0184DA8420ED0184D1F
:1017A000A8420BD0174DA84208D0174DA84205D02B
:1017B000164DA84202D0164DA84203D122F440751E
:1017C000CA682A434D6922F080022A4302608A686F
:1017D000C2620A688262A04201D0984201D10969BE
:1017E000016301214161F0BD00000140000400409F
:1017F00000080040000C004000040140004001408F
:10180000004401400048014000180040001C004016
:101810000020004010B5806B0021C185C184FFF716
:10182000EDFC10BD01680C3151E8002F22F49072DC
:1018300041E80023002BF5D10168143151E8002F55
:1018400022F0010241E80023002BF5D1016B0129B0
:1018500009D101680C3151E8002F22F0100241E853
:101860000023002BF5D1202180F83E1000210163D8
:10187000704708B590F83E10222901D0022008BD1B
:1018800082684FF480539A4201D1016921B1816A83
:101890009A421BD04AB10AE00268816A5268C2F3D8
:1018A00008020A80816A891C08E0026972B1026834
:1018B000526802F07F020A70816A491C8162C18D00
:1018C000491E0904090CC18503D019E00268526859
:1018D000F1E70168CA6822F02002CA600168CA689C
:1018E00022F48072CA6001684A6922F001024A61EA
:1018F000202180F83E10016B012903D0FFF722FE62
:10190000002008BD0021016301680C3151E8002F5F
:1019100022F0100241E80023002BF5D101680A688B
:10192000D20602D50A6849680091818DFFF765FCEF
:10193000E6E7000070B5044600680169E26821F43A
:101940004051114301612169A068E269084361695E
:10195000114308432168CA6849F20C639A43024361
:10196000CA6020684169A26921F440711143416154
:1019700031492068884202D03049884202D1FFF7BD
:1019800013F901E0FFF700F9E2690023192164254A
:101990003226B2F5004F626828D0A0FB0101930FF8
:1019A0009200FEF7C1FC0146B0FBF5F06FF01802A3
:1019B000504301EB800006EB0010B0FBF5F000F0A7
:1019C000F002B1FBF5F002EB0012B1FBF5F06FF0A5
:1019D0001803584301EB800006EB0010B0FBF5F054
:1019E00000F00F0021681044886070BDA0FB010169
:1019F00092185B41FEF798FC0146B0FBF5F002013E
:101A0000B1FBF5F06FF01803584301EB800006EBD3
:101A1000C000B0FBF5F000F0F80002EB4002B1FBB3
:101A2000F5F0584301EB800006EBC000B0FBF5F089
:101A300000F00700D6E7000000100140001401404C
:101A40002DE9F041984617460E460446069D27E0CC
:101A5000681C25D02DB1FEF70DFFA0EB0800A842B1
:101A60001ED920680C3050E8001F21F4D07140E8E6
:101A70000012002AF5D12068143050E8001F21F030
:101A8000010140E80012002AF5D1202084F83D0031
:101A900084F83E00002084F83C000320BDE8F0817B
:101AA0002068006836EA000004D00020B842CFD099
:101AB0000020F3E70120F9E70148FFF7A1BB000090
:101AC00084000020FEE70907090E002804DB00F16E
:101AD000E02080F80014704700F00F0000F1E020D3
:101AE00080F8141D70470000264992B02448086011
:101AF00062B6FEF7CDFEFFF7DDFD23480024016846
:101B000041F004010160016801F0040110910168D5
:101B100041F00101016000681C4900F001001090D3
:101B20001B4801604FF4E131C0E901140C21C4608D
:101B3000C0E904418461C461FFF796FC08B172B644
:101B4000FEE70E940EA80F9400F03AF8114C1C22F8
:101B50001149A0606846FEF7A3FC0021684600F02A
:101B600037F80D4920601C221C3107A8FEF798FCAD
:101B7000002107A800F02CF8606000F01CF8FEE7D8
:101B80000000020808ED00E0303802400014014077
:101B90008400002000000020182C020801460020CC
:101BA000842900D0C81C704710B500B9012000F08E
:101BB000ADFB002010BD10B500F0F4FB002010BDFF
:101BC00041684FF0010009B100F0DDBC00F0D0BC6D
:101BD0007FB50D4604464169B0F9080081B1A1699D
:101BE00071B1FFF7DBFFD4E905128DE80700D4E9F6
:101BF00000102B46226900F082FE039004B070BDF5
:101C0000FFF7CCFF03A9CDE90001208A2B4682B261
:101C1000D4E9001000F046FE012801D00020EDE7D5
:101C20000398EBE72DE9F041184C0F460546E668AE
:101C30002068001D00F0A2FA38B9206890F82C1036
:101C400001208840216981432161681C07D137B197
:101C50002168BDE8F0410E48091D00F0D3BA2068A4
:101C60003544B5424560216805D2A06BBDE8F0411E
:101C7000091D00F0AFBA606B091D00F0ABFAA06A55
:101C8000854200D2A562BDE8F08100001C00002062
:101C9000400400202DE9F041054600F0BFFA2E4C2B
:101CA000A068401CA06020682C4F10B1606940B350
:101CB0002DE02560A068012829D1002606EB8600CA
:101CC00007EB800000F078FA761C072EF6D3234845
:101CD0008C3000F071FA2148A03000F06DFA1F48F6
:101CE000B43000F069FA1D48C83000F065FA1B48AE
:101CF000DC3000F061FA19488C3060631430A06366
:101D000005E02068E96AC06A884200D82560606AF8
:101D1000401C6062E96A012022698840104320610A
:101D200001EB810007EB8000291D00F06BFA00F049
:101D300095FA606900280CD02068E96AC06A884278
:101D400007D207494FF080500860BFF34F8FBFF3B1
:101D50006F8FBDE8F08100001C00002064030020AC
:101D600004ED00E02DE9F041856B1746044600269E
:101D7000026C82B1C7B1E068FEF74DFBE168206CF0
:101D8000091AE1602268914202D2A168081AE06053
:101D9000022F16D017E02068A8B9A06800F04EFE08
:101DA00006460020A0600EE06068FEF734FB216C60
:101DB000606808446060A168884204D3206860605D
:101DC00001E005B16D1E6D1CA5633046BDE8F081D4
:101DD00010B5044690F8510058B101280CD00228E3
:101DE0000FD0502080F31188BFF34F8FBFF36F8F58
:101DF000FEE7206B00F046FA2046BDE8104000F0F8
:101E000041BA10BD10484FF47051420706D0C01DB2
:101E10000D4920F00700411AC1F570510B4A00230B
:101E20000144C2E900030839183A21F007011160A2
:101E30004B600B600B1AC0E9001393604FF0004039
:101E4000536050617047000054040020700000206F
:101E5000144E154CA6F1C8074FF08058DFF84C908F
:101E600012E000BF00F0DAF9F068C568281D00F044
:101E700085F9A068401EA0606068401E606000F0A8
:101E8000EDF92846FFF7A4FF60680028EAD138681A
:101E90000128F9D9C9F80080BFF34F8FBFF36F8FC6
:101EA000F2E700002C0400201C00002004ED00E0FC
:101EB000002807D00021816001600B460A46C160FE
:101EC00000F006BC70470346009829B10260C0E9E3
:101ED0000F31012100F0B8BB0060F8E72DE9F047B1
:101EE0009A46DDE9098481466FF00303206B03EB1A
:101EF00082021044089E20F00707780707D0502080
:101F000080F31188BFF34F8FBFF36F8FFEE700257B
:101F100061B1002023180A5C83F834200A5C12B1F6
:101F2000401C1028F6D384F8435001E084F8345064
:101F3000072E00D30626E662C4E91165201D00F0D5
:101F400046F904F1180000F042F92461C6F10700D7
:101F50006462A061E56484F85050524649463846B0
:101F600000F0F6F82060B8F1000F01D0C8F800408A
:101F7000BDE8F08730B5114900E011460A68824299
:101F8000FBD34B685C18844203D140681844486016
:101F9000084643681C18944209D1084C183C246830
:101FA000A24209D052681A4442600A68126802606C
:101FB000814200D0086030BD0460F9E77000002065
:101FC0000648416B096829B1416BC968C96849680D
:101FD000816270474FF0FF31FAE700001C000020DB
:101FE00008484068401C4FF0500080F3118804D02E
:101FF000BFF34F8FBFF36F8FFEE7BFF34F8FBFF37A
:102000006F8FFEE7780000202DE9F041044600F0D4
:1020100005F994F9455004F1240609E0606A48B1D5
:10202000304600F057FD08B100F09EF96D1E6DB20C
:10203000002DF3DC4FF0FF3684F8456000F00EF918
:1020400000F0ECF894F9445004F1100709E020691D
:1020500048B1384600F03EFD08B100F085F96D1E2C
:102060006DB2002DF3DC84F84460BDE8F04100F06F
:10207000F5B800002DE9F0410546002700F0C8F949
:10208000324E306808B9FFF7BDFE706905424ED187
:10209000C5B3083568070ED005F00700C0F1080089
:1020A0000544680707D0502080F31188BFF34F8F95
:1020B000BFF36F8FFEE72DB37068854237D8234892
:1020C000183001460C6801E020460C466168A942C0
:1020D00002D221680029F7D131688C4227D00768E5
:1020E0002168016060680837411B10290FD9601909
:1020F000420708D0502080F31188BFF34F8FBFF301
:102100006F8FFEE713E041606560FFF733FF6168A2
:102110007068401A7060B268904200D2B060706916
:1021200001430020C4E90001F068401CF06000F0A9
:102130000BFD780707D0502080F31188BFF34F8F35
:10214000BFF36F8FFEE73846BDE8F08158000020EE
:1021500010B5031F4FF080741C601B1F21F001019C
:102160001960191F044B0B6014390A60091F6FF0C6
:10217000020244380A6010BDE11F0208D0E90132B2
:1021800001699A60D0E901235A604A68824201D10C
:1021900082684A60002202610868401E0860086880
:1021A00070470000034B036003F154000860802077
:1021B00010607047C800002000F108014FF0FF32A6
:1021C000C0E90112C1600161002101607047002176
:1021D0000161704730B50B685A1C02D000F108024B
:1021E00002E0026904E02246546825689D42FAD95B
:1021F00053684B6099608A60516008610168491CAE
:10220000016030BD42684A6093688B609368596092
:10221000916008610168491C01607047502080F39B
:102220001188BFF34F8FBFF36F8F0A494868401C76
:10223000486001280CD10848006810F0FF0F07D053
:10224000502080F31188BFF34F8FBFF36F8FFEE7ED
:10225000704700007800002004ED00E0084948685D
:1022600028B1401E486001D180F31188704750208A
:1022700080F31188BFF34F8FBFF36F8FFEE700002D
:102280007800002070B500282AD0164DA0F108046F
:1022900060686969084207D1502080F31188BFF354
:1022A0004F8FBFF36F8FFEE722683AB1502080F363
:1022B0001188BFF34F8FBFF36F8FFEE788436060D5
:1022C00000F0A6F860686968084468602046FFF777
:1022D00051FE2869401C2861BDE8704000F034BC04
:1022E00070BD0000580000204FF0E0200021016187
:1022F000816105494FF47A720968B1FBF2F1491E18
:1023000041610721016170471800002010B50200EB
:1023100014D00F48006B38B1502080F31188BFF300
:102320004F8FBFF36F8FFEE700F072F80021104669
:10233000FFF778FC00F008FC002807D105494FF0B2
:1023400080500860BFF34F8FBFF36F8F10BD000048
:102350001C00002004ED00E002490A6A0260C9681E
:10236000416070471C00002001490120C86170478E
:102370001C00002010B50C4650B1094909681831FD
:10238000FFF728FF2046BDE810400121FFF74ABCB7
:10239000502080F31188BFF34F8FBFF36F8FFEE79C
:1023A0001C00002010B586B00024039405AA04A9DF
:1023B00003A80494FFF7F6FEDDE903010094CDE9DC
:1023C000011000230EA11048059A00F098FA0F4959
:1023D0000028C86211D0502080F31188BFF34F8FBE
:1023E000BFF36F8F4FF0FF30886201204861CC60EF
:1023F00006B0BDE8104000F041B806B010BD0000C6
:1024000049444C4500000000511E02081C000020F9
:102410000248016B491C0163704700001C0000204A
:102420001448016B11B10121C16170470021C161E4
:102430000169B1FA81F1C1F11F0101EB81020E497D
:1024400051F822306BB101EB820101F108034A68B7
:1024500052684A609A4201D152684A60D16801606C
:102460007047502080F31188BFF34F8FBFF36F8FF9
:10247000FEE700001C000020640300201CB5374864
:102480000168374A914207D1502080F31188BFF389
:102490004F8FBFF36F8FFEE700683149491E8842B6
:1024A00007D1502080F31188BFF34F8FBFF36F8F98
:1024B000FEE72C4908780190FF20087008788DF815
:1024C00000009DF800009DF8002000F0F000904210
:1024D00007D0502080F31188BFF34F8FBFF36F8F69
:1024E000FEE79DF80000204C00F05000207007200F
:1024F000A06005E09DF8002052008DF80020401EED
:102500009DF800201206F5D4A060032807D05020C3
:1025100080F31188BFF34F8FBFF36F8FFEE74FF447
:102520004070A060019808700C482030016841F4A8
:1025300070010160016841F070410160FFF7D4FE55
:1025400000206060FDF794FE0848016841F04041BA
:102550000160FDF779FE00201CBD000000ED00E0E9
:1025600071C20F4100E400E07800002034EF00E089
:1025700010B502460021012000F012F80446FFF7D2
:1025800097FC204610BD38B50B460022009011463E
:10259000012000F026F80446FFF78AFC204638BDEB
:1025A000F8B517460E46050013D005FB06F0483077
:1025B000FFF760FD04000AD0002084F8460004F113
:1025C00048023B46314628460094FFF77CFC2046F3
:1025D000F8BD502080F31188BFF34F8FBFF36F8F8A
:1025E000FEE738B5049D18B153B1CAB181B120E0FE
:1025F000502080F31188BFF34F8FBFF36F8FFEE73A
:10260000502080F31188BFF34F8FBFF36F8FFEE729
:10261000502080F31188BFF34F8FBFF36F8FFEE719
:1026200039B1502080F31188BFF34F8FBFF36F8F04
:10263000FEE748241C46012384F846302B460094CC
:10264000FFF741FC204638BD70B50D46040025D08B
:10265000FFF7E4FDD4E90F20216802FB0011A1601F
:102660000021A163216861600A46D4E90F01401E80
:1026700000FB0121E16021464FF0FF3001F8440FDB
:10268000487004F110008DB1FFF796FD04F12400AD
:10269000FFF792FDFFF7E2FD012070BD502080F3AF
:1026A0001188BFF34F8FBFF36F8FFEE721690029B9
:1026B000F0D000F00FFA0028ECD004494FF0805021
:1026C0000860BFF34F8FBFF36F8FE3E704ED00E0C7
:1026D0002DE9FF4782B01D468A464FF000080400EE
:1026E00003D0BAF1000F08D011E0502080F3118818
:1026F000BFF34F8FBFF36F8FFEE7206C38B15020D0
:1027000080F31188BFF34F8FBFF36F8FFEE7022D69
:102710000AD1E06B012807D0502080F31188BFF365
:102720004F8FBFF36F8FFEE700F014F93F4F4FF06C
:1027300000094FF0805648B9049838B1502080F312
:102740001188BFF34F8FBFF36F8FFEE7FFF766FD72
:10275000A06BE16B884207D3022D05D00498D0B15D
:10276000B8F1000F1AD01EE02A4651462046FFF766
:10277000F9FA616A19B104F1240000F0ABF920B153
:102780003E60BFF34F8FBFF36F8FFFF767FD0120F0
:1027900006B0BDE8F087FFF761FD22E06846FFF76D
:1027A000DBFD4FF00108FFF759FDFFF731FEFFF7A2
:1027B00035FD94F94400401C01D184F8449094F90B
:1027C0004500401C01D184F84590FFF747FD04A95E
:1027D000684600F02DF830B12046FFF715FC00F0F8
:1027E000B3F90020D4E7FFF719FDA06BE16B884235
:1027F00013D1FFF733FD04F110000499FFF7BAFD80
:102800002046FFF701FC00F09FF900289ED13E60B2
:10281000BFF34F8FBFF36F8F98E7FFF71FFD204681
:10282000FFF7F2FB00F090F990E7000004ED00E004
:102830002DE9F0410C46050011D0C4B1FFF7EEFCC4
:10284000174BDA686E682068911B471C17D02F68F9
:102850001B6A9F4219D0964217D8012410E05020DD
:1028600080F31188BFF34F8FBFF36F8FFEE75020C7
:1028700080F31188BFF34F8FBFF36F8FFEE7002403
:10288000FFF7ECFC2046BDE8F081884205D9401AEC
:1028900020602846FFF760FDF1E700202060DCE7BC
:1028A0001C0000202DE9FF5F8346DDE90E87994675
:1028B00016468A469000FFF7DDFB05001CD0542029
:1028C000FFF7D8FB040014D00020256384F85100E2
:1028D000CDE90240CDE900874B4632465146584685
:1028E000FFF7FCFA2046FFF7D5F9012004B0BDE858
:1028F000F09F2846FFF7C6FC4FF0FF30F6E7F0B533
:1029000085B0DDE90B640A9DA6B1DCB154270097C0
:102910002663022684F85160002604AFCDE9024602
:10292000CDE90057FFF7DAFA2046FFF7B3F904982C
:1029300005B0F0BD502080F31188BFF34F8FBFF377
:102940006F8FFEE7502080F31188BFF34F8FBFF3E6
:102950006F8FFEE70548416919B1006B18B100207F
:102960007047012070470220704700001C000020C3
:102970002DE9F0412F4C0026206B28B1A069401CA6
:10298000A0613046BDE8F081E5686D1CE56013D1BB
:10299000606B006838B1502080F31188BFF34F8F0F
:1029A000BFF36F8FFEE7606BA16B6163A063206A6A
:1029B000401C2062FFF704FBA06ADFF87C808542A0
:1029C00009D3606B0068A0B1606BC068C7687868A5
:1029D000854211D2A0622068C06A00EB800158F8DD
:1029E0002100012800D90126E0690028C9D001266C
:1029F000C7E74FF0FF30EDE7381DFFF7BFFBB86AC0
:102A000018B107F11800FFF7B9FBF96A0120226934
:102A100088401043206101EB810108EB8100391DE2
:102A2000FFF7F0FBF86A2168C96A8842C9D301261A
:102A3000C7E700001C0000206403002070B50400FC
:102A40004FF0000140D0214D2868844207D050202B
:102A500080F31188BFF34F8FBFF36F8FFEE7A06C39
:102A600038B1401EA064636CE26A9A422CD040B137
:102A70002AE0502080F31188BFF34F8FBFF36F8F90
:102A8000FEE7201DFFF77AFB114A012150B9E06AE9
:102A900000EB800352F8233023B92B6901FA00F0D0
:102AA00083432B61606CE062C0F10700A061E06AC3
:102AB0002B6981401943296100EB800002EB800003
:102AC000211DFFF79FFB0121084670BD1C0000205F
:102AD000640300202DE9F041C068C468ACB104F182
:102AE00018000746FFF74AFB154D286B0126A0B1D9
:102AF00039461448FFF786FBE06A2968C96A8842AC
:102B00001CD90120EE61BDE8F081502080F31188CE
:102B1000BFF34F8FBFF36F8FFEE7201DFFF72EFB34
:102B2000E16A2A6906FA01F01043286101EB81008D
:102B30000449B43901EB8000211DDBE70020E2E706
:102B40001C000020180400202DE9F0472C4D002423
:102B50002746286B38B1FFF761FB286B401E2863BE
:102B6000286B40B146E0502080F31188BFF34F8FAF
:102B7000BFF36F8FFEE7A968224E0120D1B3A6F103
:102B8000B40980463068E8B1F068C46804F1180000
:102B9000FFF7F4FA201DFFF7F1FAE06A2A6908FA54
:102BA00000F11143296100EB800109EB8100211D37
:102BB000FFF728FBE06A2968C96A8842E2D3C5F8B2
:102BC0001C80DFE70CB1FFF7FBF9AC6944B1464666
:102BD000FFF7CEFE00B1EE61641EF9D10020A861BE
:102BE000E86938B10849012738070860BFF34F8FFB
:102BF000BFF36F8FFFF732FB3846BDE8F087000068
:102C00001C0000201804002004ED00E04FF040708C
:102C1000E1EE100A70470000742C02080516020845
:102C20000000000000000000800000000000000024
:102C300000000000682C020849160208FDFF000091
:102C40000000000080000000000000000000000004
:102C5000000000000000000001020304060708094C
:102C600000000000010203046D795461736B30327F
:102C70000000000064656661756C745461736B00DC
:102C8000A02C02080000002084000000C4010208FB
:102C9000242D02088400002034460000E0010208D0
:102CA0000000000000000000000000000100000023
:102CB00010000000000000000024F40000000000EC
:102CC0000000000000000000000000000000000004
:102CD00000000000000000000000000000000000F4
:102CE00000000000000000000000000000000000E4
:102CF00000000000000000000000000000000000D4
:102D000000000000000000000000000000000000C3
:102D1000000000000000000000000000AAAAAAAA0B
:042D200000000000AF
:040000050802018963
:00000001FF
